:100000000211860200090214E380FE020D9B80FEAD
:1000100080FE2202000E753908753A08E4F52F2299
:0A00200080FE1402001080FE80FE36
:10002B000200208F828E83E5821582AE83700215CB
:10003B00834E60097F147E001217E980EA2280FE4E
:07004B0002002680FE80FE8A
:0300530002002880
:03005B0002004957
:0D00630002004E75392B753A2BE4F52F2263
:030073000215650E
:0D007B000200508F993099FDC2997F00223C
:10008B000214508F09C20374017E00A80708800573
:10009B00C333CE33CED8F9F5118E1075F002E509C6
:1000AB00A4249EF582E5F03418F583E493FC7401E7
:1000BB0093FD900041E0FF7E00120C1F7C007D0A37
:1000CB00120C318E0A8F0B75F002E509A4247EF514
:1000DB0082E5F03418F583E493F50C740193F50D78
:1000EB00742F2509F582E43400F583E0F509F470EB
:1000FB000302075475F002E509A4243FF582E5F0ED
:10010B003400F583E0FEA3E0FF75F002E509A424BB
:10011B0046F582E5F03400F583E0FCA3E0C39FF5E0
:10012B000FEC9EF50E75F002E509A4242BF582E584
:10013B00F03400F583E0FCA3E0C39FFFEC9EAB071C
:10014B00FA90187CE493FF70030202817E00AC0AE4
:10015B00AD0B120C1FD3EB9FEE6480F8EA64809812
:10016B00500302027F75F002E509A4242DF582E508
:10017B00F03400F583E475F001120C8675F002E59E
:10018B0009A4242DF582E5F03400F583E0FEA3E00D
:10019B00FF901876E493FC740193FDD3EF9DEE9CD6
:1001AB00402C75F002E509A4243FF582E5F03400FC
:1001BB00F583E50E850FF0120C8675F002E509A4A8
:1001CB00242DF582E5F03400F583E4F0A3F07439C7
:1001DB002509F582E43400F583E004F07439250930
:1001EB00F582E43400F583E0FF90187BE493FEEF97
:1001FB00C39E401FE511F4FFE510F4FE900048E0AC
:10020B005EF0A3E05FF074392509F582E43400F564
:10021B0083E4F074262509F582E43400F583E4F0D9
:10022B0075F002E509A4243AF582E5F03400F58374
:10023B00E4F0A3F075F002E509A42442F582E5F0A1
:10024B003400F583E4F0A3F075F002E509A424294A
:10025B00F582E5F03400F583E4F0A3F075F002E5E8
:10026B0009A4243CF582E5F03400F583E4F0A3F017
:10027B00D2038002C203C3EB950BE50A6480F8EA54
:10028B0064809850030203BD3003030207549000AF
:10029B0027E0FEA3E0FF4E606A75F002E509A42497
:1002AB003AF582E5F03400F583E475F001120C8623
:1002BB0075F002E509A4243AF582E5F03400F583E4
:1002CB00E0FCA3E0C39FEC9E403975F002E509A466
:1002DB00243FF582E5F03400F583E50E850FF0122F
:1002EB000C8674262509F582E43400F583E4F07559
:1002FB00F002E509A4243AF582E5F03400F583E435
:10030B00F0A3F09018BFE4937E00250BFFEE350AA7
:10031B00FEC3E50F9FEE6480F8E50E648098500DE8
:10032B00C3EB9FEE6480F8EA6480984053742625F3
:10033B0009F582E43400F583E004F074262509F511
:10034B0082E43400F583E0FF90187AE493FEEFC368
:10035B009E4019900048E04510F0A3E04511F07461
:10036B00262509F582E43400F583E4F075F002E507
:10037B0009A42442F582E5F03400F583E4F0A3F000
:10038B0074392509F582E43400F583E4F075F00245
:10039B00E509A4242DF582E5F03400F583E4F0A300
:1003AB00F075F002E509A42429F582E5F03400028A
:1003BB000643D3EB950DE50C6480F8EA6480985006
:1003CB00030204DE900044E0FEA3E0FF4E605D7587
:1003DB00F002E509A42442F582E5F03400F583E44C
:1003EB0075F001120C8675F002E509A42442F58222
:1003FB00E5F03400F583E0FCA3E0D39FEC9E402CAA
:10040B0075F002E509A4243FF582E5F03400F5838D
:10041B00E50E850FF0120C8675F002E509A4244257
:10042B00F582E5F03400F583E4F0A3F09018BFE417
:10043B0093FFC3E50B9FFFE50A9400FEC3E50F9FF7
:10044B00EE6480F8E50E648098400CEB9FEE6480C0
:10045B00F8EA648098505974392509F582E4340020
:10046B00F583E004F074392509F582E43400F58353
:10047B00E0FF90187BE493FEEFC39E401FE511F461
:10048B00FFE510F4FE900048E05EF0A3E05FF0742F
:10049B00392509F582E43400F583E4F075F002E5C3
:1004AB0009A4243AF582E5F03400F583E4F0A3F0D7
:1004BB0075F002E509A4242DF582E5F03400F583EF
:1004CB00E4F0A3F074262509F582E43400F583E407
:1004DB00020648C3E4950DFFE4950CFEC3EB9FEEBB
:1004EB006480F8EA648098500302065AD3EB950DAA
:1004FB00E50C6480F8EA648098400302065A75F0B4
:10050B0002E509A42429F582E5F03400F583EA8B92
:10051B00F0120C8690187DE493F9FF75F002E50953
:10052B00A42429F582E5F03400F583E0FCA3E0FD7B
:10053B00D39F7480F8EC648098401D90003EE0FFE0
:10054B0075F002E509A4243FF582E5F03400F5834C
:10055B00E48FF0120C868044E9FFC3E49FFFE49420
:10056B0000FEC3ED9FEE6480F8EC648098504175FB
:10057B00F002E509A4243FF582E5F03400F583C0D1
:10058B0083C082E0FEA3E0FF90003EE0FDC3EF9D41
:10059B00FFEE9400D082D083F0A3EFF075F002E56C
:1005AB0009A42429F582E5F03400F583E4F0A3F0E7
:1005BB0074392509F582E43400F583E004F07439CD
:1005CB002509F582E43400F583E0FF90187BE49372
:1005DB00FEEFC39E401F74392509F582E43400F504
:1005EB0083E4F0E511F4FFE510F4FE900048E05EC3
:1005FB00F0A3E05FF075F002E509A4242DF582E588
:10060B00F03400F583E4F0A3F074262509F582E4B9
:10061B003400F583E4F075F002E509A4243AF58281
:10062B00E5F03400F583E4F0A3F075F002E509A4DE
:10063B002442F582E5F03400F583E4F0A3F075F085
:10064B0002E509A4243CF582E5F0340002074C9046
:10065B001878E493FE740193FF4E605D75F002E52C
:10066B0009A4243CF582E5F03400F583E475F00130
:10067B00120C8675F002E509A4243CF582E5F034F2
:10068B0000F583E0FCA3E0C39FEC9E402C75F002C9
:10069B00E509A4243CF582E5F03400F583E4F0A3EE
:1006AB00F075F002E509A4243FF582E5F03400F57E
:1006BB0083E50E850FF0120C8674392509F582E45B
:1006CB003400F583E004F074392509F582E4340035
:1006DB00F583E0FF90187BE493FEEFC39E401F74FD
:1006EB00392509F582E43400F583E4F0E511F4FFD4
:1006FB00E510F4FE900048E05EF0A3E05FF075F0CB
:10070B0002E509A4242DF582E5F03400F583E4F02D
:10071B00A3F074262509F582E43400F583E4F07523
:10072B00F002E509A4243AF582E5F03400F583E400
:10073B00F0A3F075F002E509A42442F582E5F0344C
:10074B0000F583E4F0A3F0C20322E53C7003020939
:10075B00F0E54E70030209F0900006E0C3940F7FA2
:10076B000150027F00EF25E0FF900005E0C3940FDE
:10077B007E0150027E00EE4FFF900007E0C3940F06
:10078B007E0150027E00EE25E025E04FFF90000831
:10079B00E0C3940F7E0150027E00EE33333354F8E6
:1007AB004FFF900009E0C3940F7E0150027E00EED4
:1007BB00C454F04FFF90000AE0C3940F7E01500227
:1007CB007E00EEC43354E04FFF90000BE0C3940F58
:1007DB007E0150027E00EEC4333354C04FFF9000B5
:1007EB000CE0C3940F7E0150027E00EEC433333312
:1007FB0054804F900000F090000EE0C3940F7F01E7
:10080B0050027F00EF25E0FF90000DE0C3940F7EB8
:10081B000150027E00EE4FFF90000FE0C3940F7E5D
:10082B000150027E00EE25E025E04FFF900010E026
:10083B00C3940F7E0150027E00EE33333354F84FD6
:10084B00FF900011E0C3940F7E0150027E00EEC4B6
:10085B0054F04FFF900012E0C3940F7E0150027EC4
:10086B0000EEC43354E04FFF900013E0C3940F7EAF
:10087B000150027E00EEC4333354C04FFF9000147E
:10088B00E0C3940F7E0150027E00EEC43333335429
:10089B00804F900001F0900016E0C3940F7F015041
:1008AB00027F00EF25E0FF900015E0C3940F7E015F
:1008BB0050027E00EE4FFF900017E0C3940F7E01B5
:1008CB0050027E00EE25E025E04FFF900018E0C3BC
:1008DB00940F7E0150027E00EE33333354F84FFFFA
:1008EB00900019E0C3940F7E0150027E00EEC454B9
:1008FB00F04FFF90001AE0C3940F7E0150027E0070
:10090B00EEC43354E04FFF90001BE0C3940F7E0105
:10091B0050027E00EEC4333354C04FFF90001CE0F6
:10092B00C3940F7E0150027E00EEC43333335480E8
:10093B004F900002F090001EE0C3940F7F01500215
:10094B007F00EF25E0FF90001DE0C3940F7E015068
:10095B00027E00EE4FFF90001FE0C3940F7E01500C
:10096B00027E00EE25E025E04FFF900020E0C394CF
:10097B000F7E0150027E00EE33333354F84FFF905D
:10098B000021E0C3940F7E0150027E00EEC454F0B0
:10099B004FFF900022E0C3940F7E0150027E00EEC9
:1009AB00C43354E04FFF900023E0C3940F7E0150FB
:1009BB00027E00EEC4333354C04FFF900024E0C3DB
:1009CB00940F7E0150027E00EEC433333354804FBC
:1009DB00900003F0E4F53C120FDCE4900000F0A370
:1009EB00F0A3F0A3F022E527701790FF0974C1F074
:1009FB0090FF07F090FF03F090FF0AF0A3F075272C
:100A0B0001E53D7059E526640145257005753801F2
:100A1B008018E526643C45257004F538800CE526E6
:100A2B00647845257004F525F5260526E526700224
:100A3B000525E4F533F532F531F530F546120016A0
:100A4B00C291C283C287E4F541F540F53FF53EF50F
:100A5B004FF550F545F544F543F542020BD3753888
:100A6B0001E47F2C7E01FDFCAB33AA32A931A83007
:100A7B00C3120D6A4003020B5DE5332401F533E429
:100A8B003532F532E43531F531E43530F530C2919C
:100A9B00C283C287E4F54FF5507F01FEFDFCAB33FB
:100AAB00AA32A931A830C3120D6A601CE47F64FE20
:100ABB00FDFCA830C3120D6A600EE47FC8FEFDFC7E
:100ACB00A830C3120D6A701DE4FFFEFDFCAB41AAFA
:100ADB0040A93FA83ED3120D6A4005121406803878
:100AEB001217428033E47F32FEFDFCAB33AA32A9EE
:100AFB0031A830C3120D6A601CE47F96FEFDFCA882
:100B0B0030C3120D6A600EE47FFAFEFDFCA830C301
:100B1B00120D6A7003120066E47F2C7E01FDFCABA4
:100B2B0033AA32A931A830C3120D6A6003020BD36A
:100B3B00FFFEFDFCAB41AA40A93FA83ED3120D6AB4
:100B4B004008121406754F01807E12174275500132
:100B5B008076E4FFFEFDFCAB41AA40A93FA83ED343
:100B6B00120D6A4009D291D28312131E8004C291D6
:100B7B00C283E547B40118755001E4754514F5447B
:100B8B00F543F542F54775370AF536F535F534E497
:100B9B00FFFEFDFCAB45AA44A943A842D3120D6A44
:100BAB004021E4FFFEFDFCAB37AA36A935A834D3B0
:100BBB00120D6A4004C2878002D287754601121754
:100BCB00428005C287E4F546E53B654F6018E53B7F
:100BDB00B40110E54F700C75375475363DF535F58E
:100BEB00348000854F3BE4FFFEFDFCAB37AA36A9F2
:100BFB0035A834D3120D6A401AE53724FFF537E5D3
:100C0B003634FFF536E53534FFF535E53434FFF58D
:100C1B0034D29122EF8DF0A4A8F0CF8CF0A428CE83
:100C2B008DF0A42EFE22BC000BBE0029EF8DF084AC
:100C3B00FFADF022E4CCF875F008EF2FFFEE33FE9A
:100C4B00EC33FCEE9DEC984005FCEE9DFE0FD5F0D1
:100C5B00E9E4CEFD22EDF8F5F0EE8420D21CFEADDA
:100C6B00F075F008EF2FFFED33FD4007985006D5D8
:100C7B00F0F222C398FD0FD5F0EA22C5F0F8A3E0FD
:100C8B0028F0C5F0F8E582158270021583E038F084
:100C9B002275F008758200EF2FFFEE33FECD33CDBA
:100CAB00CC33CCC58233C5829BED9AEC99E5829807
:100CBB00400CF582EE9BFEED9AFDEC99FC0FD5F006
:100CCB00D6E4CEFBE4CDFAE4CCF9A88222B800C17D
:100CDB00B90059BA002DEC8BF084CFCECDFCE5F0EA
:100CEB00CBF97818EF2FFFEE33FEED33FDEC33FC31
:100CFB00EB33FB10D703994004EB99FB0FD8E5E4DA
:100D0B00F9FA227818EF2FFFEE33FEED33FDEC33BB
:100D1B00FCC933C910D7059BE99A4007EC9BFCE94A
:100D2B009AF90FD8E0E4C9FAE4CCFB2275F010EF86
:100D3B002FFFEE33FEED33FDCC33CCC833C810D7C9
:100D4B00079BEC9AE899400AED9BFDEC9AFCE8991D
:100D5B00F80FD5F0DAE4CDFBE4CCFAE4C8F922EBDA
:100D6B009FF5F0EA9E42F0E99D42F0E89C45F022A7
:100D7B007401FF3395E0FEFDFC080808E6CF2FF663
:100D8B0018E6CE3EF618E6CD3DF618E6CC3CF6223C
:100D9B00C0E0C0F0C083C082C0D075D000C000C01E
:100DAB0001C002C003C004C005C006C0070548E56A
:100DBB0048D394964006754E01754800782A120D5B
:100DCB007B7BC07A2779097800C3120D6A40030236
:100DDB000E92752D00752C00752B00752A00E53DC4
:100DEB0064016003020E92FFFEFDFCAB41AA40A919
:100DFB003FA83E120D6A4035E54FB40130E5412462
:100E0B00FFF541E54034FFF540E53F34FFF53FE5A5
:100E1B003E34FFF53EE4FFFEFDFCAB41AA40A93F8B
:100E2B00A83EC3120D6A7005754701F54FE4FFFE2E
:100E3B00FDFCAB45AA44A943A842D3120D6A404717
:100E4B00E550B40142E4FFFEFDFCAB37AA36A935F1
:100E5B00A834C3120D6A702FE54524FFF545E54410
:100E6B0034FFF544E54334FFF543E54234FFF542E7
:100E7B00E4FFFEFDFCAB45AA44A943A842C3120DF7
:100E8B006A7004F550F53DE54C2401F54CE4354B07
:100E9B00F54BE4354AF54AE43549F549D007D00618
:100EAB00D005D004D003D002D001D000D0D0D08256
:100EBB00D083D0F0D0E03290FE94E04402F090FE6C
:100ECB0040E4F0A3F0A3F0A3F0A3F0A3F0A3F0A3EE
:100EDB00F0A3F0A3F0A3F0A3F0A3F0A3F0A3F0A36F
:100EEB00F090FE60F0A3F0A3F0A3F0A3F0A3F0A3A7
:100EFB00F0A3F09018709390FE77F0901871E49334
:100F0B0090FE76F0901872E49390FE75F090187343
:100F1B00E49390FE74F090186BE493F513740193C3
:100F2B00F514901875E4936061E4F5089018C0E42B
:100F3B0093FFE508C39F505274017E00A8080880F8
:100F4B0005C333CE33CED8F9FFE5135EFEE5145F50
:100F5B004E603390FE72C083C082E0FCA3E0FDE5DF
:100F6B000890186193FF74017E00A807088005C3E1
:100F7B0033CE33CED8F9FFEC4EFEED4FFFD082D0FF
:100F8B0083EEF0A3EFF0050880A243D480D2BD120C
:100F9B00149A9018C0E493F5121214E3D202C20013
:100FAB001218509018C1E493FFD3940350057508A1
:100FBB00058005EF2404F508E508600F3000F912F1
:100FCB0017131508C20012185080ED1215A0C2029B
:100FDB0022900000E060030210BDA3E0F460030266
:100FEB0010BD7FB87E0BFDFCAB4CAA4BA94AA849A0
:100FFB00C3120D6A50030210BDE4F54CF54BF54AD4
:10100B00F549900002E0702BE53D700E753D0175C2
:10101B00415AF540F53FF53E8054E4F53DF541F579
:10102B0040F53FF53EF54FF550F545F544F543F5E5
:10103B0042803BE53D64017035E5507031FFFEFDAC
:10104B00FCAB45AA44A943A842C3120D6A701F907A
:10105B000002E0B40805121611800A900002E0B4F9
:10106B000A0C1215D9E4F533F532F531F530900051
:10107B0002E06402703CE5507021753D01F550753E
:10108B004514F544F543F542F541F540F53FF53E82
:10109B00F54FF533F532F531F53022E4F53DF541F9
:1010AB00F540F53FF53EF54FF550F545F544F54365
:1010BB00F54222D296D295EFB40A00400302115E9C
:1010CB009010D2F82828730210F0021100021104BC
:1010DB0002111002112002112A02113402113A02DC
:1010EB00114202114ED2A1D2B4D2A4D2A5D282D235
:1010FB00A2C2A3806CC2A18038D2A1D2B4C2A4D2A6
:10110B00A5D282800AD2A1D2B4D2A4D2A5C282C265
:10111B00A2D2A3804CC2A1D2B4D2A4C2A5802CD29D
:10112B00A1C2B4D2A4D2A58022D2A1C2B4800CD2C7
:10113B00A1D2B4D2A48022D2A1D2B4D2A4D2A5D2AD
:10114B0082800AD2A1D2B4D2A4D2A5C282D2A2D218
:10115B00A3800EC2A1C2B4C2A4C2A5C282C2A2C243
:10116B00A3BD0106C296D2958007BD0204D296C2DA
:10117B0095E52F6003D2A022C2A02278FFE4F6D817
:10118B00FD9000007F007E04E4F0A3DFFCDEFA7527
:10119B0081500211DB02167CE493A3F8E493A34085
:1011AB0003F68001F208DFF48029E493A3F85407D7
:1011BB00240CC8C333C4540F4420C8834004F456D2
:1011CB00800146F6DFE4800B01020408102040800A
:1011DB00901220E47E019360BCA3FF543F30E509DD
:1011EB00541FFEE493A360010ECF54C025E060A80A
:1011FB0040B8E493A3FAE493A3F8E493A3C8C5829D
:10120B00C8CAC583CAF0A3C8C582C8CAC583CADF0A
:10121B00E9DEE780BE013900013A00012F000146EB
:10122B0000013800014F00043E0000000001500097
:10123B00044200000000013D00013B000449000096
:10124B0000000430000000000147000434000000DF
:10125B0000022100000223000001270002280000E9
:10126B0002250000014800014E00014D00013C0029
:10127B00042A00000000012E0042002703E8420070
:10128B004403E84100410A41003E020112000213EF
:10129B000000C102C101C100420048000000E4F59A
:1012AB008090FF0004F090FF01F090FF02F090FFA0
:1012BB0003F090FF04F090FF05F090FF06F090FF15
:1012CB0007F090FF08F090FF09F090FF0AF090FFF5
:1012DB000BF090FF0CF090FF0DF090FF0EF090FFD5
:1012EB000FF0E4F5A090FF1004F090FF11F090FFC9
:1012FB0012F090FF13F090FF14F090FF15F090FF99
:10130B0016F090FF17F0E4F5B090FF1C04F090FF7F
:10131B001DF022E47B3CFAF9F8AF41AE40AD3FAC97
:10132B003E120CD88F39E47B3CFAF9F8AF41AE4052
:10133B00AD3FAC3E120CD8AF038F3AD3E53A648085
:10134B00949E40040539800ED3E53A648094804026
:10135B0005753A058003E4F53AE5226401452170F1
:10136B0005752F018018E522643245217004F52F95
:10137B00800CE522646445217004F521F5220522D9
:10138B00E5227002052122900048E07002A3E06084
:10139B0064E52445237063F523752401E53D700E48
:1013AB00753D0175415AF540F53FF53E803DE54FE2
:1013BB0064016005E550B40119E4F53DF541F540D4
:1013CB00F53FF53EF54FF550F545F544F543F54240
:1013DB008019E4FFFEFDFCAB45AA44A943A842C318
:1013EB00120D6A7006121647121406E4F533F53225
:1013FB00F531F53022E4F523F52422E47B3CFAF9B0
:10140B00F8AF41AE40AD3FAC3E120CD88F39E47B08
:10141B003CFAF9F8AF41AE40AD3FAC3E120CD8AF41
:10142B00038F3AD3E53A6480949E40040539800ECD
:10143B00D3E53A648094804005753A058003E4F562
:10144B003A752F0122C0E0C083C082C0D0539FFDEC
:10145B00E54D602CE548D394694003753C0074045A
:10146B00253CF582E43400F583E548F0754800052A
:10147B003CE53CD394214003753C00754E0080063F
:10148B00754D01754800D0D0D082D083D0E032E4C6
:10149B00FDFC9018C0E493FFEDC39F503A74017E9E
:1014AB0000A805088005C333CE33CED8F9FFE5136A
:1014BB005EFEE5145F4E600F742F2DF582E4340051
:1014CB00F583ECF00C800D742F2DF582E43400F5D0
:1014DB008374FFF00D80BB2205129018C0E493FFBC
:1014EB00E512C39F4007D200D201E4F512E5144583
:1014FB00137003D2012274017E00A812088005C369
:10150B0033CE33CED8F9FFE5135EFEE5145F4E60A4
:10151B00C7E51290186193F5D500000000002290EA
:10152B00FF1174C1F090FF1CF090FF14F0A3F0902A
:10153B00FF02F090FF12F0A3F090FF10F090FF0E5F
:10154B00F090FF0DF0C2A1C2B4C2A4C2A5C282C268
:10155B00A2C2A3C2A0D296D29522C0E0C0F0C08393
:10156B00C082C0D075D000C000C001C002C003C093
:10157B0004C005C006C0071216B0D007D006D005B0
:10158B00D004D003D002D001D000D0D0D082D083F1
:10159B00D0F0D0E032E4FF9018BEE493FEEFC39E90
:1015AB00502B75F002EFA42446F582E5F03400F5DC
:1015BB0083E0FCA3E0FD75F002EFA4243FF582E588
:1015CB00F03400F583ECF0A3EDF00F80CA22E47F3A
:1015DB001EFEFDFCAB41AA40A93FA83ED3120D6AEB
:1015EB004019E541941EF541E5409400F540E53F77
:1015FB009400F53FE53E9400F53E22E475411EF55F
:10160B0040F53FF53E22E541241EF541E43540F51A
:10161B0040E4353FF53FE4353EF53EE47F687E011F
:10162B00FDFCAB41AA40A93FA83ED3120D6A400B6B
:10163B00E4754168754001F53FF53E22E541241EF6
:10164B00F541E43540F540E4353FF53FE4353EF5F3
:10165B003EE47F687E01FDFCAB41AA40A93FA83E5A
:10166B00D3120D6A400AE475411EF540F53FF53E75
:10167B00221217FF12152A12182A1217D2D2AF12E2
:10168B000EC230000B12171312176E120012C2008B
:10169B001213921207557F047E0012002E1217941C
:1016AB001209F180DD53D4DF742F2512F582E43457
:1016BB0000F583E075F002A4242BF582E5F03400ED
:1016CB00F583E5D7F0A3E5D6F01200063002032030
:1016DB00000620010343D44022E4F515F516E52E50
:1016EB00701890FF0374C2F090FF9C7403F075DECA
:1016FB002075DF1075DD97752E0175DD977FC87E20
:10170B000012002E75DD0722E4FF75F002EFA42412
:10171B002BF582E5F03400F583E0FCA3E0FD75F0DA
:10172B0002EFA42446F582E5F03400F583ECF0A338
:10173B00EDF00FBF01D422E47B0AFAF9F8AF45AE06
:10174B0044AD43AC42120CD88F39E47B0AFAF9F85A
:10175B00AF45AE44AD43AC42120CD8AF038F3AE465
:10176B00F52F22121859E4F5089018C0E493FFE501
:10177B0008C39F5009AF0812008E050880EB901824
:10178B0074E4936003121850227D027F011210BE85
:10179B001DAF391210BE7F047E0012002E7D02AFEA
:1017AB003A1210BEAF4612183EAF3802184790FFE0
:1017BB001074C1F090FFA07420F075CC06759E02DA
:1017CB0075CEFF75CD982290FF1D7469F090FEB415
:1017DB00E04404F090FEBA7402F043D80122EF1FEC
:1017EB00AA0670011E4A600BE4FDEDC3944750EE50
:1017FB000D80F722758E1190FE917401F090FEAA68
:10180B0074FFF090FEA474C2F022C2A1C2B4C2A4B1
:10181B00C2A5C282C2A2C2A3C2A0D296D29522E412
:10182B0090FE80F0F589758CFF758A7B43A8024387
:10183B00881022EF6003D29222C29222EF6003D271
:10184B009322C29322300105C20143D44022D2011C
:10185B00E5D420E6FB22020307090A0B0C0D0E0F41
:10186B000200001400300A20060100012C00640263
:10187B00020050000A000A000A000A000A000A00CF
:10188B000A000A000A000A000A000A000A000A00FD
:10189B000A000A0078007800780078007800780059
:1018AB00780078007800780078007800780078006D
:0718BB00780078010F0A001C
:00000001FF
