:1000000002119D0200090213CF80FE020DE480FE62
:1000100080FE2202000E753908753E08E4F535228F
:0A00200080FE1402001080FE80FE36
:10002B000200208F828E83E5821582AE83700215CB
:10003B00834E60097F147E0012172780EA2280FE10
:07004B0002002680FE80FE8A
:0500530002002800017D
:03005B0002004957
:0D00630002004E75392B753E2BE4F5352259
:030073000214C9AB
:0D007B000200508F993099FDC2997F00223C
:10008B000212AC8F09C20374017E00A80708800519
:10009B00C333CE33CED8F9F5118E1075F002E509C6
:1000AB00A424ECF582E5F03417F583E493FC74019A
:1000BB0093FD900041E0FF7E001209F17C007D0A68
:1000CB00120A038E0A8F0B75F002E509A424CCF5F6
:1000DB0082E5F03417F583E493F50C740193F50D79
:1000EB00742F2509F582E43400F583E0F509F470EB
:1000FB000302075475F002E509A4243FF582E5F0ED
:10010B003400F583E0FEA3E0FF75F002E509A424BB
:10011B0046F582E5F03400F583E0FCA3E0C39FF5E0
:10012B000FEC9EF50E75F002E509A4242BF582E584
:10013B00F03400F583E0FCA3E0C39FFFEC9EAB071C
:10014B00FA9017CAE493FF70030202817E00AC0A97
:10015B00AD0B1209F1D3EB9FEE6480F8EA64809843
:10016B00500302027F75F002E509A4242DF582E508
:10017B00F03400F583E475F001120A5875F002E5CE
:10018B0009A4242DF582E5F03400F583E0FEA3E00D
:10019B00FF9017C4E493FC740193FDD3EF9DEE9C89
:1001AB00402C75F002E509A4243FF582E5F03400FC
:1001BB00F583E50E850FF0120A5875F002E509A4D8
:1001CB00242DF582E5F03400F583E4F0A3F07439C7
:1001DB002509F582E43400F583E004F07439250930
:1001EB00F582E43400F583E0FF9017C9E493FEEF4A
:1001FB00C39E401FE511F4FFE510F4FE900048E0AC
:10020B005EF0A3E05FF074392509F582E43400F564
:10021B0083E4F074262509F582E43400F583E4F0D9
:10022B0075F002E509A4243AF582E5F03400F58374
:10023B00E4F0A3F075F002E509A42442F582E5F0A1
:10024B003400F583E4F0A3F075F002E509A424294A
:10025B00F582E5F03400F583E4F0A3F075F002E5E8
:10026B0009A4243CF582E5F03400F583E4F0A3F017
:10027B00D2038002C203C3EB950BE50A6480F8EA54
:10028B0064809850030203BD3003030207549000AF
:10029B0027E0FEA3E0FF4E606A75F002E509A42497
:1002AB003AF582E5F03400F583E475F001120A5853
:1002BB0075F002E509A4243AF582E5F03400F583E4
:1002CB00E0FCA3E0C39FEC9E403975F002E509A466
:1002DB00243FF582E5F03400F583E50E850FF0122F
:1002EB000A5874262509F582E43400F583E4F07589
:1002FB00F002E509A4243AF582E5F03400F583E435
:10030B00F0A3F090180DE4937E00250BFFEE350A59
:10031B00FEC3E50F9FEE6480F8E50E648098500DE8
:10032B00C3EB9FEE6480F8EA6480984053742625F3
:10033B0009F582E43400F583E004F074262509F511
:10034B0082E43400F583E0FF9017C8E493FEEFC31B
:10035B009E4019900048E04510F0A3E04511F07461
:10036B00262509F582E43400F583E4F075F002E507
:10037B0009A42442F582E5F03400F583E4F0A3F000
:10038B0074392509F582E43400F583E4F075F00245
:10039B00E509A4242DF582E5F03400F583E4F0A300
:1003AB00F075F002E509A42429F582E5F03400028A
:1003BB000643D3EB950DE50C6480F8EA6480985006
:1003CB00030204DE900044E0FEA3E0FF4E605D7587
:1003DB00F002E509A42442F582E5F03400F583E44C
:1003EB0075F001120A5875F002E509A42442F58252
:1003FB00E5F03400F583E0FCA3E0D39FEC9E402CAA
:10040B0075F002E509A4243FF582E5F03400F5838D
:10041B00E50E850FF0120A5875F002E509A4244287
:10042B00F582E5F03400F583E4F0A3F090180DE4C9
:10043B0093FFC3E50B9FFFE50A9400FEC3E50F9FF7
:10044B00EE6480F8E50E648098400CEB9FEE6480C0
:10045B00F8EA648098505974392509F582E4340020
:10046B00F583E004F074392509F582E43400F58353
:10047B00E0FF9017C9E493FEEFC39E401FE511F414
:10048B00FFE510F4FE900048E05EF0A3E05FF0742F
:10049B00392509F582E43400F583E4F075F002E5C3
:1004AB0009A4243AF582E5F03400F583E4F0A3F0D7
:1004BB0075F002E509A4242DF582E5F03400F583EF
:1004CB00E4F0A3F074262509F582E43400F583E407
:1004DB00020648C3E4950DFFE4950CFEC3EB9FEEBB
:1004EB006480F8EA648098500302065AD3EB950DAA
:1004FB00E50C6480F8EA648098400302065A75F0B4
:10050B0002E509A42429F582E5F03400F583EA8B92
:10051B00F0120A589017CBE493F9FF75F002E50936
:10052B00A42429F582E5F03400F583E0FCA3E0FD7B
:10053B00D39F7480F8EC648098401D90003EE0FFE0
:10054B0075F002E509A4243FF582E5F03400F5834C
:10055B00E48FF0120A588044E9FFC3E49FFFE49450
:10056B0000FEC3ED9FEE6480F8EC648098504175FB
:10057B00F002E509A4243FF582E5F03400F583C0D1
:10058B0083C082E0FEA3E0FF90003EE0FDC3EF9D41
:10059B00FFEE9400D082D083F0A3EFF075F002E56C
:1005AB0009A42429F582E5F03400F583E4F0A3F0E7
:1005BB0074392509F582E43400F583E004F07439CD
:1005CB002509F582E43400F583E0FF9017C9E49325
:1005DB00FEEFC39E401F74392509F582E43400F504
:1005EB0083E4F0E511F4FFE510F4FE900048E05EC3
:1005FB00F0A3E05FF075F002E509A4242DF582E588
:10060B00F03400F583E4F0A3F074262509F582E4B9
:10061B003400F583E4F075F002E509A4243AF58281
:10062B00E5F03400F583E4F0A3F075F002E509A4DE
:10063B002442F582E5F03400F583E4F0A3F075F085
:10064B0002E509A4243CF582E5F0340002074C9046
:10065B0017C6E493FE740193FF4E605D75F002E5DF
:10066B0009A4243CF582E5F03400F583E475F00130
:10067B00120A5875F002E509A4243CF582E5F03422
:10068B0000F583E0FCA3E0C39FEC9E402C75F002C9
:10069B00E509A4243CF582E5F03400F583E4F0A3EE
:1006AB00F075F002E509A4243FF582E5F03400F57E
:1006BB0083E50E850FF0120A5874392509F582E48B
:1006CB003400F583E004F074392509F582E4340035
:1006DB00F583E0FF9017C9E493FEEFC39E401F74B0
:1006EB00392509F582E43400F583E4F0E511F4FFD4
:1006FB00E510F4FE900048E05EF0A3E05FF075F0CB
:10070B0002E509A4242DF582E5F03400F583E4F02D
:10071B00A3F074262509F582E43400F583E4F07523
:10072B00F002E509A4243AF582E5F03400F583E400
:10073B00F0A3F075F002E509A42442F582E5F0344C
:10074B0000F583E4F0A3F0C20322E53F7003020936
:10075B00F0E55C70030209F0900006E0C3940F7F94
:10076B000150027F00EF25E0FF900005E0C3940FDE
:10077B007E0150027E00EE4FFF900007E0C3940F06
:10078B007E0150027E00EE25E025E04FFF90000831
:10079B00E0C3940F7E0150027E00EE33333354F8E6
:1007AB004FFF900009E0C3940F7E0150027E00EED4
:1007BB00C454F04FFF90000AE0C3940F7E01500227
:1007CB007E00EEC43354E04FFF90000BE0C3940F58
:1007DB007E0150027E00EEC4333354C04FFF9000B5
:1007EB000CE0C3940F7E0150027E00EEC433333312
:1007FB0054804F900000F090000EE0C3940F7F01E7
:10080B0050027F00EF25E0FF90000DE0C3940F7EB8
:10081B000150027E00EE4FFF90000FE0C3940F7E5D
:10082B000150027E00EE25E025E04FFF900010E026
:10083B00C3940F7E0150027E00EE33333354F84FD6
:10084B00FF900011E0C3940F7E0150027E00EEC4B6
:10085B0054F04FFF900012E0C3940F7E0150027EC4
:10086B0000EEC43354E04FFF900013E0C3940F7EAF
:10087B000150027E00EEC4333354C04FFF9000147E
:10088B00E0C3940F7E0150027E00EEC43333335429
:10089B00804F900001F0900016E0C3940F7F015041
:1008AB00027F00EF25E0FF900015E0C3940F7E015F
:1008BB0050027E00EE4FFF900017E0C3940F7E01B5
:1008CB0050027E00EE25E025E04FFF900018E0C3BC
:1008DB00940F7E0150027E00EE33333354F84FFFFA
:1008EB00900019E0C3940F7E0150027E00EEC454B9
:1008FB00F04FFF90001AE0C3940F7E0150027E0070
:10090B00EEC43354E04FFF90001BE0C3940F7E0105
:10091B0050027E00EEC4333354C04FFF90001CE0F6
:10092B00C3940F7E0150027E00EEC43333335480E8
:10093B004F900002F090001EE0C3940F7F01500215
:10094B007F00EF25E0FF90001DE0C3940F7E015068
:10095B00027E00EE4FFF90001FE0C3940F7E01500C
:10096B00027E00EE25E025E04FFF900020E0C394CF
:10097B000F7E0150027E00EE33333354F84FFF905D
:10098B000021E0C3940F7E0150027E00EEC454F0B0
:10099B004FFF900022E0C3940F7E0150027E00EEC9
:1009AB00C43354E04FFF900023E0C3940F7E0150FB
:1009BB00027E00EEC4333354C04FFF900024E0C3DB
:1009CB00940F7E0150027E00EEC433333354804FBC
:1009DB00900003F0E4F53F120F88E4900000F0A3C1
:1009EB00F0A3F0A3F022EF8DF0A4A8F0CF8CF0A42D
:1009FB0028CE8DF0A42EFE22BC000BBE0029EF8D5D
:100A0B00F084FFADF022E4CCF875F008EF2FFFEE89
:100A1B0033FEEC33FCEE9DEC984005FCEE9DFE0F97
:100A2B00D5F0E9E4CEFD22EDF8F5F0EE8420D21CF2
:100A3B00FEADF075F008EF2FFFED33FD400798503A
:100A4B0006D5F0F222C398FD0FD5F0EA22C5F0F8D7
:100A5B00A3E028F0C5F0F8E582158270021583E05B
:100A6B0038F02275F008758200EF2FFFEE33FECDC4
:100A7B0033CDCC33CCC58233C5829BED9AEC99E553
:100A8B008298400CF582EE9BFEED9AFDEC99FC0FE3
:100A9B00D5F0D6E4CEFBE4CDFAE4CCF9A88222B8AB
:100AAB0000C1B90059BA002DEC8BF084CFCECDFC30
:100ABB00E5F0CBF97818EF2FFFEE33FEED33FDECBD
:100ACB0033FCEB33FB10D703994004EB99FB0FD8A6
:100ADB00E5E4F9FA227818EF2FFFEE33FEED33FD44
:100AEB00EC33FCC933C910D7059BE99A4007EC9B43
:100AFB00FCE99AF90FD8E0E4C9FAE4CCFB2275F0D3
:100B0B0010EF2FFFEE33FEED33FDCC33CCC833C8E3
:100B1B0010D7079BEC9AE899400AED9BFDEC9AFCE9
:100B2B00E899F80FD5F0DAE4CDFBE4CCFAE4C8F998
:100B3B0022EB9FF5F0EA9E42F0E99D42F0E89C45DE
:100B4B00F0227401FF3395E0FEFDFC080808E6CFA8
:100B5B002FF618E6CE3EF618E6CD3DF618E6CC3C61
:100B6B00F622900048E07002A3E06052E525452490
:100B7B007051F524752501E544700E7544017548D7
:100B8B005AF547F546F545802AE55D64016005E5B4
:100B9B005EB40119E4F544F548F547F546F545F51E
:100BAB005DF55EF550F54FF54EF54D80061215735C
:100BBB00121453E4F556F555F554F5538005E4F549
:100BCB0024F525E5447039F556F555F554F55312D2
:100BDB000016E5226401452170057536018018E584
:100BEB0022643C45217004F536800CE5226478457F
:100BFB00217004F521F5220522E522700205212240
:100C0B00753601E47F547E01FDFCAB56AA55A95401
:100C1B00A853C3120B3C504BE5562401F556E43553
:100C2B0055F555E43554F554E43553F553E47B321F
:100C3B00FAF9F8AF56AE55AD54AC53120AAAAC0044
:100C4B00AD01AE02AF03E4FBFAF9F8C3120B3C7033
:100C5B006DE523700712145375230122120066E40D
:100C6B00F52322E4FFFEFDFCAB48AA47A946A845A5
:100C7B00D3120B3C4006755D0102148EE4F55DE565
:100C8B005E700D755E01755014F54FF54EF54D22E6
:100C9B00E4FFFEFDFCAB50AA4FA94EA84DC3120BAF
:100CAB003C7005F55EF54422E4FFFEFDFCAB50AA5B
:100CBB004FA94EA84DD3120B3C400312166722903E
:100CCB00FE94E04402F090FE40E4F0A3F0A3F0A306
:100CDB00F0A3F0A3F0A3F0A3F0A3F0A3F0A3F0A371
:100CEB00F0A3F0A3F0A3F0A3F090FE60F0A3F0A3A9
:100CFB00F0A3F0A3F0A3F0A3F0A3F09017BE939092
:100D0B00FE77F09017BFE49390FE76F09017C0E457
:100D1B009390FE75F09017C1E49390FE74F09017CA
:100D2B00B9E493F513740193F5149017C3E493602E
:100D3B0061E4F50890180EE493FFE508C39F505249
:100D4B0074017E00A808088005C333CE33CED8F9D2
:100D5B00FFE5135EFEE5145F4E603390FE72C083B9
:100D6B00C082E0FCA3E0FDE5089017AF93FF740190
:100D7B007E00A807088005C333CE33CED8F9FFEC2D
:100D8B004EFEED4FFFD082D083EEF0A3EFF00508BF
:100D9B0080A243D480D2BD12133F90180EE493F57A
:100DAB00121213CFD202C20012179E90180FE493A7
:100DBB00FFD3940350057508058005EF2404F5084F
:100DCB00E508600F3000F912160B1508C200121758
:100DDB009E80ED121504C20222C0E0C0F0C083C099
:100DEB0082C0D075D000C000C001C002C003C004D7
:100DFB00C005C006C007055AE55AD3949640067540
:100E0B005C01755A00782B120B4D7BC07A27790940
:100E1B007800C3120B3C506B752E00752D00752C92
:100E2B0000752B00E4FFFEFDFCAB48AA47A946A8C2
:100E3B0045120B3C401DE55DB40118E54824FFF558
:100E4B0048E54734FFF547E54634FFF546E54534BD
:100E5B00FFF545E4FFFEFDFCAB50AA4FA94EA84D94
:100E6B00D3120B3C401DE55EB40118E55024FFF591
:100E7B0050E54F34FFF54FE54E34FFF54EE54D345D
:100E8B00FFF54DE54C2401F54CE4354BF54BE435C2
:100E9B004AF54AE43549F549D007D006D005D004C8
:100EAB00D003D002D001D000D0D0D082D083D0F0EC
:100EBB00D0E032D297D296EFB40A004003020F6013
:100ECB00900ED2F8282873020EF0020EF2020EFAE0
:100EDB00020F06020F16020F20020F2A020F360214
:100EEB000EF0020F50804EC2A1D2B4D294806CD2BD
:100EFB00A1D2B4C294D2A4D2A5800AD2A1D2B4D228
:100F0B0094D2A4C2A5C2A2D2A38058C2A1D2B4D2F9
:100F1B0094C2A48038D2A1C2B4D294D2A4802ED2CF
:100F2B00A1C2B4D294D2A4D2A58024D2A1D2B4D2DD
:100F3B0094D2A48028D2A1D2B4D294D2A4D2A5D2D6
:100F4B00A2C2A3801ED2A1D2B4D294D2A4C2A5D2E3
:100F5B00A2D2A3800EC2A1C2B4C294C2A4C2A5C223
:100F6B00A2C2A3BD0106C297D2968007BD0204D2CE
:100F7B0097C296E5356003D2A022C2A02290000052
:100F8B00E0600302104CA3E0F4600302104C7F10EE
:100F9B007E27FDFCAB4CAA4BA94AA849C3120B3CBC
:100FAB00500302104CE4F54CF54BF54AF549900013
:100FBB0002E0FB702BE544700E75440175485AF541
:100FCB0047F546F545803EE4F544F548F547F546CB
:100FDB00F545F55DF55EF550F54FF54EF54D802574
:100FEB00E544B40120E55E701CEBB4080512153D19
:100FFB00800A900002E0B40A0C12163AE4F556F59A
:10100B0055F554F553900002E0B40235E55E701AC5
:10101B00754401755E01755014F54FF54EF54DF5A0
:10102B0048F547F546F545F55D22E4F544F548F5F9
:10103B0047F546F545F55DF55EF550F54FF54EF583
:10104B004D22013900013E000135000142000136FD
:10105B0000043A00000000043100000000025800B8
:10106B005A013000015100014100014000023700DC
:10107B0000014300015200015D0004450000000027
:10108B00014400015E00044D0000001401570004F0
:10109B00530000000004490000000002240000027D
:1010AB002600000221000001230001280002290074
:1010BB0000015A00015C00015B00013F00042B00A2
:1010CB00000000012F0042002703E842004403E820
:1010DB004100410A41003E0201120002130000C10F
:1010EB0002C101C100420048000000E528701790C2
:1010FB00FF0974C1F090FF07F090FF02F090FF0A18
:10110B00F0A3F0752801E54464017044E55DB4017A
:10111B0006D291D2828004C291C282E55EB40129CB
:10112B00E4FFFEFDFCAB50AA4FA94EA84DD3120B0A
:10113B003C4016D3E52A9400E52994004004C2876D
:10114B008002D2877542018013C287E4F542800C7E
:10115B00C291C282C287E4F542120016E557655D63
:10116B00602AE557B40121E55D701D052AE52A705B
:10117B00020529C394E8E52994035003D29122E494
:10118B00F529F52AC2918000855D5722E4F529F5F2
:10119B002A2278FFE4F6D8FD9000007F007E04E45D
:1011AB00F0A3DFFCDEFA75815E0211F20212F6E4A7
:1011BB0093A3F8E493A34003F68001F208DFF480D5
:1011CB0029E493A3F85407240CC8C333C4540F4425
:1011DB0020C8834004F456800146F6DFE4800B01FF
:1011EB000204081020408090104DE47E019360BCF7
:1011FB00A3FF543F30E509541FFEE493A360010E97
:10120B00CF54C025E060A840B8E493A3FAE493A3BD
:10121B00F8E493A3C8C582C8CAC583CAF0A3C8C5DE
:10122B0082C8CAC583CADFE9DEE780BEE4F58090D9
:10123B00FF0004F090FF01F090FF02F090FF03F02D
:10124B0090FF04F090FF05F090FF06F090FF07F081
:10125B0090FF08F090FF09F090FF0AF090FF0BF061
:10126B0090FF0CF090FF0DF090FF0EF090FF0FF041
:10127B00E4F5A090FF1004F090FF11F090FF12F036
:10128B0090FF13F090FF14F090FF15F090FF16F005
:10129B0090FF17F0E4F5B090FF1C04F090FF1DF0E9
:1012AB0022C0E0C083C082C0D0539FFDE55B602CA1
:1012BB00E55AD394694003753F007404253FF582CA
:1012CB00E43400F583E55AF0755A00053FE53FD34A
:1012DB0094214003753F00755C008006755B0175BA
:1012EB005A00D0D0D082D083D0E03212173D1214E6
:1012FB0016121768121710D2AF120CCA30000B124D
:10130B00160B121693120012C200120B6D12075518
:10131B007F057E0012002EE5342401F534E43533CD
:10132B00F533E43532F532E43531F5311216B912B5
:10133B0010F680C8E4FDFC90180EE493FFEDC39FFC
:10134B00503A74017E00A805088005C333CE33CE16
:10135B00D8F9FFE5135EFEE5145F4E600F742F2D79
:10136B00F582E43400F583ECF00C800D742F2DF531
:10137B0082E43400F58374FFF00D80BB22E4FDFCA6
:10138B0012177CAB07AA06ED25E0FFEC33FE745673
:10139B002FF58274003EF583C37401939BE4939AFB
:1013AB00400B0DBD00010CED64784C70DAEB4A700C
:1013BB00057543028009BA0F06BBFF03754301AEE7
:1013CB0004AF0522051290180EE493FFE512C39F9C
:1013DB004007D200D201E4F512E51445137003D295
:1013EB00012274017E00A812088005C333CE33CED0
:1013FB00D8F9FFE5135EFEE5145F4E60C7E512906A
:10140B0017AF93F5D500000000002290FF1574C1B3
:10141B00F090FF14F090FF12F0A3F090FF11F090FA
:10142B00FF0CF090FF1CF090FF10F090FF0FF0906E
:10143B00FF0EF0C2A1C2B4C294C2A4C2A5C2A2C282
:10144B00A3C2A0D297D29622E47B3CFAF9F8AF481C
:10145B00AE47AD46AC45120AAA8F39E47B3CFAF98C
:10146B00F8AF48AE47AD46AC45120AAAAC00AD0189
:10147B00AE02AF03E47B06FAF9F8120AAA8F3E75A7
:10148B00350122E47B3CFAF9F8AF48AE47AD46ACE8
:10149B0045120AAA8F39E47B3CFAF9F8AF48AE47FC
:1014AB00AD46AC45120AAAAC00AD01AE02AF03E4E7
:1014BB007B06FAF9F8120AAA8F3E75350122C0E0B5
:1014CB00C0F0C083C082C0D075D000C000C001C0C6
:1014DB0002C003C004C005C006C0071215A8D00780
:1014EB00D006D005D004D003D002D001D000D0D08C
:1014FB00D082D083D0F0D0E032E4FF90180CE4938C
:10150B00FEEFC39E502B75F002EFA42446F582E547
:10151B00F03400F583E0FCA3E0FD75F002EFA424AA
:10152B003FF582E5F03400F583ECF0A3EDF00F808E
:10153B00CA22E548241EF548E43547F547E435460D
:10154B00F546E43545F545E47F687E01FDFCAB4887
:10155B00AA47A946A845D3120B3C400BE475486833
:10156B00754701F546F54522E548241EF548E43557
:10157B0047F547E43546F546E43545F545E47F68E0
:10158B007E01FDFCAB48AA47A946A845D3120B3CEC
:10159B00400AE475481EF547F546F5452253D4DF5E
:1015AB00742F2512F582E43400F583E075F002A464
:1015BB00242BF582E5F03400F583E5D7F0A3E5D6CF
:1015CB00F012000630020320000620010343D44032
:1015DB0022E4F515F516E52F701890FF0374C2F091
:1015EB0090FF9C7403F075DE2075DF1075DD977529
:1015FB002F0175DD977FC87E0012002E75DD072247
:10160B00E4FF75F002EFA4242BF582E5F03400F52E
:10161B0083E0FCA3E0FD75F002EFA42446F582E520
:10162B00F03400F583ECF0A3EDF00FBF01D422E40E
:10163B007F1EFEFDFCAB48AA47A946A845D3120B5B
:10164B003C4018E548941EF548E5479400F547E5FE
:10165B00469400F546E5459400F54522E47B0AFAED
:10166B00F9F8AF50AE4FAD4EAC4D120AAA8F39E41C
:10167B007B0AFAF9F8AF50AE4FAD4EAC4D120AAA39
:10168B00AF038F3EE4F535221217A7E4F508901847
:10169B000EE493FFE508C39F5009AF0812008E05B7
:1016AB000880EB9017C2E493600312179E227D0211
:1016BB007F01120EBE1DAF39120EBE7F057E0012CA
:1016CB00002E7D02AF3E120EBEAF4212178CAF360C
:1016DB0002179590FF027401F075B480FF7E001223
:1016EB00172775B50290FE9B744BF02290FF107478
:1016FB00C1F090FFA07420F075CC06759E0275CEDC
:10170B00FF75CD982290FF1D7469F090FEB4E044F4
:10171B0004F090FEBA7402F043D80122EF1FAA0620
:10172B0070011E4A600BE4FDEDC3944750EE0D8033
:10173B00F722758E1190FE917401F090FEAA74FF42
:10174B00F090FEA474C2F022C2A1C2B4C294C2A48F
:10175B00C2A5C2A2C2A3C2A0D297D29622E490FE87
:10176B0080F0F589758CFF758A7B43A8024388103E
:10177B002243B440E5B430E5FB53B4DFAFB6AEB7AC
:10178B0022EF6003D29222C29222EF6003D2932205
:10179B00C29322300105C20143D44022D201E5D4C9
:1017AB0020E6FB22020307090A0B0C0D0E0F0002A9
:1017BB00001400300A20060100012C006402020014
:1017CB0050000A000A000A000A000A000A000A0078
:1017DB000A000A000A000A000A000A000A000A00AE
:1017EB000A0078007800780078007800780078009C
:1017FB00780078007800780078007800780078001E
:05180B0078010F0A0046
:00000001FF
