:1000000002119F02000902143680FE020DE480FEF8
:1000100080FE2202000E753B08754008E4F5372289
:0A00200080FE1402001080FE80FE36
:10002B000200208F828E83E5821582AE83700215CB
:10003B00834E60097F147E0012175180EA2280FEE6
:07004B0002002680FE80FE8A
:0500530002002800017D
:03005B0002004957
:0D00630002004E753B2B75402BE4F5372253
:030073000214F381
:0D007B000200508F993099FDC2997F00223C
:10008B000213138F09C20374017E00A807088005B1
:10009B00C333CE33CED8F9F5118E1075F002E509C6
:1000AB00A42416F582E5F03418F583E493FC74016F
:1000BB0093FD900041E0FF7E001209F17C007D0A68
:1000CB00120A038E0A8F0B75F002E509A424F6F5CC
:1000DB0082E5F03417F583E493F50C740193F50D79
:1000EB00742F2509F582E43400F583E0F509F470EB
:1000FB000302075475F002E509A4243FF582E5F0ED
:10010B003400F583E0FEA3E0FF75F002E509A424BB
:10011B0046F582E5F03400F583E0FCA3E0C39FF5E0
:10012B000FEC9EF50E75F002E509A4242BF582E584
:10013B00F03400F583E0FCA3E0C39FFFEC9EAB071C
:10014B00FA9017F4E493FF70030202817E00AC0A6D
:10015B00AD0B1209F1D3EB9FEE6480F8EA64809843
:10016B00500302027F75F002E509A4242DF582E508
:10017B00F03400F583E475F001120A5875F002E5CE
:10018B0009A4242DF582E5F03400F583E0FEA3E00D
:10019B00FF9017EEE493FC740193FDD3EF9DEE9C5F
:1001AB00402C75F002E509A4243FF582E5F03400FC
:1001BB00F583E50E850FF0120A5875F002E509A4D8
:1001CB00242DF582E5F03400F583E4F0A3F07439C7
:1001DB002509F582E43400F583E004F07439250930
:1001EB00F582E43400F583E0FF9017F3E493FEEF20
:1001FB00C39E401FE511F4FFE510F4FE900048E0AC
:10020B005EF0A3E05FF074392509F582E43400F564
:10021B0083E4F074262509F582E43400F583E4F0D9
:10022B0075F002E509A4243AF582E5F03400F58374
:10023B00E4F0A3F075F002E509A42442F582E5F0A1
:10024B003400F583E4F0A3F075F002E509A424294A
:10025B00F582E5F03400F583E4F0A3F075F002E5E8
:10026B0009A4243CF582E5F03400F583E4F0A3F017
:10027B00D2038002C203C3EB950BE50A6480F8EA54
:10028B0064809850030203BD3003030207549000AF
:10029B0027E0FEA3E0FF4E606A75F002E509A42497
:1002AB003AF582E5F03400F583E475F001120A5853
:1002BB0075F002E509A4243AF582E5F03400F583E4
:1002CB00E0FCA3E0C39FEC9E403975F002E509A466
:1002DB00243FF582E5F03400F583E50E850FF0122F
:1002EB000A5874262509F582E43400F583E4F07589
:1002FB00F002E509A4243AF582E5F03400F583E435
:10030B00F0A3F0901837E4937E00250BFFEE350A2F
:10031B00FEC3E50F9FEE6480F8E50E648098500DE8
:10032B00C3EB9FEE6480F8EA6480984053742625F3
:10033B0009F582E43400F583E004F074262509F511
:10034B0082E43400F583E0FF9017F2E493FEEFC3F1
:10035B009E4019900048E04510F0A3E04511F07461
:10036B00262509F582E43400F583E4F075F002E507
:10037B0009A42442F582E5F03400F583E4F0A3F000
:10038B0074392509F582E43400F583E4F075F00245
:10039B00E509A4242DF582E5F03400F583E4F0A300
:1003AB00F075F002E509A42429F582E5F03400028A
:1003BB000643D3EB950DE50C6480F8EA6480985006
:1003CB00030204DE900044E0FEA3E0FF4E605D7587
:1003DB00F002E509A42442F582E5F03400F583E44C
:1003EB0075F001120A5875F002E509A42442F58252
:1003FB00E5F03400F583E0FCA3E0D39FEC9E402CAA
:10040B0075F002E509A4243FF582E5F03400F5838D
:10041B00E50E850FF0120A5875F002E509A4244287
:10042B00F582E5F03400F583E4F0A3F0901837E49F
:10043B0093FFC3E50B9FFFE50A9400FEC3E50F9FF7
:10044B00EE6480F8E50E648098400CEB9FEE6480C0
:10045B00F8EA648098505974392509F582E4340020
:10046B00F583E004F074392509F582E43400F58353
:10047B00E0FF9017F3E493FEEFC39E401FE511F4EA
:10048B00FFE510F4FE900048E05EF0A3E05FF0742F
:10049B00392509F582E43400F583E4F075F002E5C3
:1004AB0009A4243AF582E5F03400F583E4F0A3F0D7
:1004BB0075F002E509A4242DF582E5F03400F583EF
:1004CB00E4F0A3F074262509F582E43400F583E407
:1004DB00020648C3E4950DFFE4950CFEC3EB9FEEBB
:1004EB006480F8EA648098500302065AD3EB950DAA
:1004FB00E50C6480F8EA648098400302065A75F0B4
:10050B0002E509A42429F582E5F03400F583EA8B92
:10051B00F0120A589017F5E493F9FF75F002E5090C
:10052B00A42429F582E5F03400F583E0FCA3E0FD7B
:10053B00D39F7480F8EC648098401D90003EE0FFE0
:10054B0075F002E509A4243FF582E5F03400F5834C
:10055B00E48FF0120A588044E9FFC3E49FFFE49450
:10056B0000FEC3ED9FEE6480F8EC648098504175FB
:10057B00F002E509A4243FF582E5F03400F583C0D1
:10058B0083C082E0FEA3E0FF90003EE0FDC3EF9D41
:10059B00FFEE9400D082D083F0A3EFF075F002E56C
:1005AB0009A42429F582E5F03400F583E4F0A3F0E7
:1005BB0074392509F582E43400F583E004F07439CD
:1005CB002509F582E43400F583E0FF9017F3E493FB
:1005DB00FEEFC39E401F74392509F582E43400F504
:1005EB0083E4F0E511F4FFE510F4FE900048E05EC3
:1005FB00F0A3E05FF075F002E509A4242DF582E588
:10060B00F03400F583E4F0A3F074262509F582E4B9
:10061B003400F583E4F075F002E509A4243AF58281
:10062B00E5F03400F583E4F0A3F075F002E509A4DE
:10063B002442F582E5F03400F583E4F0A3F075F085
:10064B0002E509A4243CF582E5F0340002074C9046
:10065B0017F0E493FE740193FF4E605D75F002E5B5
:10066B0009A4243CF582E5F03400F583E475F00130
:10067B00120A5875F002E509A4243CF582E5F03422
:10068B0000F583E0FCA3E0C39FEC9E402C75F002C9
:10069B00E509A4243CF582E5F03400F583E4F0A3EE
:1006AB00F075F002E509A4243FF582E5F03400F57E
:1006BB0083E50E850FF0120A5874392509F582E48B
:1006CB003400F583E004F074392509F582E4340035
:1006DB00F583E0FF9017F3E493FEEFC39E401F7486
:1006EB00392509F582E43400F583E4F0E511F4FFD4
:1006FB00E510F4FE900048E05EF0A3E05FF075F0CB
:10070B0002E509A4242DF582E5F03400F583E4F02D
:10071B00A3F074262509F582E43400F583E4F07523
:10072B00F002E509A4243AF582E5F03400F583E400
:10073B00F0A3F075F002E509A42442F582E5F0344C
:10074B0000F583E4F0A3F0C20322E5417003020934
:10075B00F0E55E70030209F0900006E0C3940F7F92
:10076B000150027F00EF25E0FF900005E0C3940FDE
:10077B007E0150027E00EE4FFF900007E0C3940F06
:10078B007E0150027E00EE25E025E04FFF90000831
:10079B00E0C3940F7E0150027E00EE33333354F8E6
:1007AB004FFF900009E0C3940F7E0150027E00EED4
:1007BB00C454F04FFF90000AE0C3940F7E01500227
:1007CB007E00EEC43354E04FFF90000BE0C3940F58
:1007DB007E0150027E00EEC4333354C04FFF9000B5
:1007EB000CE0C3940F7E0150027E00EEC433333312
:1007FB0054804F900000F090000EE0C3940F7F01E7
:10080B0050027F00EF25E0FF90000DE0C3940F7EB8
:10081B000150027E00EE4FFF90000FE0C3940F7E5D
:10082B000150027E00EE25E025E04FFF900010E026
:10083B00C3940F7E0150027E00EE33333354F84FD6
:10084B00FF900011E0C3940F7E0150027E00EEC4B6
:10085B0054F04FFF900012E0C3940F7E0150027EC4
:10086B0000EEC43354E04FFF900013E0C3940F7EAF
:10087B000150027E00EEC4333354C04FFF9000147E
:10088B00E0C3940F7E0150027E00EEC43333335429
:10089B00804F900001F0900016E0C3940F7F015041
:1008AB00027F00EF25E0FF900015E0C3940F7E015F
:1008BB0050027E00EE4FFF900017E0C3940F7E01B5
:1008CB0050027E00EE25E025E04FFF900018E0C3BC
:1008DB00940F7E0150027E00EE33333354F84FFFFA
:1008EB00900019E0C3940F7E0150027E00EEC454B9
:1008FB00F04FFF90001AE0C3940F7E0150027E0070
:10090B00EEC43354E04FFF90001BE0C3940F7E0105
:10091B0050027E00EEC4333354C04FFF90001CE0F6
:10092B00C3940F7E0150027E00EEC43333335480E8
:10093B004F900002F090001EE0C3940F7F01500215
:10094B007F00EF25E0FF90001DE0C3940F7E015068
:10095B00027E00EE4FFF90001FE0C3940F7E01500C
:10096B00027E00EE25E025E04FFF900020E0C394CF
:10097B000F7E0150027E00EE33333354F84FFF905D
:10098B000021E0C3940F7E0150027E00EEC454F0B0
:10099B004FFF900022E0C3940F7E0150027E00EEC9
:1009AB00C43354E04FFF900023E0C3940F7E0150FB
:1009BB00027E00EEC4333354C04FFF900024E0C3DB
:1009CB00940F7E0150027E00EEC433333354804FBC
:1009DB00900003F0E4F541120F86E4900000F0A3C1
:1009EB00F0A3F0A3F022EF8DF0A4A8F0CF8CF0A42D
:1009FB0028CE8DF0A42EFE22BC000BBE0029EF8D5D
:100A0B00F084FFADF022E4CCF875F008EF2FFFEE89
:100A1B0033FEEC33FCEE9DEC984005FCEE9DFE0F97
:100A2B00D5F0E9E4CEFD22EDF8F5F0EE8420D21CF2
:100A3B00FEADF075F008EF2FFFED33FD400798503A
:100A4B0006D5F0F222C398FD0FD5F0EA22C5F0F8D7
:100A5B00A3E028F0C5F0F8E582158270021583E05B
:100A6B0038F02275F008758200EF2FFFEE33FECDC4
:100A7B0033CDCC33CCC58233C5829BED9AEC99E553
:100A8B008298400CF582EE9BFEED9AFDEC99FC0FE3
:100A9B00D5F0D6E4CEFBE4CDFAE4CCF9A88222B8AB
:100AAB0000C1B90059BA002DEC8BF084CFCECDFC30
:100ABB00E5F0CBF97818EF2FFFEE33FEED33FDECBD
:100ACB0033FCEB33FB10D703994004EB99FB0FD8A6
:100ADB00E5E4F9FA227818EF2FFFEE33FEED33FD44
:100AEB00EC33FCC933C910D7059BE99A4007EC9B43
:100AFB00FCE99AF90FD8E0E4C9FAE4CCFB2275F0D3
:100B0B0010EF2FFFEE33FEED33FDCC33CCC833C8E3
:100B1B0010D7079BEC9AE899400AED9BFDEC9AFCE9
:100B2B00E899F80FD5F0DAE4CDFBE4CCFAE4C8F998
:100B3B0022EB9FF5F0EA9E42F0E99D42F0E89C45DE
:100B4B00F0227401FF3395E0FEFDFC080808E6CFA8
:100B5B002FF618E6CE3EF618E6CD3DF618E6CC3C61
:100B6B00F622900048E07002A3E06052E52745268C
:100B7B007051F526752701E546700E754601754ACD
:100B8B005AF549F548F547802AE55F64016005E5AC
:100B9B0060B40119E4F546F54AF549F548F547F512
:100BAB005FF560F552F551F550F54F800612159D26
:100BBB0012147DE4F558F557F556F5558005E4F517
:100BCB0026F527E5467039F558F557F556F55512C4
:100BDB000016E5246401452370057538018018E57E
:100BEB0024643C45237004F538800CE52464784577
:100BFB00237004F523F5240524E524700205232234
:100C0B00753801E47F547E01FDFCAB58AA57A956F9
:100C1B00A855C3120B3C504BE5582401F558E4354D
:100C2B0057F557E43556F556E43555F555E47B3213
:100C3B00FAF9F8AF58AE57AD56AC55120AAAAC003C
:100C4B00AD01AE02AF03E4FBFAF9F8C3120B3C7033
:100C5B006DE525700712147D75250122120066E4DF
:100C6B00F52522E4FFFEFDFCAB4AAA49A948A8479B
:100C7B00D3120B3C4006755F010212AEE4F55FE543
:100C8B0060700D756001755214F551F550F54F22DA
:100C9B00E4FFFEFDFCAB52AA51A950A84FC3120BA7
:100CAB003C7005F560F54622E4FFFEFDFCAB52AA55
:100CBB0051A950A84FD3120B3C400312169122900E
:100CCB00FE94E04402F090FE40E4F0A3F0A3F0A306
:100CDB00F0A3F0A3F0A3F0A3F0A3F0A3F0A3F0A371
:100CEB00F0A3F0A3F0A3F0A3F090FE60F0A3F0A3A9
:100CFB00F0A3F0A3F0A3F0A3F0A3F09017E8939068
:100D0B00FE77F09017E9E49390FE76F09017EAE403
:100D1B009390FE75F09017EBE49390FE74F09017A0
:100D2B00E3E493F513740193F5149017EDE49360DA
:100D3B0061E4F508901838E493FFE508C39F50521F
:100D4B0074017E00A808088005C333CE33CED8F9D2
:100D5B00FFE5135EFEE5145F4E603390FE72C083B9
:100D6B00C082E0FCA3E0FDE5089017D993FF740166
:100D7B007E00A807088005C333CE33CED8F9FFEC2D
:100D8B004EFEED4FFFD082D083EEF0A3EFF00508BF
:100D9B0080A243D480D2BD1213A6901838E493F5E9
:100DAB0012121436D202C2001217C8901839E493EB
:100DBB00FFD3940350057508058005EF2404F5084F
:100DCB00E508600F3000F91216351508C20012172E
:100DDB00C880ED12152EC20222C0E0C0F0C083C045
:100DEB0082C0D075D000C000C001C002C003C004D7
:100DFB00C005C006C007055CE55CD394964006753C
:100E0B005E01755C00782D120B4D7BC07A2779093A
:100E1B007800C3120B3C506B753000752F00752E8C
:100E2B0000752D00E4FFFEFDFCAB4AAA49A948A8BA
:100E3B0047120B3C401DE55FB40118E54A24FFF552
:100E4B004AE54934FFF549E54834FFF548E54734B1
:100E5B00FFF547E4FFFEFDFCAB52AA51A950A84F8A
:100E6B00D3120B3C401DE560B40118E55224FFF58D
:100E7B0052E55134FFF551E55034FFF550E54F3451
:100E8B00FFF54FE54E2401F54EE4354DF54DE435B8
:100E9B004CF54CE4354BF54BD007D006D005D004C0
:100EAB00D003D002D001D000D0D0D082D083D0F0EC
:100EBB00D0E032D296D295EFB40A004003020F5E17
:100ECB00900ED2F8282873020EF0020F00020F04C6
:100EDB00020F10020F20020F2A020F34020F3A02E8
:100EEB000F42020F4ED2A1D2B4D2A4D2A5D282D23B
:100EFB00A2C2A3806CC2A18038D2A1D2B4C2A4D2A8
:100F0B00A5D282800AD2A1D2B4D2A4D2A5C282C267
:100F1B00A2D2A3804CC2A1D2B4D2A4C2A5802CD29F
:100F2B00A1C2B4D2A4D2A58022D2A1C2B4800CD2C9
:100F3B00A1D2B4D2A48022D2A1D2B4D2A4D2A5D2AF
:100F4B0082800AD2A1D2B4D2A4D2A5C282D2A2D21A
:100F5B00A3800EC2A1C2B4C2A4C2A5C282C2A2C245
:100F6B00A3BD0106C296D2958007BD0204D296C2DC
:100F7B0095E5376003D2A022C2A022900000E0606A
:100F8B000302104AA3E0F4600302104A7F107E278D
:100F9B00FDFCAB4EAA4DA94CA84BC3120B3C500306
:100FAB0002104AE4F54EF54DF54CF54B900002E07E
:100FBB00FB702BE546700E754601754A5AF549F5DF
:100FCB0048F547803EE4F546F54AF549F548F547BF
:100FDB00F55FF560F552F551F550F54F8025E54677
:100FEB00B40120E560701CEBB40805121567800A8C
:100FFB00900002E0B40A0C121664E4F558F557F5AC
:10100B0056F555900002E0B40235E560701A75464E
:10101B0001756001755214F551F550F54FF54AF510
:10102B0049F548F547F55F22E4F546F54AF549F5EC
:10103B0048F547F55FF560F552F551F550F54F2240
:10104B00013B00014000013700014400013800045E
:10105B003C00000000043300000000025A005A015B
:10106B00320001530001430001420002390000012C
:10107B004500015400015F000447000000000146D9
:10108B0000016000044F00000014015900045500DA
:10109B00000000044B0000000002210000022600AB
:1010AB00000228000002230000012500012A000293
:1010BB002B0000015C00015E00015D00014100049A
:1010CB002D0000000001310042002703E8420044DC
:1010DB0003E84100410A41003E02011200021300E5
:1010EB0000C102C101C100420048000000E52A70A6
:1010FB001790FF0974C1F090FF07F090FF03F09079
:10110B00FF0AF0A3F0752A01E54664017044E55F20
:10111B00B40106D291D2838004C291C283E560B43C
:10112B000129E4FFFEFDFCAB52AA51A950A84FD3F5
:10113B00120B3C4016D3E52C9400E52B9400400495
:10114B00C2878002D2877544018013C287E4F544BD
:10115B00800CC291C283C287E4F544120016E55994
:10116B00655F602AE559B40121E55F701D052CE52B
:10117B002C7002052BC394E8E52B94035003D291FA
:10118B0022E4F52BF52CC2918000855F5922E4F502
:10119B002BF52C2278FFE4F6D8FD9000007F007E23
:1011AB0004E4F0A3DFFCDEFA7581600211F4021394
:1011BB005DE493A3F8E493A34003F68001F208DF08
:1011CB00F48029E493A3F85407240CC8C333C45404
:1011DB000F4420C8834004F456800146F6DFE480B8
:1011EB000B010204081020408090104BE47E019309
:1011FB0060BCA3FF543F30E509541FFEE493A3608A
:10120B00010ECF54C025E060A840B8E493A3FAE4E4
:10121B0093A3F8E493A3C8C582C8CAC583CAF0A335
:10122B00C8C582C8CAC583CADFE9DEE780BEE4F55C
:10123B008090FF0004F090FF01F090FF02F090FF10
:10124B0003F090FF04F090FF05F090FF06F090FF85
:10125B0007F090FF08F090FF09F090FF0AF090FF65
:10126B000BF090FF0CF090FF0DF090FF0EF090FF45
:10127B000FF0E4F5A090FF1004F090FF11F090FF39
:10128B0012F090FF13F090FF14F090FF15F090FF09
:10129B0016F090FF17F0E4F5B090FF1C04F090FFF0
:1012AB001DF022E47B3CFAF9F8AF4AAE49AD48ACED
:1012BB0047120AAA8F3BE47B3CFAF9F8AF4AAE49D6
:1012CB00AD48AC47120AAAAC00AD01AE02AF03E4C5
:1012DB007B06FAF9F8120AAA8F40E5226401452130
:1012EB0070057537018018E522643245217004F5CD
:1012FB0037800CE522646445217004F521F5220545
:10130B0022E5227002052122C0E0C083C082C0D03A
:10131B00539FFDE55D602CE55CD3946940037541FB
:10132B000074042541F582E43400F583E55CF07527
:10133B005C000541E541D394214003754100755E86
:10134B00008006755D01755C00D0D0D082D083D053
:10135B00E0321217671214B812179212173AD2AF63
:10136B00120CCA30000B1216351216BD120012C227
:10137B0000120B6D1207557F057E0012002EE5360D
:10138B002401F536E43535F535E43534F534E435FB
:10139B0033F5331216E31210F880C8E4FDFC9018F5
:1013AB0038E493FFEDC39F503A74017E00A8050803
:1013BB008005C333CE33CED8F9FFE5135EFEE514BB
:1013CB005F4E600F742F2DF582E43400F583ECF043
:1013DB000C800D742F2DF582E43400F58374FFF02F
:1013EB000D80BB22E4FDFC1217A6AB07AA06ED2568
:1013FB00E0FFEC33FE74562FF58274003EF583C389
:10140B007401939BE4939A400B0DBD00010CED64AA
:10141B00784C70DAEB4A70057545028009BA0F06F5
:10142B00BBFF03754501AE04AF05220512901838BA
:10143B00E493FFE512C39F4007D200D201E4F512FB
:10144B00E51445137003D2012274017E00A8120823
:10145B008005C333CE33CED8F9FFE5135EFEE5141A
:10146B005F4E60C7E5129017D993F5D500000000C9
:10147B000022E47B3CFAF9F8AF4AAE49AD48AC47E1
:10148B00120AAA8F3BE47B3CFAF9F8AF4AAE49AD9E
:10149B0048AC47120AAAAC00AD01AE02AF03E47B25
:1014AB0006FAF9F8120AAA8F407537012290FF113C
:1014BB0074C1F090FF1CF090FF14F0A3F090FF02AA
:1014CB00F090FF12F0A3F090FF10F090FF0EF09051
:1014DB00FF0DF0C2A1C2B4C2A4C2A5C282C2A2C2F5
:1014EB00A3C2A0D296D29522C0E0C0F0C083C08226
:1014FB00C0D075D000C000C001C002C003C004C082
:10150B0005C006C0071215D2D007D006D005D004EF
:10151B00D003D002D001D000D0D0D082D083D0F075
:10152B00D0E032E4FF901836E493FEEFC39E502BCD
:10153B0075F002EFA42446F582E5F03400F583E064
:10154B00FCA3E0FD75F002EFA4243FF582E5F03437
:10155B0000F583ECF0A3EDF00F80CA22E54A241EC0
:10156B00F54AE43549F549E43548F548E43547F59E
:10157B0047E47F687E01FDFCAB4AAA49A948A8470E
:10158B00D3120B3C400BE4754A68754901F548F5DD
:10159B004722E54A241EF54AE43549F549E4354826
:1015AB00F548E43547F547E47F687E01FDFCAB4A1F
:1015BB00AA49A948A847D3120B3C400AE4754A1E16
:1015CB00F549F548F5472253D4DF742F2512F582E0
:1015DB00E43400F583E075F002A4242BF582E5F0EA
:1015EB003400F583E5D7F0A3E5D6F0120006300200
:1015FB000320000620010343D44022E4F515F51621
:10160B00E531701890FF0374C2F090FF9C7403F0E7
:10161B0075DE2075DF1075DD9775310175DD977FF0
:10162B00C87E0012002E75DD0722E4FF75F002EF75
:10163B00A4242BF582E5F03400F583E0FCA3E0FD58
:10164B0075F002EFA42446F582E5F03400F583EC47
:10165B00F0A3EDF00FBF01D422E47F1EFEFDFCAB27
:10166B004AAA49A948A847D3120B3C4018E54A940B
:10167B001EF54AE5499400F549E5489400F548E51F
:10168B00479400F54722E47B0AFAF9F8AF52AE51C2
:10169B00AD50AC4F120AAA8F3BE47B0AFAF9F8AFB4
:1016AB0052AE51AD50AC4F120AAAAF038F40E4F5C6
:1016BB0037221217D1E4F508901838E493FFE508A8
:1016CB00C39F5009AF0812008E050880EB9017ECF2
:1016DB00E49360031217C8227D027F01120EBE1D18
:1016EB00AF3B120EBE7F057E0012002E7D02AF4077
:1016FB00120EBEAF441217B6AF380217BF90FF02DF
:10170B007401F075B480FF7E0012175175B502900D
:10171B00FE9B744BF02290FF1074C1F090FFA074ED
:10172B0020F075CC06759E0275CEFF75CD98229074
:10173B00FF1D7469F090FEB4E04404F090FEBA749F
:10174B0002F043D80122EF1FAA0670011E4A600B5C
:10175B00E4FDEDC3944750EE0D80F722758E11908A
:10176B00FE917401F090FEAA74FFF090FEA474C277
:10177B00F022C2A1C2B4C2A4C2A5C282C2A2C2A399
:10178B00C2A0D296D29522E490FE80F0F589758C9A
:10179B00FF758A7B43A8024388102243B440E5B40B
:1017AB0030E5FB53B4DFAFB6AEB722EF6003D29296
:1017BB0022C29222EF6003D29322C2932230010500
:1017CB00C20143D44022D201E5D420E6FB2202031E
:1017DB0007090A0B0C0D0E0F0200001400300A2033
:1017EB00060100012C006402020050000A000A00EE
:1017FB000A000A000A000A000A000A000A000A008E
:10180B000A000A000A000A000A000A0078007800A1
:10181B0078007800780078007800780078007800FD
:0F182B007800780078007800780078010F0A00C4
:00000001FF
