:100000000212B602000902157A80FE02109880FEE4
:1000100080FE2202000E75392B753E2BE4F5352249
:0A00200080FE1402001080FE80FE36
:10002B000200208F828E83E5821582AE83700215CB
:10003B00834E60097F147E001218F480EA2280FE42
:07004B0002002680FE80FE8A
:0500530002002800017D
:03005B0002004957
:0D00630002004E8F993099FDC2997F002256
:030073000216373B
:0C007B00020050300105C20143D44022B5
:10008B000214578F09C20374017E00A8070880056C
:10009B00C333CE33CED8F9F5118E1075F002E509C6
:1000AB00A424AAF582E5F03419F583E493FC7401DA
:1000BB0093FD900021E0FF7E001209F17C007D0A88
:1000CB00120A038E0A8F0B75F002E509A4248AF538
:1000DB0082E5F03419F583E493F50C740193F50D77
:1000EB0074092509F582E43400F583E0F509F47011
:1000FB000302075475F002E509A4241FF582E5F00D
:10010B003400F583E0FEA3E0FF75F002E509A424BB
:10011B0026F582E5F03400F583E0FCA3E0C39FF500
:10012B000FEC9EF50E75F002E509A42405F582E5AA
:10013B00F03400F583E0FCA3E0C39FFFEC9EAB071C
:10014B00FA901988E493FF70030202817E00AC0AD7
:10015B00AD0B1209F1D3EB9FEE6480F8EA64809843
:10016B00500302027F75F002E509A42407F582E52E
:10017B00F03400F583E475F001120A5875F002E5CE
:10018B0009A42407F582E5F03400F583E0FEA3E033
:10019B00FF901982E493FC740193FDD3EF9DEE9CC9
:1001AB00402C75F002E509A4241FF582E5F034001C
:1001BB00F583E50E850FF0120A5875F002E509A4D8
:1001CB002407F582E5F03400F583E4F0A3F074190D
:1001DB002509F582E43400F583E004F07419250950
:1001EB00F582E43400F583E0FF901987E493FEEF8A
:1001FB00C39E401FE511F4FFE510F4FE90004EE0A6
:10020B005EF0A3E05FF074192509F582E43400F584
:10021B0083E4F074002509F582E43400F583E4F0FF
:10022B0075F002E509A4241AF582E5F03400F58394
:10023B00E4F0A3F075F002E509A42422F582E5F0C1
:10024B003400F583E4F0A3F075F002E509A4240370
:10025B00F582E5F03400F583E4F0A3F075F002E5E8
:10026B0009A4241CF582E5F03400F583E4F0A3F037
:10027B00D2038002C203C3EB950BE50A6480F8EA54
:10028B0064809850030203BD3003030207549000AF
:10029B0001E0FEA3E0FF4E606A75F002E509A424BD
:1002AB001AF582E5F03400F583E475F001120A5873
:1002BB0075F002E509A4241AF582E5F03400F58304
:1002CB00E0FCA3E0C39FEC9E403975F002E509A466
:1002DB00241FF582E5F03400F583E50E850FF0124F
:1002EB000A5874002509F582E43400F583E4F075AF
:1002FB00F002E509A4241AF582E5F03400F583E455
:10030B00F0A3F09019CBE4937E00250BFFEE350A9A
:10031B00FEC3E50F9FEE6480F8E50E648098500DE8
:10032B00C3EB9FEE6480F8EA648098405374002519
:10033B0009F582E43400F583E004F074002509F537
:10034B0082E43400F583E0FF901986E493FEEFC35B
:10035B009E401990004EE04510F0A3E04511F0745B
:10036B00002509F582E43400F583E4F075F002E52D
:10037B0009A42422F582E5F03400F583E4F0A3F020
:10038B0074192509F582E43400F583E4F075F00265
:10039B00E509A42407F582E5F03400F583E4F0A326
:1003AB00F075F002E509A42403F582E5F0340002B0
:1003BB000643D3EB950DE50C6480F8EA6480985006
:1003CB00030204DE900024E0FEA3E0FF4E605D75A7
:1003DB00F002E509A42422F582E5F03400F583E46C
:1003EB0075F001120A5875F002E509A42422F58272
:1003FB00E5F03400F583E0FCA3E0D39FEC9E402CAA
:10040B0075F002E509A4241FF582E5F03400F583AD
:10041B00E50E850FF0120A5875F002E509A42422A7
:10042B00F582E5F03400F583E4F0A3F09019CBE40A
:10043B0093FFC3E50B9FFFE50A9400FEC3E50F9FF7
:10044B00EE6480F8E50E648098400CEB9FEE6480C0
:10045B00F8EA648098505974192509F582E4340040
:10046B00F583E004F074192509F582E43400F58373
:10047B00E0FF901987E493FEEFC39E401FE511F454
:10048B00FFE510F4FE90004EE05EF0A3E05FF07429
:10049B00192509F582E43400F583E4F075F002E5E3
:1004AB0009A4241AF582E5F03400F583E4F0A3F0F7
:1004BB0075F002E509A42407F582E5F03400F58315
:1004CB00E4F0A3F074002509F582E43400F583E42D
:1004DB00020648C3E4950DFFE4950CFEC3EB9FEEBB
:1004EB006480F8EA648098500302065AD3EB950DAA
:1004FB00E50C6480F8EA648098400302065A75F0B4
:10050B0002E509A42403F582E5F03400F583EA8BB8
:10051B00F0120A58901989E493F9FF75F002E50976
:10052B00A42403F582E5F03400F583E0FCA3E0FDA1
:10053B00D39F7480F8EC648098401D90001EE0FF00
:10054B0075F002E509A4241FF582E5F03400F5836C
:10055B00E48FF0120A588044E9FFC3E49FFFE49450
:10056B0000FEC3ED9FEE6480F8EC648098504175FB
:10057B00F002E509A4241FF582E5F03400F583C0F1
:10058B0083C082E0FEA3E0FF90001EE0FDC3EF9D61
:10059B00FFEE9400D082D083F0A3EFF075F002E56C
:1005AB0009A42403F582E5F03400F583E4F0A3F00D
:1005BB0074192509F582E43400F583E004F074190D
:1005CB002509F582E43400F583E0FF901987E49365
:1005DB00FEEFC39E401F74192509F582E43400F524
:1005EB0083E4F0E511F4FFE510F4FE90004EE05EBD
:1005FB00F0A3E05FF075F002E509A42407F582E5AE
:10060B00F03400F583E4F0A3F074002509F582E4DF
:10061B003400F583E4F075F002E509A4241AF582A1
:10062B00E5F03400F583E4F0A3F075F002E509A4DE
:10063B002422F582E5F03400F583E4F0A3F075F0A5
:10064B0002E509A4241CF582E5F0340002074C9066
:10065B001984E493FE740193FF4E605D75F002E51F
:10066B0009A4241CF582E5F03400F583E475F00150
:10067B00120A5875F002E509A4241CF582E5F03442
:10068B0000F583E0FCA3E0C39FEC9E402C75F002C9
:10069B00E509A4241CF582E5F03400F583E4F0A30E
:1006AB00F075F002E509A4241FF582E5F03400F59E
:1006BB0083E50E850FF0120A5874192509F582E4AB
:1006CB003400F583E004F074192509F582E4340055
:1006DB00F583E0FF901987E493FEEFC39E401F74F0
:1006EB00192509F582E43400F583E4F0E511F4FFF4
:1006FB00E510F4FE90004EE05EF0A3E05FF075F0C5
:10070B0002E509A42407F582E5F03400F583E4F053
:10071B00A3F074002509F582E43400F583E4F07549
:10072B00F002E509A4241AF582E5F03400F583E420
:10073B00F0A3F075F002E509A42422F582E5F0346C
:10074B0000F583E4F0A3F0C20322E53F7003020936
:10075B00F0E55C70030209F090002EE0C3940F7F6C
:10076B000150027F00EF25E0FF90002DE0C3940FB6
:10077B007E0150027E00EE4FFF90002FE0C3940FDE
:10078B007E0150027E00EE25E025E04FFF90003009
:10079B00E0C3940F7E0150027E00EE33333354F8E6
:1007AB004FFF900031E0C3940F7E0150027E00EEAC
:1007BB00C454F04FFF900032E0C3940F7E015002FF
:1007CB007E00EEC43354E04FFF900033E0C3940F30
:1007DB007E0150027E00EEC4333354C04FFF9000B5
:1007EB0034E0C3940F7E0150027E00EEC4333333EA
:1007FB0054804F900028F0900036E0C3940F7F0197
:10080B0050027F00EF25E0FF900035E0C3940F7E90
:10081B000150027E00EE4FFF900037E0C3940F7E35
:10082B000150027E00EE25E025E04FFF900038E0FE
:10083B00C3940F7E0150027E00EE33333354F84FD6
:10084B00FF900039E0C3940F7E0150027E00EEC48E
:10085B0054F04FFF90003AE0C3940F7E0150027E9C
:10086B0000EEC43354E04FFF90003BE0C3940F7E87
:10087B000150027E00EEC4333354C04FFF90003C56
:10088B00E0C3940F7E0150027E00EEC43333335429
:10089B00804F900029F090003EE0C3940F7F0150F1
:1008AB00027F00EF25E0FF90003DE0C3940F7E0137
:1008BB0050027E00EE4FFF90003FE0C3940F7E018D
:1008CB0050027E00EE25E025E04FFF900040E0C394
:1008DB00940F7E0150027E00EE33333354F84FFFFA
:1008EB00900041E0C3940F7E0150027E00EEC45491
:1008FB00F04FFF900042E0C3940F7E0150027E0048
:10090B00EEC43354E04FFF900043E0C3940F7E01DD
:10091B0050027E00EEC4333354C04FFF900044E0CE
:10092B00C3940F7E0150027E00EEC43333335480E8
:10093B004F90002AF0900046E0C3940F7F015002C5
:10094B007F00EF25E0FF900045E0C3940F7E015040
:10095B00027E00EE4FFF900047E0C3940F7E0150E4
:10096B00027E00EE25E025E04FFF900048E0C394A7
:10097B000F7E0150027E00EE33333354F84FFF905D
:10098B000049E0C3940F7E0150027E00EEC454F088
:10099B004FFF90004AE0C3940F7E0150027E00EEA1
:1009AB00C43354E04FFF90004BE0C3940F7E0150D3
:1009BB00027E00EEC4333354C04FFF90004CE0C3B3
:1009CB00940F7E0150027E00EEC433333354804FBC
:1009DB0090002BF0E4F53F12121BE4900028F0A3DB
:1009EB00F0A3F0A3F022EF8DF0A4A8F0CF8CF0A42D
:1009FB0028CE8DF0A42EFE22BC000BBE0029EF8D5D
:100A0B00F084FFADF022E4CCF875F008EF2FFFEE89
:100A1B0033FEEC33FCEE9DEC984005FCEE9DFE0F97
:100A2B00D5F0E9E4CEFD22EDF8F5F0EE8420D21CF2
:100A3B00FEADF075F008EF2FFFED33FD400798503A
:100A4B0006D5F0F222C398FD0FD5F0EA22C5F0F8D7
:100A5B00A3E028F0C5F0F8E582158270021583E05B
:100A6B0038F02275F008758200EF2FFFEE33FECDC4
:100A7B0033CDCC33CCC58233C5829BED9AEC99E553
:100A8B008298400CF582EE9BFEED9AFDEC99FC0FE3
:100A9B00D5F0D6E4CEFBE4CDFAE4CCF9A88222B8AB
:100AAB0000C1B90059BA002DEC8BF084CFCECDFC30
:100ABB00E5F0CBF97818EF2FFFEE33FEED33FDECBD
:100ACB0033FCEB33FB10D703994004EB99FB0FD8A6
:100ADB00E5E4F9FA227818EF2FFFEE33FEED33FD44
:100AEB00EC33FCC933C910D7059BE99A4007EC9B43
:100AFB00FCE99AF90FD8E0E4C9FAE4CCFB2275F0D3
:100B0B0010EF2FFFEE33FEED33FDCC33CCC833C8E3
:100B1B0010D7079BEC9AE899400AED9BFDEC9AFCE9
:100B2B00E899F80FD5F0DAE4CDFBE4CCFAE4C8F998
:100B3B0022EB9FF5F0EA9E42F0E99D42F0E89C45DE
:100B4B00F0227401FF3395E0FEFDFC080808E6CFA8
:100B5B002FF618E6CE3EF618E6CD3DF618E6CC3C61
:100B6B00F622EFB40A004003020CCA900B7DF82862
:100B7B002873020B9B020BB9020BD7020BF2020C70
:100B8B0010020C2D020C4A020C67020C86020CA5FB
:100B9B00121934D2A0D2A1D2A2D2A3C2B47F017EA9
:100BAB000012002E121934D2A0D2A1020C821219FB
:100BBB0034C2A0D2A1D2A2C2A3C2B47F017E0012C2
:100BCB00002E121934C2A0C2A1020C82121934D207
:100BDB00A0D2A1C2A2D2A3C2B47F017E0012002E6A
:100BEB00121934D2A08019121934D2A0D2A1D2A2D8
:100BFB00D2A3C2B47F017E0012002E121934C2A000
:100C0B00C2A1020CA1121934C2A0D2A1D2A2C2A3BA
:100C1B00C2B47F017E0012002E121934C2A0D2A1E1
:100C2B008074121934D2A0C2A1D2A2D2A3C2B47FB3
:100C3B00017E0012002E121934C2A0D2A1805712CD
:100C4B001934D2A0C2A1D2A2D2A3C2B47F017E001A
:100C5B0012002E121934D2A0D2A1803A121934D21A
:100C6B00A0D2A1D2A2C2A3C2B47F017E0012002ED9
:100C7B00121934C2A0C2A1C2A2803C121934D2A054
:100C8B00D2A1D2A2D2A3C2B47F017E0012002E1237
:100C9B001934D2A0D2A1D2A2801D121934D2A0D263
:100CAB00A1D2A2D2A3C2B47F017E0012002E1219D0
:100CBB0034C2A0D2A1D2A2C2A3C2967F01800512D8
:100CCB0019347F027E0012002E22EFB40A0040037B
:100CDB00020E32900CE5F8282873020D03020D2149
:100CEB00020D3F020D5A020D78020D95020DB20254
:100CFB000DCF020DEE020E0D121934D2A0D2A1D2DD
:100D0B00A2D2A3C2A47F017E0012002E121934D2EC
:100D1B00A0D2A1020DEA121934C2A0D2A1D2A2C252
:100D2B00A3C2A47F017E0012002E121934C2A0C2EE
:100D3B00A1020DEA121934D2A0D2A1C2A2D2A3C22F
:100D4B00A47F017E0012002E121934D2A08019123A
:100D5B001934D2A0D2A1D2A2D2A3C2A47F017E0009
:100D6B0012002E121934C2A0C2A1020E091219349C
:100D7B00C2A0D2A1D2A2C2A3C2A47F017E00120044
:100D8B002E121934C2A0D2A18074121934D2A0C26F
:100D9B00A1D2A2D2A3C2A47F017E0012002E1219EF
:100DAB0034C2A0D2A18057121934D2A0C2A1D2A2B0
:100DBB00D2A3C2A47F017E0012002E121934D2A03E
:100DCB00D2A1803A121934D2A0D2A1D2A2C2A3C20C
:100DDB00A47F017E0012002E121934C2A0C2A1C240
:100DEB00A2803C121934D2A0D2A1D2A2D2A3C2A407
:100DFB007F017E0012002E121934D2A0D2A1D2A2F2
:100E0B00801D121934D2A0D2A1D2A2D2A3C2A47F28
:100E1B00017E0012002E121934C2A0D2A1D2A2C29E
:100E2B00A3C2957F0180051219347F027E00120048
:100E3B002E2290004EE07002A3E0604CE525452485
:100E4B00704BF524752501E544700E75440175480A
:100E5B005AF547F546F5458024E55DB40119E4F5EF
:100E6B0044F548F547F546F545F55DF55EF550F566
:100E7B004FF54EF54D80061217191215C1E4F556B4
:100E8B00F555F554F5538005E4F524F525E5447047
:100E9B0039F556F555F554F553121957E5226401FA
:100EAB00452170057536018018E522643C4521709B
:100EBB0004F536800CE522647845217004F521F5A4
:100ECB00220522E5227002052122753601E47F54AA
:100EDB007E01FDFCAB56AA55A954A853C3120B3C7B
:100EEB00504BE5562401F556E43555F555E435548C
:100EFB00F554E43553F553E47B32FAF9F8AF56AEBB
:100F0B0055AD54AC53120AAAAC00AD01AE02AF03FF
:100F1B00E4FBFAF9F8C3120B3C7057E52370071288
:100F2B0015C175230122120016E4F523221215FCBC
:100F3B00E4FFFEFDFCAB48AA47A946A845D3120B1C
:100F4B003C4004755D0122E4F55DE55E700D755E58
:100F5B0001755014F54FF54EF54D22E4FFFEFDFCE7
:100F6B00AB50AA4FA94EA84DC3120B3C7004F55EB3
:100F7B00F5442290FE94E04402F090FE40E4F0A38E
:100F8B00F0A3F0A3F0A3F0A3F0A3F0A3F0A3F0A3BE
:100F9B00F0A3F0A3F0A3F0A3F0A3F0A3F090FE60F6
:100FAB00F0A3F0A3F0A3F0A3F0A3F0A3F0A3F090B1
:100FBB00197C9390FE77F090197DE49390FE76F078
:100FCB0090197EE49390FE75F090197FE49390FE58
:100FDB0074F0901977E493F513740193F514901949
:100FEB0081E4936061E4F5089019CCE493FFE50884
:100FFB00C39F505274017E00A808088005C333CEEE
:10100B0033CED8F9FFE5135EFEE5145F4E603390E7
:10101B00FE72C083C082E0FCA3E0FDE50890196777
:10102B0093FF74017E00A807088005C333CE33CE2F
:10103B00D8F9FFEC4EFEED4FFFD082D083EEF0A33C
:10104B00EFF0050880A243D480D2BD1214EA9019A8
:10105B00CCE493F51212157AD202C20012007E90E4
:10106B0019CDE493FFD3940350057508058005EF64
:10107B002404F508E508600F3000F91217E0150895
:10108B00C20012007E80ED121672C20222C0E0C0B6
:10109B00F0C083C082C0D075D000C000C001C002B8
:1010AB00C003C004C005C006C007055AE55AD39457
:1010BB00964006755C01755A00782B120B4D7BC060
:1010CB007A2779097800C3120B3C506B752E00758B
:1010DB002D00752C00752B00E4FFFEFDFCAB48AA20
:1010EB0047A946A845120B3C401DE55DB40118E528
:1010FB004824FFF548E54734FFF547E54634FFF54F
:10110B0046E54534FFF545E4FFFEFDFCAB50AA4F29
:10111B00A94EA84DD3120B3C401DE55EB40118E55A
:10112B005024FFF550E54F34FFF54FE54E34FFF5F6
:10113B004EE54D34FFF54DE54C2401F54CE4354BB4
:10114B00F54BE4354AF54AE43549F549D007D00665
:10115B00D005D004D003D002D001D000D0D0D082A3
:10116B00D083D0F0D0E032013900013E00013500D0
:10117B00014200013600043A000000000431000077
:10118B0000000258005A01300001510001410001DA
:10119B00400002370000014300015200015D0004D2
:1011AB004500000000014400015E00044D000000FA
:1011BB001401570004530000000004490000000014
:1011CB00022400000226000002210000012300017E
:1011DB00280002290000015A00015C00015B00019C
:1011EB003F00042B00000000012F0042000103E828
:1011FB0042002403E84100210A41001E02011200B3
:10120B0002130000C102C101C10042004E000000E8
:10121B00900028E060030212B5A3E0F46003021211
:10122B00B57F107E27FDFCAB4CAA4BA94AA849C33E
:10123B00120B3C4075E4F54CF54BF54AF549900023
:10124B002AE0FB7024E544700D75440175485AF58E
:10125B0047F546F54522E4F544F548F547F546F5DF
:10126B0045F55DF55EF550803BE5446401703BEB65
:10127B00B408051216E3800A90002AE0B40A0D1296
:10128B0016ABE4F556F555F554F5532290002AE0CC
:10129B00B40217E55E7008755E017550148005E4A5
:1012AB00F55EF550F54FF54EF54D2278FFE4F6D887
:1012BB00FD9000007F007E04E4F0A3DFFCDEFA75F6
:1012CB00815E02130B0214A1E493A3F8E493A340F1
:1012DB0003F68001F208DFF48029E493A3F85407A6
:1012EB00240CC8C333C4540F4420C8834004F456A1
:1012FB00800146F6DFE4800B0102040810204080D9
:10130B00901172E47E019360BCA3FF543F30E5095A
:10131B00541FFEE493A360010ECF54C025E060A8D8
:10132B0040B8E493A3FAE493A3F8E493A3C8C5826B
:10133B00C8CAC583CAF0A3C8C582C8CAC583CADFD9
:10134B00E9DEE780BEE528701190FF0B74C1F090C9
:10135B00FF07F090FF0EF0752801E544640170352E
:10136B00E55DB40106D293D2A08004C293C2A0E57E
:10137B005EB4011AE4FFFEFDFCAB50AA4FA94EA8C8
:10138B004DD3120B3C4007D2877542018013C287A5
:10139B00E4F542800CC293C2A0C287E4F542121955
:1013AB0057E5576544602AE557B40121E544701DA4
:1013BB00052AE52A70020529C39410E529942750C4
:1013CB0003D29322E4F529F52AC293800085445772
:1013DB0022E4F529F52A22E4F58090FF0004F09031
:1013EB00FF01F090FF02F090FF03F090FF04F090EC
:1013FB00FF05F090FF06F090FF07F090FF08F090CC
:10140B00FF09F090FF0AF090FF0BF090FF0CF090AB
:10141B00FF0DF090FF0EF090FF0FF0E4F5A090FFA2
:10142B001004F090FF11F090FF12F090FF13F0906A
:10143B00FF14F090FF15F090FF16F090FF17F0E4FB
:10144B00F5B090FF1C04F090FF1DF022C0E0C083AC
:10145B00C082C0D0539FFDE55B602CE55AD39469E5
:10146B004003753F00742C253FF582E43400F5836F
:10147B00E55AF0755A00053FE53FD39421400375BB
:10148B003F00755C008006755B01755A00D0D0D0AB
:10149B0082D083D0E03212190A121782121920124D
:1014AB0018DDD2AF120F7E30000B1217E012180F9F
:1014BB00120012C200120E3D1207557F017E001260
:1014CB00002EE5342401F534E43533F533E43532BD
:1014DB00F532E43531F5311218AB12135080C8E4F4
:1014EB00FDFC9019CCE493FFEDC39F503A74017E41
:1014FB0000A805088005C333CE33CED8F9FFE5131A
:10150B005EFEE5145F4E600F74092DF582E4340026
:10151B00F583ECF00C800D74092DF582E43400F5A5
:10152B008374FFF00D80BB22E4FDFC121947AB075F
:10153B00AA06ED25E0FFEC33FE74562FF5827400FE
:10154B003EF583C37401939BE4939A400B0DBD004E
:10155B00010CED64784C70DAEB4A70057543028030
:10156B0009BA0F06BBFF03754301AE04AF05220595
:10157B00129019CCE493FFE512C39F4007D200D21F
:10158B0001E4F512E51445137003D2012274017EB8
:10159B0000A812088005C333CE33CED8F9FFE5136C
:1015AB005EFEE5145F4E60C7E51290196793F5D5A3
:1015BB00000000000022E47B3CFAF9F8AF48AE478C
:1015CB00AD46AC45120AAA8F39E47B3CFAF9F8AF69
:1015DB0048AE47AD46AC45120AAAAC00AD01AE020F
:1015EB00AF03E47B06FAF9F8120AAA8F3E753501B0
:1015FB0022E47B3CFAF9F8AF48AE47AD46AC451256
:10160B000AAA8F39E47B3CFAF9F8AF48AE47AD46EE
:10161B00AC45120AAAAC00AD01AE02AF03E47B06E7
:10162B00FAF9F8120AAA8F3E75350122C0E0C0F014
:10163B00C083C082C0D075D000C000C001C002C042
:10164B0003C004C005C006C00712174ED007D00652
:10165B00D005D004D003D002D001D000D0D0D0829E
:10166B00D083D0F0D0E032E4FF9019CAE493FEEFC0
:10167B00C39E502B75F002EFA42426F582E5F034BF
:10168B0000F583E0FCA3E0FD75F002EFA4241FF549
:10169B0082E5F03400F583ECF0A3EDF00F80CA2265
:1016AB00C3E548941EF548E5479400F547E5469495
:1016BB0000F546E5459400F545E47F1EFEFDFCABC9
:1016CB0048AA47A946A845C3120B3C500AE47548E3
:1016DB001EF547F546F54522E548241EF548E43549
:1016EB0047F547E43546F546E43545F545E47F686F
:1016FB007E01FDFCAB48AA47A946A845D3120B3C7B
:10170B00400BE4754868754701F546F54522E548F9
:10171B00241EF548E43547F547E43546F546E435F0
:10172B0045F545E47F687E01FDFCAB48AA47A94619
:10173B00A845D3120B3C400AE475481EF547F54605
:10174B00F5452253D4DF74092512F582E43400F5F4
:10175B0083E075F002A42405F582E5F03400F583EF
:10176B00E5D7F0A3E5D6F012000630020320000601
:10177B0020010343D4402290FF1074C1F0A3F0A3C7
:10178B00F0A3F090FF1CF090FF14F090FF0CF0A36F
:10179B00F0A3F0C2A0C2A1C2A2C2A3D2B4D294D26F
:1017AB00A4D295D29622E4F515F516E52F70189074
:1017BB00FF0374C2F090FF9C7403F075DE2075DF9D
:1017CB001075DD97752F0175DD977FC87E001200B0
:1017DB002E75DD0722E4FF75F002EFA42405F582D8
:1017EB00E5F03400F583E0FCA3E0FD75F002EFA417
:1017FB002426F582E5F03400F583ECF0A3EDF00F31
:10180B00BF01D42212195FE4F5089019CCE493FFC1
:10181B00E508C39F5009AF0812008E050880EB90B6
:10182B001980E493600312007E22EF6011121934C9
:10183B00D2A3C2967F017E0012002E021934121918
:10184B00347F017E0012002E22EF6011121934D268
:10185B00A0C2947F017E0012002E0219341219349B
:10186B007F017E0012002E22EF6011121934D2A3D9
:10187B00C2957F017E0012002E0219341219347F9B
:10188B00017E0012002E2290FF027401F075B480CD
:10189B00FF7E001218F475B50290FE9B744BF0227C
:1018AB00AF39120B6DAF3E120CD5AF35121835AFE9
:1018BB0042121854AF3602187390FF1074C1F09097
:1018CB00FFA07420F075CC06759E0275CEFF75CD0A
:1018DB00982290FF1D7469F090FEB4E04404F090E0
:1018EB00FEBA7402F043D80122EF1FAA0670011E44
:1018FB004A600BE4FDEDC3944750EE0D80F7227563
:10190B008E1190FE917401F090FEAA74FFF090FE80
:10191B00A474C2F022E490FE80F0F589758CFF75FB
:10192B008A7B43A80243881022C2A0C2A1C2A2C2D2
:10193B00A3D2B4D294D2A4D295D2962243B440E58A
:10194B00B430E5FB53B4DFAFB6AEB722E4F539F5EF
:10195B003EF53522D201E5D420E6FB22000102033D
:10196B000405060708090A0B0C0D0E0F8000001466
:10197B0000300A20060100012C0064020200500016
:10198B000A000A000A000A000A000A000A000A00FC
:10199B000A000A000A000A000A000A000A000A00EC
:1019AB00780078007800780078007800780078006C
:1019BB00780078007800780078007800780078015B
:0319CB000F1000FA
:00000001FF
