:1000000002129302000902154B80FE0211F680FED7
:1000100080FE2202000E80FE80FE1402001080FE90
:0200200080FE60
:0700230002001680FE80FEC2
:10002B000200188F828E83E5821582AE83700215D3
:10003B00834E60097F147E0012187980EA2280FEBD
:05004B0002001E80FE12
:0300530002002088
:03005B000200267A
:0D0063000200288F993099FDC2997F00227C
:030073000216571B
:0C007B00020049300105C20143D44022BC
:10008B0002004E8F09C20374017E00A80708800589
:10009B00C333CE33CED8F9F5118E1075F002E509C6
:1000AB00A42424F582E5F0341AF583E493FC74015F
:1000BB0093FD900059E0FF7E00120AAB7C007D0A95
:1000CB00120ABD8E0A8F0B75F002E509A42404F504
:1000DB0082E5F0341AF583E493F50C740193F50D76
:1000EB0074252509F582E43400F583E0F509F470F5
:1000FB000302075475F002E509A4244FF582E5F0DD
:10010B003400F583E0FEA3E0FF75F002E509A424BB
:10011B0066F582E5F03400F583E0FCA3E0C39FF5C0
:10012B000FEC9EF50E75F002E509A42411F582E59E
:10013B00F03400F583E0FCA3E0C39FFFEC9EAB071C
:10014B00FA901A02E493FF70030202817E00AC0A5C
:10015B00AD0B120AABD3EB9FEE6480F8EA64809888
:10016B00500302027F75F002E509A4241BF582E51A
:10017B00F03400F583E475F001120B4875F002E5DD
:10018B0009A4241BF582E5F03400F583E0FEA3E01F
:10019B00FF9019FCE493FC740193FDD3EF9DEE9C4F
:1001AB00402C75F002E509A4244FF582E5F03400EC
:1001BB00F583E50E850FF0120B4875F002E509A4E7
:1001CB00241BF582E5F03400F583E4F0A3F07435DD
:1001DB002509F582E43400F583E004F07435250934
:1001EB00F582E43400F583E0FF901A01E493FEEF0F
:1001FB00C39E401FE511F4FFE510F4FE900070E084
:10020B005EF0A3E05FF074352509F582E43400F568
:10021B0083E4F074002509F582E43400F583E4F0FF
:10022B0075F002E509A4243AF582E5F03400F58374
:10023B00E4F0A3F075F002E509A4245AF582E5F089
:10024B003400F583E4F0A3F075F002E509A424076C
:10025B00F582E5F03400F583E4F0A3F075F002E5E8
:10026B0009A42444F582E5F03400F583E4F0A3F00F
:10027B00D2038002C203C3EB950BE50A6480F8EA54
:10028B0064809850030203BD3003030207549000AF
:10029B0005E0FEA3E0FF4E606A75F002E509A424B9
:1002AB003AF582E5F03400F583E475F001120B4862
:1002BB0075F002E509A4243AF582E5F03400F583E4
:1002CB00E0FCA3E0C39FEC9E403975F002E509A466
:1002DB00244FF582E5F03400F583E50E850FF0121F
:1002EB000B4874002509F582E43400F583E4F075BE
:1002FB00F002E509A4243AF582E5F03400F583E435
:10030B00F0A3F0901A45E4937E00250BFFEE350A1F
:10031B00FEC3E50F9FEE6480F8E50E648098500DE8
:10032B00C3EB9FEE6480F8EA648098405374002519
:10033B0009F582E43400F583E004F074002509F537
:10034B0082E43400F583E0FF901A00E493FEEFC3E0
:10035B009E4019900070E04510F0A3E04511F07439
:10036B00002509F582E43400F583E4F075F002E52D
:10037B0009A4245AF582E5F03400F583E4F0A3F0E8
:10038B0074352509F582E43400F583E4F075F00249
:10039B00E509A4241BF582E5F03400F583E4F0A312
:1003AB00F075F002E509A42407F582E5F0340002AC
:1003BB000643D3EB950DE50C6480F8EA6480985006
:1003CB00030204DE900064E0FEA3E0FF4E605D7567
:1003DB00F002E509A4245AF582E5F03400F583E434
:1003EB0075F001120B4875F002E509A4245AF58249
:1003FB00E5F03400F583E0FCA3E0D39FEC9E402CAA
:10040B0075F002E509A4244FF582E5F03400F5837D
:10041B00E50E850FF0120B4875F002E509A4245A7E
:10042B00F582E5F03400F583E4F0A3F0901A45E48F
:10043B0093FFC3E50B9FFFE50A9400FEC3E50F9FF7
:10044B00EE6480F8E50E648098400CEB9FEE6480C0
:10045B00F8EA648098505974352509F582E4340024
:10046B00F583E004F074352509F582E43400F58357
:10047B00E0FF901A01E493FEEFC39E401FE511F4D9
:10048B00FFE510F4FE900070E05EF0A3E05FF07407
:10049B00352509F582E43400F583E4F075F002E5C7
:1004AB0009A4243AF582E5F03400F583E4F0A3F0D7
:1004BB0075F002E509A4241BF582E5F03400F58301
:1004CB00E4F0A3F074002509F582E43400F583E42D
:1004DB00020648C3E4950DFFE4950CFEC3EB9FEEBB
:1004EB006480F8EA648098500302065AD3EB950DAA
:1004FB00E50C6480F8EA648098400302065A75F0B4
:10050B0002E509A42407F582E5F03400F583EA8BB4
:10051B00F0120B48901A03E493F9FF75F002E5090A
:10052B00A42407F582E5F03400F583E0FCA3E0FD9D
:10053B00D39F7480F8EC648098401D90004EE0FFD0
:10054B0075F002E509A4244FF582E5F03400F5833C
:10055B00E48FF0120B488044E9FFC3E49FFFE4945F
:10056B0000FEC3ED9FEE6480F8EC648098504175FB
:10057B00F002E509A4244FF582E5F03400F583C0C1
:10058B0083C082E0FEA3E0FF90004EE0FDC3EF9D31
:10059B00FFEE9400D082D083F0A3EFF075F002E56C
:1005AB0009A42407F582E5F03400F583E4F0A3F009
:1005BB0074352509F582E43400F583E004F07435D5
:1005CB002509F582E43400F583E0FF901A01E493EA
:1005DB00FEEFC39E401F74352509F582E43400F508
:1005EB0083E4F0E511F4FFE510F4FE900070E05E9B
:1005FB00F0A3E05FF075F002E509A4241BF582E59A
:10060B00F03400F583E4F0A3F074002509F582E4DF
:10061B003400F583E4F075F002E509A4243AF58281
:10062B00E5F03400F583E4F0A3F075F002E509A4DE
:10063B00245AF582E5F03400F583E4F0A3F075F06D
:10064B0002E509A42444F582E5F0340002074C903E
:10065B0019FEE493FE740193FF4E605D75F002E5A5
:10066B0009A42444F582E5F03400F583E475F00128
:10067B00120B4875F002E509A42444F582E5F03429
:10068B0000F583E0FCA3E0C39FEC9E402C75F002C9
:10069B00E509A42444F582E5F03400F583E4F0A3E6
:1006AB00F075F002E509A4244FF582E5F03400F56E
:1006BB0083E50E850FF0120B4874352509F582E49E
:1006CB003400F583E004F074352509F582E4340039
:1006DB00F583E0FF901A01E493FEEFC39E401F7475
:1006EB00352509F582E43400F583E4F0E511F4FFD8
:1006FB00E510F4FE900070E05EF0A3E05FF075F0A3
:10070B0002E509A4241BF582E5F03400F583E4F03F
:10071B00A3F074002509F582E43400F583E4F07549
:10072B00F002E509A4243AF582E5F03400F583E400
:10073B00F0A3F075F002E509A4245AF582E5F03434
:10074B0000F583E4F0A3F0C20322E546600F753495
:10075B002BF53575364575372BE4F53D229000703A
:10076B00E0FEA3E0FF4E70030208B8EF652A7003AA
:10077B00EE6529700302087F8E298F2AE5456003F9
:10078B000208C1EF7003EE648070391217A4E547BD
:10079B0070147547011215D7754403E4F52EF52D2A
:1007AB00F52CF52B801EE4F547F538F550F54CF597
:1007BB0043F542F541F540F54BF54AF549F548F55A
:1007CB004E754F5AE547640160030208C1900070F3
:1007DB00E0B4401CA3E0B400171217A4121828129F
:1007EB0015D7E4F52EF52DF52CF52BF5380208C1B0
:1007FB00900070E064207002A3E070371217A4E53C
:10080B004CB40117E4F54C1215D7E4F543F542F55A
:10081B0041F5405344FBF5380208C112170412147A
:10082B0074E4F52EF52DF52CF52B753801434404A6
:10083B000208C1900070E064107002A3E0707712A0
:10084B0017A4E550B40116E4F550F54BF54AF549FC
:10085B00F5481214745344F7E4F53880597538028F
:10086B0012173A1214BCE4F52EF52DF52CF52B438B
:10087B0044088042900070E064087002A3E0703678
:10088B00E547640170300530E5307002052FB4B0D8
:10089B0025E52FB404201217A4E545700875450112
:1008AB004344108011E4F5455344EF8009E4F529E6
:1008BB00F52AF52FF530E547703F1218B9F52EF5EF
:1008CB002DF52CF52BE522640145217005754401AE
:1008DB00801EE522B4900AE521B40105E4F54480BD
:1008EB000FE522B4200AE521B40305E4F521F52236
:1008FB000522E5227002052122E47F347E08FDFCEF
:10090B00AB2EAA2DA92CA82BC3120C2C506AE4F5E4
:10091B004DE52E2401F52EE4352DF52DE4352CF582
:10092B002CE4352BF52BE47B5E7A01F9F8AF2EAE78
:10093B002DAD2CAC2B120B9AAC00AD01AE02AF035C
:10094B00E4FBFAF9F8C3120C2C6003020AAAE523A4
:10095B00701FE53870051215D78012E538B4010504
:10096B001214748008E538B402031214BC75230109
:10097B00221218C9E4F52322754D01E538703112A6
:10098B0015D7E4FFFEFDFCAB43AA42A941A840D317
:10099B00120C2C40057538018016E4FFFEFDFCABF4
:1009AB004BAA4AA949A848D3120C2C40037538020C
:1009BB00E53864017067FFFEFDFCAB43AA42A94119
:1009CB00A840D3120C2C4038754C01E52564014529
:1009DB00247005120EC6801EE525B4F40AE524B476
:1009EB000105120F92800FE525B4E80AE524B40344
:1009FB0005E4F524F5250525E52570210524801D45
:100A0B00E4FFFEFDFCAB4BAA4AA949A848C3120C54
:100A1B002C7004F53880037538025344FBE53864B9
:100A2B0002707C755001FFFEFDFCAB43AA42A9414D
:100A3B00A840C3120C2C7064FFFEFDFCAB4BAA4A02
:100A4B00A949A848D3120C2C40470527E527AE2609
:100A5B00700205261494A0EE940F5021AE26AF27FA
:100A6B007C017DF4120ABDED4C7034E52870071241
:100A7B00105E7528012212112AE4F52822C3E527FE
:100A8B009458E526941B50030215D7E4F526F52759
:100A9B0022E4F5385344F7F547F545227538012222
:100AAB00EF8DF0A4A8F0CF8CF0A428CE8DF0A42E5F
:100ABB00FE22BC000BBE0029EF8DF084FFADF022AF
:100ACB00E4CCF875F008EF2FFFEE33FEEC33FCEEC1
:100ADB009DEC984005FCEE9DFE0FD5F0E9E4CEFDB4
:100AEB0022EDF8F5F0EE8420D21CFEADF075F00887
:100AFB00EF2FFFED33FD4007985006D5F0F222C3E0
:100B0B0098FD0FD5F0EA22C2D5EC30E709B2D5E457
:100B1B00C39DFDE49CFCEE30E715B2D5E4C39FFF0B
:100B2B00E49EFE120ABDC3E49DFDE49CFC8003120F
:100B3B000ABD30D507C3E49FFFE49EFE22C5F0F843
:100B4B00A3E028F0C5F0F8E582158270021583E06A
:100B5B0038F02275F008758200EF2FFFEE33FECDD3
:100B6B0033CDCC33CCC58233C5829BED9AEC99E562
:100B7B008298400CF582EE9BFEED9AFDEC99FC0FF2
:100B8B00D5F0D6E4CEFBE4CDFAE4CCF9A88222B8BA
:100B9B0000C1B90059BA002DEC8BF084CFCECDFC3F
:100BAB00E5F0CBF97818EF2FFFEE33FEED33FDECCC
:100BBB0033FCEB33FB10D703994004EB99FB0FD8B5
:100BCB00E5E4F9FA227818EF2FFFEE33FEED33FD53
:100BDB00EC33FCC933C910D7059BE99A4007EC9B52
:100BEB00FCE99AF90FD8E0E4C9FAE4CCFB2275F0E2
:100BFB0010EF2FFFEE33FEED33FDCC33CCC833C8F3
:100C0B0010D7079BEC9AE899400AED9BFDEC9AFCF8
:100C1B00E899F80FD5F0DAE4CDFBE4CCFAE4C8F9A7
:100C2B0022EB9FF5F0EA9E42F0E99D42F0E89C45ED
:100C3B00F022D287D281D280D2A7D292C3E532647E
:100C4B008094844003020D1E74342532F8E624D5BB
:100C5B007003020D0E24E67003020CFE2445B40A49
:100C6B00004003020D4B900C78F8282873020C9669
:100C7B00020CA7020CAB020CB7020CC8020CD2027E
:100C8B000CDC020CE2020CEA020CF2D2A6D2A4D2C9
:100C9B00B4D2A2D2A1D2A5C2B5020D4BC2A6803945
:100CAB00D2A6D2A4C2B4D2A2D2A1800AD2A6D2A476
:100CBB00D2B4D2A2C2A1C2A5D2B5020D4BC2A6D24A
:100CCB00A4D2B4C2A28028D2A6C2A4D2B4D2A2808B
:100CDB001ED2A6C2A4800CD2A6D2A4D2B4802AD291
:100CEB00A6D2A4D2B48012D2A6D2A4D2B4D2A2C21B
:100CFB00A1800AD2A6C2A4C2B4D2A2D2A1D2A5D23A
:100D0B00B5803DC2A6C2A4C2B4C2A2C2A1C2A5C232
:100D1B00B5802DE544C330E001D392A6E544C33042
:100D2B00E101D392A4E544C330E201D392A1E5449F
:100D3B00C330E301D392A2E544C330E401D392B4B0
:100D4B00E53D6004D2A38002C2A3E5327006C287E0
:100D5B00D2818009E532B40108D287C281D280806A
:100D6B000BE532B4020CD287D281C280D2A7D292C9
:100D7B008020E532B4030CD287D281D280C2A7D2B5
:100D8B0092800FE532B4040AD287D281D280D2A7E7
:100D9B00C2920532D3E532648094844003E4F53289
:100DAB002290FE94E04402F090FE40E4F0A3F0A306
:100DBB00F0A3F0A3F0A3F0A3F0A3F0A3F0A3F0A390
:100DCB00F0A3F0A3F0A3F0A3F0A3F090FE60F0A3C8
:100DDB00F0A3F0A3F0A3F0A3F0A3F0A3F09019F607
:100DEB009390FE77F09019F7E49390FE76F09019BC
:100DFB00F8E49390FE75F09019F9E49390FE74F07B
:100E0B009019F1E493F513740193F5149019FBE425
:100E1B00936061E4F508901A46E493FFE508C39FDD
:100E2B00505274017E00A808088005C333CE33CE20
:100E3B00D8F9FFE5135EFEE5145F4E603390FE724A
:100E4B00C083C082E0FCA3E0FDE5089019E193FFAD
:100E5B0074017E00A807088005C333CE33CED8F9C2
:100E6B00FFEC4EFEED4FFFD082D083EEF0A3EFF000
:100E7B00050880A243D480D2BD12142B901A46E4ED
:100E8B0093F51212154BD202C20012007E901A4734
:100E9B00E493FFD3940350057508058005EF2404F4
:100EAB00F508E508600F3000F91217D31508C200DA
:100EBB0012007E80ED1216CBC20222E5432460FFA6
:100ECB00E54234EAFEE43541FDE43540FC7B807AB3
:100EDB00EE79367800120B9AAC00AD01AE02AF037F
:100EEB00E47B607AEAF9F8120B9AE47B0AFAF9F8D8
:100EFB00120B9AAF038F34E5432460FFE54234EACB
:100F0B00FEE43541FDE43540FC7B807AEE793678A2
:100F1B0000120B9AAC00AD01AE02AF03E47B607A1A
:100F2B00EAF9F8120B9AE47B0AFAF9F8120B9A8F8A
:100F3B0035E5432460FFE54234EAFEE43541FDE448
:100F4B003540FC7B807AEE79367800120B9AE47B85
:100F5B000AFAF9F8120B9AAF038F36E5432460FFB8
:100F6B00E54234EAFEE43541FDE43540FC7B807A12
:100F7B00EE79367800120B9AE47B0AFAF9F8120B29
:100F8B009A8F37753D0122E5432460FFE54234EA31
:100F9B00FEE43541FDE43540FC7B807AEE79367812
:100FAB0000120B9AAC00AD01AE02AF03E47B607A8A
:100FBB00EAF9F8120B9AE47B0AFAF9F8120B9AAFDA
:100FCB00038F34E5432460FFE54234EAFEE4354108
:100FDB00FDE43540FC7B807AEE79367800120B9A73
:100FEB00AC00AD01AE02AF03E47B607AEAF9F81214
:100FFB000B9AE47B0AFAF9F8120B9A8F35E5432426
:10100B0060FFE54234EAFEE43541FDE43540FC7B0C
:10101B00807AEE79367800120B9AE47B0AFAF9F8AB
:10102B00120B9AAF038F36E5432460FFE54234EA97
:10103B00FEE43541FDE43540FC7B807AEE79367871
:10104B0000120B9AE47B0AFAF9F8120B9A8F37E429
:10105B00F53D22E54B2460FFE54A34EAFEE43549D1
:10106B00FDE43548FC7B807AEE79367800120B9ADA
:10107B00AC00AD01AE02AF03E47B607AEAF9F81283
:10108B000B9AE47B0AFAF9F8120B9AAF038F34E54B
:10109B004B2460FFE54A34EAFEE43549FDE435486C
:1010AB00FC7B807AEE79367800120B9AAC00AD019E
:1010BB00AE02AF03E47B607AEAF9F8120B9AE47B99
:1010CB000AFAF9F8120B9A8F35E54B2460FFE54AC3
:1010DB0034EAFEE43549FDE43548FC7B807AEE7951
:1010EB00367800120B9AE47B0AFAF9F8120B9AAFD6
:1010FB00038F36E54B2460FFE54A34EAFEE43549BD
:10110B00FDE43548FC7B807AEE79367800120B9A39
:10111B00E47B0AFAF9F8120B9A8F37753D0122E539
:10112B004B2460FFE54A34EAFEE43549FDE43548DB
:10113B00FC7B807AEE79367800120B9AAC00AD010D
:10114B00AE02AF03E47B607AEAF9F8120B9AE47B08
:10115B000AFAF9F8120B9AAF038F34E54B2460FFB0
:10116B00E54A34EAFEE43549FDE43548FC7B807AF8
:10117B00EE79367800120B9AAC00AD01AE02AF03DC
:10118B00E47B607AEAF9F8120B9AE47B0AFAF9F835
:10119B00120B9A8F35E54B2460FFE54A34EAFEE4E7
:1011AB003549FDE43548FC7B807AEE7936780012C0
:1011BB000B9AE47B0AFAF9F8120B9AAF038F36E518
:1011CB004B2460FFE54A34EAFEE43549FDE435483B
:1011DB00FC7B807AEE79367800120B9AE47B0AFA64
:1011EB00F9F8120B9A8F37E4F53D22C0E0C0F0C03E
:1011FB0083C082C0D075D000C000C001C002C00344
:10120B00C004C005C006C007120C3DE4FFFEFDFC88
:10121B00AB43AA42A941A840D3120C2C401FE54C6A
:10122B00B4014AE54324FFF543E54234FFF542E5BB
:10123B004134FFF541E54034FFF5408030E4FFFEDB
:10124B00FDFCAB4BAA4AA949A848D3120C2C401D54
:10125B00E550B40118E54B24FFF54BE54A34FFF597
:10126B004AE54934FFF549E54834FFF548D007D046
:10127B0006D005D004D003D002D001D000D0D0D0FE
:10128B0082D083D0F0D0E03278FFE4F6D8FD900026
:10129B00007F007E04E4F0A3DFFCDEFA75815002D0
:1012AB0012E802161AE493A3F8E493A34003F68022
:1012BB0001F208DFF48029E493A3F85407240CC847
:1012CB00C333C4540F4420C8834004F456800146F2
:1012DB00F6DFE4800B010204081020408090132DF0
:1012EB00E47E019360BCA3FF543F30E509541FFE1D
:1012FB00E493A360010ECF54C025E060A840B8E48E
:10130B0093A3FAE493A3F8E493A3C8C582C8CAC510
:10131B0083CAF0A3C8C582C8CAC583CADFE9DEE7A2
:10132B0080BE043400000000013D000440000000BA
:10133B0000044800000000043900000000014700D1
:10134B00024E005A013800014C00015000014500CB
:10135B00014400023E0000014600014D000229003D
:10136B0000042B00000000022F00000221000001EE
:10137B002300022400000226000001280001310096
:10138B0001320001330042000503E842006403E828
:10139B004100590A41004E0201120002130000C124
:1013AB0002C101C100420070000000E4F58090FF13
:1013BB000004F090FF01F090FF02F090FF03F0901B
:1013CB00FF04F090FF05F090FF06F090FF07F09000
:1013DB00FF08F090FF09F090FF0AF090FF0BF090E0
:1013EB00FF0CF090FF0DF090FF0EF090FF0FF0E46C
:1013FB00F5A090FF1004F090FF11F090FF12F09009
:10140B00FF13F090FF14F090FF15F090FF16F09083
:10141B00FF17F0E4F5B090FF1C04F090FF1DF022D5
:10142B00E4FDFC901A46E493FFEDC39F503A740120
:10143B007E00A805088005C333CE33CED8F9FFE56F
:10144B00135EFEE5145F4E600F74252DF582E434B8
:10145B0000F583ECF00C800D74252DF582E434003F
:10146B00F58374FFF00D80BB227B807AEE793678A2
:10147B0000AF43AE42AD41AC40120B9AE47B0AFA8B
:10148B00F9F8120B9AAF038F347B807AEE793678AA
:10149B0000AF43AE42AD41AC40120B9AE47B0AFA6B
:1014AB00F9F8120B9A8F3575362B75372BE4F53D02
:1014BB00227B807AEE79367800AF4BAE4AAD49ACE1
:1014CB0048120B9AE47B0AFAF9F8120B9AAF038FC6
:1014DB00347B807AEE79367800AF4BAE4AAD49ACAF
:1014EB0048120B9AE47B0AFAF9F8120B9A8F3575AE
:1014FB00362B75372BE4F53D22E4FDFC1218D9ABE6
:10150B0007AA06ED25E0FFEC33FE74F12FF582748C
:10151B00183EF583C37401939BE4939A400B0DBD66
:10152B0000010CED64784C70DAEB4A7005754602DD
:10153B008009BA0F06BBFF03754601AE04AF052247
:10154B000512901A46E493FFE512C39F4007D200A1
:10155B00D201E4F512E51445137003D20122740194
:10156B007E00A812088005C333CE33CED8F9FFE531
:10157B00135EFEE5145F4E60C7E5129019E193F51B
:10158B00D50000000000221215048E3E8F3FE5317E
:10159B00700990FF0974C1F0753101E547B4012959
:1015AB00E4FFFEFDFCAB43AA42A941A840C3120CC9
:1015BB002C7016E54DB40111D3E54F953FE54E95D3
:1015CB003E4003D29122C29122C29122AE4EAF4F26
:1015DB007C007D0A120B128D34AE4EAF4F7C007D1A
:1015EB0064120B127E007F0ACFCDCFCECCCE120B66
:1015FB00128F35D3E54F9463E54E6480948040059C
:10160B00753601800375362B75372BE4F53D2212A9
:10161B00188F121860D2AF120DAC30000B1217D30B
:10162B00121802120012C2001207551215927F01F6
:10163B007E0012002EE53C2401F53CE4353BF53BE6
:10164B00E4353AF53AE43539F53980CEC0E0C0F0EF
:10165B00C083C082C0D075D000C000C001C002C022
:10166B0003C004C005C006C007121770D007D00610
:10167B00D005D004D003D002D001D000D0D0D0827E
:10168B00D083D0F0D0E03290FF1674C1F090FF14ED
:10169B00F090FF1CF090FF12F090FF11F090FF15EF
:1016AB00F090FF1DF090FF13F090FF07F090FF01FB
:1016BB00F090FF00F090FF17F090FF0AF00218B9BE
:1016CB00E4FF901A44E493FEEFC39E502B75F00297
:1016DB00EFA42466F582E5F03400F583E0FCA3E08B
:1016EB00FD75F002EFA4244FF582E5F03400F5838D
:1016FB00ECF0A3EDF00F80CA22E5432480F543E51F
:10170B004234EEF542E5413436F541E43540F540DF
:10171B007F007E2E7D937C02AB43AA42A941F8D376
:10172B00120C2C4009E4F543F542F541F54022E556
:10173B004B2480F54BE54A34EEF54AE5493436F552
:10174B0049E43548F5487F007E2E7D937C02AB4BF8
:10175B00AA4AA949F8D3120C2C4009E4F54BF54AD7
:10176B00F549F5482253D4DF74252512F582E4346C
:10177B0000F583E075F002A42411F582E5F0340046
:10178B00F583E5D7F0A3E5D6F0120006300203206F
:10179B00000620010343D44022E4F508F509E533A4
:1017AB00701890FF0374C2F090FF9C7403F075DE09
:1017BB002075DF1075DD9775330175DD977FC87E5A
:1017CB000012002E75DD0722E4FF75F002EFA42452
:1017DB0011F582E5F03400F583E0FCA3E0FD75F034
:1017EB0002EFA42466F582E5F03400F583ECF0A358
:1017FB00EDF00FBF05D4221218E9E4F508901A4654
:10180B00E493FFE508C39F5009AF0812008E05084B
:10181B0080EB9019FAE493600312007E2274052585
:10182B004FF54FE4354EF54EC3E54F947DE54E64D1
:10183B008094804006754E00754F282290FF0274ED
:10184B0001F075B480FF7E0012187975B50290FE19
:10185B009B744BF02290FF1074C1F090FFA074208A
:10186B00F075CC06759E0275CEFF75CD9822EF1FD5
:10187B00AA0670011E4A600BE4FDEDC3944750EEBF
:10188B000D80F722758E1190FE917401F090FEAAD7
:10189B0074FFF090FEA474C2F022E490FE80F0F589
:1018AB0089758CFA758ACB43A8024388102275344C
:1018BB0008753508753608753708753D012275347E
:1018CB002B75352B75362B75372BE4F53D2243B431
:1018DB0040E5B430E5FB53B4DFAFB6AEB722D2016F
:1018EB00E5D420E6FB220EC70EB80EA80E980E8884
:1018FB000E760E640E520E3F0E2B0E170E020DECD3
:10190B000DD60DBF0DA70D8F0D760D5D0D430D285B
:10191B000D0C0CF00CD40CB70C990C7A0C5B0C3C2A
:10192B000C1C0BFB0BDA0BB80B960B740B510B2D22
:10193B000B090AE50AC10A9C0A770A510A2C0A0606
:10194B0009E009BA0994096E0947092108FA08D474
:10195B0008AE08870861083B081507F007CA07A5FA
:10196B000780075B0737071306EF06CC06A9068629
:10197B0006640642062005FF05DE05BE059F057FB2
:10198B00056105420525050704EB04CE04B2049757
:10199B00047C04620448042F041603FE03E603CF01
:1019AB0003B803A2038C03760361034D03390325AC
:1019BB00031202FF02ED02DB02CA02B802A8029870
:1019CB00028802780269025A024C023E023002235C
:1019DB000216020901FC00010203040506070809AF
:1019EB000A0B0C0D0E0FF800001400300A20060134
:1019FB0000012C006402020050000A000A000A00D9
:101A0B000A000A000A000A000A000A000A000A007B
:101A1B000A000A000A000A000A0078007800780021
:101A2B0078007800780078007800780078007800EB
:0D1A3B00780078007800780078050F100022
:00000001FF
