:100000000213970200090215C980FE0210AE80FE9D
:1000100080FE2202000E753908753E08E4F535228F
:0A00200080FE1402001080FE80FE36
:10002B000200208F828E83E5821582AE83700215CB
:10003B00834E60097F147E0012196480EA2280FED1
:07004B0002002680FE80FE8A
:0500530002002800017D
:03005B0002004957
:0D00630002004E75392B753E2BE4F5352259
:03007300021686EC
:0D007B000200508F993099FDC2997F00223C
:10008B000214A68F09C20374017E00A8070880051D
:10009B00C333CE33CED8F9F5118E1075F002E509C6
:1000AB00A4241BF582E5F0341AF583E493FC740168
:1000BB0093FD900021E0FF7E001209F17C007D0A88
:1000CB00120A038E0A8F0B75F002E509A424FBF5C7
:1000DB0082E5F03419F583E493F50C740193F50D77
:1000EB0074092509F582E43400F583E0F509F47011
:1000FB000302075475F002E509A4241FF582E5F00D
:10010B003400F583E0FEA3E0FF75F002E509A424BB
:10011B0026F582E5F03400F583E0FCA3E0C39FF500
:10012B000FEC9EF50E75F002E509A42405F582E5AA
:10013B00F03400F583E0FCA3E0C39FFFEC9EAB071C
:10014B00FA9019F9E493FF70030202817E00AC0A66
:10015B00AD0B1209F1D3EB9FEE6480F8EA64809843
:10016B00500302027F75F002E509A42407F582E52E
:10017B00F03400F583E475F001120A5875F002E5CE
:10018B0009A42407F582E5F03400F583E0FEA3E033
:10019B00FF9019F3E493FC740193FDD3EF9DEE9C58
:1001AB00402C75F002E509A4241FF582E5F034001C
:1001BB00F583E50E850FF0120A5875F002E509A4D8
:1001CB002407F582E5F03400F583E4F0A3F074190D
:1001DB002509F582E43400F583E004F07419250950
:1001EB00F582E43400F583E0FF9019F8E493FEEF19
:1001FB00C39E401FE511F4FFE510F4FE90004EE0A6
:10020B005EF0A3E05FF074192509F582E43400F584
:10021B0083E4F074002509F582E43400F583E4F0FF
:10022B0075F002E509A4241AF582E5F03400F58394
:10023B00E4F0A3F075F002E509A42422F582E5F0C1
:10024B003400F583E4F0A3F075F002E509A4240370
:10025B00F582E5F03400F583E4F0A3F075F002E5E8
:10026B0009A4241CF582E5F03400F583E4F0A3F037
:10027B00D2038002C203C3EB950BE50A6480F8EA54
:10028B0064809850030203BD3003030207549000AF
:10029B0001E0FEA3E0FF4E606A75F002E509A424BD
:1002AB001AF582E5F03400F583E475F001120A5873
:1002BB0075F002E509A4241AF582E5F03400F58304
:1002CB00E0FCA3E0C39FEC9E403975F002E509A466
:1002DB00241FF582E5F03400F583E50E850FF0124F
:1002EB000A5874002509F582E43400F583E4F075AF
:1002FB00F002E509A4241AF582E5F03400F583E455
:10030B00F0A3F0901A3CE4937E00250BFFEE350A28
:10031B00FEC3E50F9FEE6480F8E50E648098500DE8
:10032B00C3EB9FEE6480F8EA648098405374002519
:10033B0009F582E43400F583E004F074002509F537
:10034B0082E43400F583E0FF9019F7E493FEEFC3EA
:10035B009E401990004EE04510F0A3E04511F0745B
:10036B00002509F582E43400F583E4F075F002E52D
:10037B0009A42422F582E5F03400F583E4F0A3F020
:10038B0074192509F582E43400F583E4F075F00265
:10039B00E509A42407F582E5F03400F583E4F0A326
:1003AB00F075F002E509A42403F582E5F0340002B0
:1003BB000643D3EB950DE50C6480F8EA6480985006
:1003CB00030204DE900024E0FEA3E0FF4E605D75A7
:1003DB00F002E509A42422F582E5F03400F583E46C
:1003EB0075F001120A5875F002E509A42422F58272
:1003FB00E5F03400F583E0FCA3E0D39FEC9E402CAA
:10040B0075F002E509A4241FF582E5F03400F583AD
:10041B00E50E850FF0120A5875F002E509A42422A7
:10042B00F582E5F03400F583E4F0A3F0901A3CE498
:10043B0093FFC3E50B9FFFE50A9400FEC3E50F9FF7
:10044B00EE6480F8E50E648098400CEB9FEE6480C0
:10045B00F8EA648098505974192509F582E4340040
:10046B00F583E004F074192509F582E43400F58373
:10047B00E0FF9019F8E493FEEFC39E401FE511F4E3
:10048B00FFE510F4FE90004EE05EF0A3E05FF07429
:10049B00192509F582E43400F583E4F075F002E5E3
:1004AB0009A4241AF582E5F03400F583E4F0A3F0F7
:1004BB0075F002E509A42407F582E5F03400F58315
:1004CB00E4F0A3F074002509F582E43400F583E42D
:1004DB00020648C3E4950DFFE4950CFEC3EB9FEEBB
:1004EB006480F8EA648098500302065AD3EB950DAA
:1004FB00E50C6480F8EA648098400302065A75F0B4
:10050B0002E509A42403F582E5F03400F583EA8BB8
:10051B00F0120A589019FAE493F9FF75F002E50905
:10052B00A42403F582E5F03400F583E0FCA3E0FDA1
:10053B00D39F7480F8EC648098401D90001EE0FF00
:10054B0075F002E509A4241FF582E5F03400F5836C
:10055B00E48FF0120A588044E9FFC3E49FFFE49450
:10056B0000FEC3ED9FEE6480F8EC648098504175FB
:10057B00F002E509A4241FF582E5F03400F583C0F1
:10058B0083C082E0FEA3E0FF90001EE0FDC3EF9D61
:10059B00FFEE9400D082D083F0A3EFF075F002E56C
:1005AB0009A42403F582E5F03400F583E4F0A3F00D
:1005BB0074192509F582E43400F583E004F074190D
:1005CB002509F582E43400F583E0FF9019F8E493F4
:1005DB00FEEFC39E401F74192509F582E43400F524
:1005EB0083E4F0E511F4FFE510F4FE90004EE05EBD
:1005FB00F0A3E05FF075F002E509A42407F582E5AE
:10060B00F03400F583E4F0A3F074002509F582E4DF
:10061B003400F583E4F075F002E509A4241AF582A1
:10062B00E5F03400F583E4F0A3F075F002E509A4DE
:10063B002422F582E5F03400F583E4F0A3F075F0A5
:10064B0002E509A4241CF582E5F0340002074C9066
:10065B0019F5E493FE740193FF4E605D75F002E5AE
:10066B0009A4241CF582E5F03400F583E475F00150
:10067B00120A5875F002E509A4241CF582E5F03442
:10068B0000F583E0FCA3E0C39FEC9E402C75F002C9
:10069B00E509A4241CF582E5F03400F583E4F0A30E
:1006AB00F075F002E509A4241FF582E5F03400F59E
:1006BB0083E50E850FF0120A5874192509F582E4AB
:1006CB003400F583E004F074192509F582E4340055
:1006DB00F583E0FF9019F8E493FEEFC39E401F747F
:1006EB00192509F582E43400F583E4F0E511F4FFF4
:1006FB00E510F4FE90004EE05EF0A3E05FF075F0C5
:10070B0002E509A42407F582E5F03400F583E4F053
:10071B00A3F074002509F582E43400F583E4F07549
:10072B00F002E509A4241AF582E5F03400F583E420
:10073B00F0A3F075F002E509A42422F582E5F0346C
:10074B0000F583E4F0A3F0C20322E53F7003020936
:10075B00F0E55C70030209F090002EE0C3940F7F6C
:10076B000150027F00EF25E0FF90002DE0C3940FB6
:10077B007E0150027E00EE4FFF90002FE0C3940FDE
:10078B007E0150027E00EE25E025E04FFF90003009
:10079B00E0C3940F7E0150027E00EE33333354F8E6
:1007AB004FFF900031E0C3940F7E0150027E00EEAC
:1007BB00C454F04FFF900032E0C3940F7E015002FF
:1007CB007E00EEC43354E04FFF900033E0C3940F30
:1007DB007E0150027E00EEC4333354C04FFF9000B5
:1007EB0034E0C3940F7E0150027E00EEC4333333EA
:1007FB0054804F900028F0900036E0C3940F7F0197
:10080B0050027F00EF25E0FF900035E0C3940F7E90
:10081B000150027E00EE4FFF900037E0C3940F7E35
:10082B000150027E00EE25E025E04FFF900038E0FE
:10083B00C3940F7E0150027E00EE33333354F84FD6
:10084B00FF900039E0C3940F7E0150027E00EEC48E
:10085B0054F04FFF90003AE0C3940F7E0150027E9C
:10086B0000EEC43354E04FFF90003BE0C3940F7E87
:10087B000150027E00EEC4333354C04FFF90003C56
:10088B00E0C3940F7E0150027E00EEC43333335429
:10089B00804F900029F090003EE0C3940F7F0150F1
:1008AB00027F00EF25E0FF90003DE0C3940F7E0137
:1008BB0050027E00EE4FFF90003FE0C3940F7E018D
:1008CB0050027E00EE25E025E04FFF900040E0C394
:1008DB00940F7E0150027E00EE33333354F84FFFFA
:1008EB00900041E0C3940F7E0150027E00EEC45491
:1008FB00F04FFF900042E0C3940F7E0150027E0048
:10090B00EEC43354E04FFF900043E0C3940F7E01DD
:10091B0050027E00EEC4333354C04FFF900044E0CE
:10092B00C3940F7E0150027E00EEC43333335480E8
:10093B004F90002AF0900046E0C3940F7F015002C5
:10094B007F00EF25E0FF900045E0C3940F7E015040
:10095B00027E00EE4FFF900047E0C3940F7E0150E4
:10096B00027E00EE25E025E04FFF900048E0C394A7
:10097B000F7E0150027E00EE33333354F84FFF905D
:10098B000049E0C3940F7E0150027E00EEC454F088
:10099B004FFF90004AE0C3940F7E0150027E00EEA1
:1009AB00C43354E04FFF90004BE0C3940F7E0150D3
:1009BB00027E00EEC4333354C04FFF90004CE0C3B3
:1009CB00940F7E0150027E00EEC433333354804FBC
:1009DB0090002BF0E4F53F121188E4900028F0A36F
:1009EB00F0A3F0A3F022EF8DF0A4A8F0CF8CF0A42D
:1009FB0028CE8DF0A42EFE22BC000BBE0029EF8D5D
:100A0B00F084FFADF022E4CCF875F008EF2FFFEE89
:100A1B0033FEEC33FCEE9DEC984005FCEE9DFE0F97
:100A2B00D5F0E9E4CEFD22EDF8F5F0EE8420D21CF2
:100A3B00FEADF075F008EF2FFFED33FD400798503A
:100A4B0006D5F0F222C398FD0FD5F0EA22C5F0F8D7
:100A5B00A3E028F0C5F0F8E582158270021583E05B
:100A6B0038F02275F008758200EF2FFFEE33FECDC4
:100A7B0033CDCC33CCC58233C5829BED9AEC99E553
:100A8B008298400CF582EE9BFEED9AFDEC99FC0FE3
:100A9B00D5F0D6E4CEFBE4CDFAE4CCF9A88222B8AB
:100AAB0000C1B90059BA002DEC8BF084CFCECDFC30
:100ABB00E5F0CBF97818EF2FFFEE33FEED33FDECBD
:100ACB0033FCEB33FB10D703994004EB99FB0FD8A6
:100ADB00E5E4F9FA227818EF2FFFEE33FEED33FD44
:100AEB00EC33FCC933C910D7059BE99A4007EC9B43
:100AFB00FCE99AF90FD8E0E4C9FAE4CCFB2275F0D3
:100B0B0010EF2FFFEE33FEED33FDCC33CCC833C8E3
:100B1B0010D7079BEC9AE899400AED9BFDEC9AFCE9
:100B2B00E899F80FD5F0DAE4CDFBE4CCFAE4C8F998
:100B3B0022EB9FF5F0EA9E42F0E99D42F0E89C45DE
:100B4B00F0227401FF3395E0FEFDFC080808E6CFA8
:100B5B002FF618E6CE3EF618E6CD3DF618E6CC3C61
:100B6B00F622EFB40A004003020CCA900B7DF82862
:100B7B002873020B9B020BB9020BD7020BF2020C70
:100B8B0010020C2D020C4A020C67020C86020CA5FB
:100B9B001219A4D2A0D2A1D2A2D2A3C2B47F017E39
:100BAB000012002E1219A4D2A0D2A1020C8212198B
:100BBB00A4C2A0D2A1D2A2C2A3C2B47F017E001252
:100BCB00002E1219A4C2A0C2A1020C821219A4D227
:100BDB00A0D2A1C2A2D2A3C2B47F017E0012002E6A
:100BEB001219A4D2A080191219A4D2A0D2A1D2A2F8
:100BFB00D2A3C2B47F017E0012002E1219A4C2A090
:100C0B00C2A1020CA11219A4C2A0D2A1D2A2C2A34A
:100C1B00C2B47F017E0012002E1219A4C2A0D2A171
:100C2B0080741219A4D2A0C2A1D2A2D2A3C2B47F43
:100C3B00017E0012002E1219A4C2A0D2A18057125D
:100C4B0019A4D2A0C2A1D2A2D2A3C2B47F017E00AA
:100C5B0012002E1219A4D2A0D2A1803A1219A4D23A
:100C6B00A0D2A1D2A2C2A3C2B47F017E0012002ED9
:100C7B001219A4C2A0C2A1C2A2803C1219A4D2A074
:100C8B00D2A1D2A2D2A3C2B47F017E0012002E1237
:100C9B0019A4D2A0D2A1D2A2801D1219A4D2A0D283
:100CAB00A1D2A2D2A3C2B47F017E0012002E1219D0
:100CBB00A4C2A0D2A1D2A2C2A3C2967F0180051268
:100CCB0019A47F027E0012002E22EFB40A0040030B
:100CDB00020E32900CE5F8282873020D03020D2149
:100CEB00020D3F020D5A020D78020D95020DB20254
:100CFB000DCF020DEE020E0D1219A4D2A0D2A1D26D
:100D0B00A2D2A3C2A47F017E0012002E1219A4D27C
:100D1B00A0D2A1020DEA1219A4C2A0D2A1D2A2C2E2
:100D2B00A3C2A47F017E0012002E1219A4C2A0C27E
:100D3B00A1020DEA1219A4D2A0D2A1C2A2D2A3C2BF
:100D4B00A47F017E0012002E1219A4D2A0801912CA
:100D5B0019A4D2A0D2A1D2A2D2A3C2A47F017E0099
:100D6B0012002E1219A4C2A0C2A1020E091219A4BC
:100D7B00C2A0D2A1D2A2C2A3C2A47F017E00120044
:100D8B002E1219A4C2A0D2A180741219A4D2A0C28F
:100D9B00A1D2A2D2A3C2A47F017E0012002E1219EF
:100DAB00A4C2A0D2A180571219A4D2A0C2A1D2A2D0
:100DBB00D2A3C2A47F017E0012002E1219A4D2A0CE
:100DCB00D2A1803A1219A4D2A0D2A1D2A2C2A3C29C
:100DDB00A47F017E0012002E1219A4C2A0C2A1C2D0
:100DEB00A2803C1219A4D2A0D2A1D2A2D2A3C2A497
:100DFB007F017E0012002E1219A4D2A0D2A1D2A282
:100E0B00801D1219A4D2A0D2A1D2A2D2A3C2A47FB8
:100E1B00017E0012002E1219A4C2A0D2A1D2A2C22E
:100E2B00A3C2957F0180051219A47F027E001200D8
:100E3B002E2290004EE07002A3E0604CE525452485
:100E4B00704BF524752501E544700E75440175480A
:100E5B005AF547F546F5458024E55DB40119E4F5EF
:100E6B0044F548F547F546F545F55DF55EF550F566
:100E7B004FF54EF54D8006121730121610E4F5564D
:100E8B00F555F554F5538005E4F524F525E5447047
:100E9B0039F556F555F554F553120016E522640154
:100EAB00452170057536018018E522643C4521709B
:100EBB0004F536800CE522647845217004F521F5A4
:100ECB00220522E5227002052122753601E47F54AA
:100EDB007E01FDFCAB56AA55A954A853C3120B3C7B
:100EEB00504BE5562401F556E43555F555E435548C
:100EFB00F554E43553F553E47B32FAF9F8AF56AEBB
:100F0B0055AD54AC53120AAAAC00AD01AE02AF03FF
:100F1B00E4FBFAF9F8C3120B3C706DE52370071272
:100F2B00161075230122120066E4F52322E4FFFE5E
:100F3B00FDFCAB48AA47A946A845D3120B3C40067B
:100F4B00755D0102164BE4F55DE55E700D755E0196
:100F5B00755014F54FF54EF54D22E4FFFEFDFCAB3D
:100F6B0050AA4FA94EA84DC3120B3C7005F55EF568
:100F7B004422E4FFFEFDFCAB50AA4FA94EA84DD373
:100F8B00120B3C40031218532290FE94E04402F0E3
:100F9B0090FE40E4F0A3F0A3F0A3F0A3F0A3F0A322
:100FAB00F0A3F0A3F0A3F0A3F0A3F0A3F0A3F0A39E
:100FBB00F0A3F090FE60F0A3F0A3F0A3F0A3F0A3D6
:100FCB00F0A3F0A3F09019ED9390FE77F09019EE4B
:100FDB00E49390FE76F09019EFE49390FE75F09009
:100FEB0019F0E49390FE74F09019E8E493F5137400
:100FFB000193F5149019F2E4936061E4F508901AEB
:10100B003DE493FFE508C39F505274017E00A8088E
:10101B00088005C333CE33CED8F9FFE5135EFEE56A
:10102B00145F4E603390FE72C083C082E0FCA3E07D
:10103B00FDE5089019D893FF74017E00A80708807E
:10104B0005C333CE33CED8F9FFEC4EFEED4FFFD0B8
:10105B0082D083EEF0A3EFF0050880A243D480D2B8
:10106B00BD121539901A3DE493F5121215C9D2022F
:10107B00C2001219C7901A3EE493FFD39403500594
:10108B007508058005EF2404F508E508600F3000AE
:10109B00F91217F71508C2001219C780ED1216C105
:1010AB00C20222C0E0C0F0C083C082C0D075D000A5
:1010BB00C000C001C002C003C004C005C006C00709
:1010CB00055AE55AD394964006755C01755A00781B
:1010DB002B120B4D7BC07A2779097800C3120B3C7E
:1010EB00506B752E00752D00752C00752B00E4FFD1
:1010FB00FEFDFCAB48AA47A946A845120B3C401D78
:10110B00E55DB40118E54824FFF548E54734FFF5E4
:10111B0047E54634FFF546E54534FFF545E4FFFE6C
:10112B00FDFCAB50AA4FA94EA84DD3120B3C401D52
:10113B00E55EB40118E55024FFF550E54F34FFF59B
:10114B004FE54E34FFF54EE54D34FFF54DE54C24A0
:10115B0001F54CE4354BF54BE4354AF54AE435499A
:10116B00F549D007D006D005D004D003D002D0016A
:10117B00D000D0D0D082D083D0F0D0E032900028F5
:10118B00E0600302124CA3E0F4600302124C7F10E8
:10119B007E27FDFCAB4CAA4BA94AA849C3120B3CBA
:1011AB00500302124CE4F54CF54BF54AF54990000F
:1011BB002AE0FB702BE544700E75440175485AF517
:1011CB0047F546F545803EE4F544F548F547F546C9
:1011DB00F545F55DF55EF550F54FF54EF54D802572
:1011EB00E544B40120E55E701CEBB408051216FA59
:1011FB00800A90002AE0B40A0C121826E4F556F582
:10120B0055F554F55390002AE0B40235E55E701A9B
:10121B00754401755E01755014F54FF54EF54DF59E
:10122B0048F547F546F545F55D22E4F544F548F5F7
:10123B0047F546F545F55DF55EF550F54FF54EF581
:10124B004D22013900013E000135000142000136FB
:10125B0000043A00000000043100000000025800B6
:10126B005A013000015100014100014000023700DA
:10127B0000014300015200015D0004450000000025
:10128B00014400015E00044D0000001401570004EE
:10129B00530000000004490000000002240000027B
:1012AB002600000221000001230001280002290072
:1012BB0000015A00015C00015B00013F00042B00A0
:1012CB00000000012F0042000103E842002403E864
:1012DB004100210A41001E0201120002130000C14D
:1012EB0002C101C10042004E000000E528701190C0
:1012FB00FF0B74C1F090FF07F090FF02F07528010F
:10130B00E54464017044E55DB40106D293D282805A
:10131B0004C293C282E55EB40129E4FFFEFDFCAB7F
:10132B0050AA4FA94EA84DD3120B3C4016D3E52A19
:10133B009400E52994004004C2878002D28775424D
:10134B00018013C287E4F542800CC293C282C2872C
:10135B00E4F542120016E557655D602AE557B401C6
:10136B0021E55D701D052AE52A70020529C394E865
:10137B00E52994035003D29322E4F529F52AC2936D
:10138B008000855D5722E4F529F52A2278FFE4F6E3
:10139B00D8FD9000007F007E04E4F0A3DFFCDEFAB2
:1013AB0075815E0213EC0214F0E493A3F8E493A3AB
:1013BB004003F68001F208DFF48029E493A3F8548C
:1013CB0007240CC8C333C4540F4420C8834004F40F
:1013DB0056800146F6DFE4800B0102040810204022
:1013EB008090124DE47E019360BCA3FF543F30E527
:1013FB0009541FFEE493A360010ECF54C025E06097
:10140B00A840B8E493A3FAE493A3F8E493A3C8C564
:10141B0082C8CAC583CAF0A3C8C582C8CAC583CA55
:10142B00DFE9DEE780BEE4F58090FF0004F090FF7B
:10143B0001F090FF02F090FF03F090FF04F090FF9B
:10144B0005F090FF06F090FF07F090FF08F090FF7B
:10145B0009F090FF0AF090FF0BF090FF0CF090FF5B
:10146B000DF090FF0EF090FF0FF0E4F5A090FF1041
:10147B0004F090FF11F090FF12F090FF13F090FF2B
:10148B0014F090FF15F090FF16F090FF17F0E4F5B5
:10149B00B090FF1C04F090FF1DF022C0E0C083C091
:1014AB0082C0D0539FFDE55B602CE55AD394694015
:1014BB0003753F00742C253FF582E43400F583E57A
:1014CB005AF0755A00053FE53FD394214003753F11
:1014DB0000755C008006755B01755A00D0D0D08218
:1014EB00D083D0E03212197A12179912199012196F
:1014FB004DD2AF120F9430000B1217F712187F1248
:10150B000012C200120E3D1207557F017E00120021
:10151B002EE5342401F534E43533F533E43532F577
:10152B0032E43531F53112191B1212F680C8E4FD85
:10153B00FC901A3DE493FFEDC39F503A74017E007B
:10154B00A805088005C333CE33CED8F9FFE5135E6B
:10155B00FEE5145F4E600F74092DF582E43400F53F
:10156B0083ECF00C800D74092DF582E43400F583C7
:10157B0074FFF00D80BB22E4FDFC1219B7AB07AA78
:10158B0006ED25E0FFEC33FE74562FF58274003E1A
:10159B00F583C37401939BE4939A400B0DBD00013B
:1015AB000CED64784C70DAEB4A70057543028009D8
:1015BB00BA0F06BBFF03754301AE04AF052205123C
:1015CB00901A3DE493FFE512C39F4007D200D2016E
:1015DB00E4F512E51445137003D2012274017E0069
:1015EB00A812088005C333CE33CED8F9FFE5135EBE
:1015FB00FEE5145F4E60C7E5129019D893F5D50040
:10160B000000000022E47B3CFAF9F8AF48AE47AD8E
:10161B0046AC45120AAA8F39E47B3CFAF9F8AF487D
:10162B00AE47AD46AC45120AAAAC00AD01AE02AF57
:10163B0003E47B06FAF9F8120AAA8F3E75350122EC
:10164B00E47B3CFAF9F8AF48AE47AD46AC45120A1D
:10165B00AA8F39E47B3CFAF9F8AF48AE47AD46ACFC
:10166B0045120AAAAC00AD01AE02AF03E47B06FA49
:10167B00F9F8120AAA8F3E75350122C0E0C0F0C0FE
:10168B0083C082C0D075D000C000C001C002C003AF
:10169B00C004C005C006C007121765D007D006D01E
:1016AB0005D004D003D002D001D000D0D0D082D04E
:1016BB0083D0F0D0E032E4FF901A3BE493FEEFC30B
:1016CB009E502B75F002EFA42426F582E5F0340032
:1016DB00F583E0FCA3E0FD75F002EFA4241FF58277
:1016EB00E5F03400F583ECF0A3EDF00F80CA22E5B2
:1016FB0048241EF548E43547F547E43546F546E4FE
:10170B003545F545E47F687E01FDFCAB48AA47A94A
:10171B0046A845D3120B3C400BE47548687547014E
:10172B00F546F54522E548241EF548E43547F547CF
:10173B00E43546F546E43545F545E47F687E01FD25
:10174B00FCAB48AA47A946A845D3120B3C400AE478
:10175B0075481EF547F546F5452253D4DF74092528
:10176B0012F582E43400F583E075F002A42405F54C
:10177B0082E5F03400F583E5D7F0A3E5D6F012004F
:10178B000630020320000620010343D4402290FFC1
:10179B001074C1F0A3F0A3F0A3F090FF1CF090FF26
:1017AB0014F090FF0CF0A3F0A3F0C2A0C2A1C2A250
:1017BB00C2A3D2B4D294D2A4D295D29622E4F51578
:1017CB00F516E52F701890FF0374C2F090FF9C7410
:1017DB0003F075DE2075DF1075DD97752F0175DD54
:1017EB00977FC87E0012002E75DD0722E4FF75F08F
:1017FB0002EFA42405F582E5F03400F583E0FCA3A9
:10180B00E0FD75F002EFA42426F582E5F03400F537
:10181B0083ECF0A3EDF00FBF01D422E47F1EFEFD9D
:10182B00FCAB48AA47A946A845D3120B3C4018E588
:10183B0048941EF548E5479400F547E5469400F5B6
:10184B0046E5459400F54522E47B0AFAF9F8AF50DA
:10185B00AE4FAD4EAC4D120AAA8F39E47B0AFAF9A2
:10186B00F8AF50AE4FAD4EAC4D120AAAAF038F3E40
:10187B00E4F535221219D0E4F508901A3DE493FFF4
:10188B00E508C39F5009AF0812008E050880EB9046
:10189B0019F1E49360031219C722EF60111219A416
:1018AB00D2A3C2967F017E0012002E0219A4121938
:1018BB00A47F017E0012002E22EF60111219A4D218
:1018CB00A0C2947F017E0012002E0219A41219A44B
:1018DB007F017E0012002E22EF60111219A4D2A3F9
:1018EB00C2957F017E0012002E0219A41219A47F4B
:1018FB00017E0012002E2290FF027401F075B4805D
:10190B00FF7E0012196475B50290FE9B744BF0229A
:10191B00AF39120B6DAF3E120CD5AF351218A5AF08
:10192B00421218C4AF360218E390FF1074C1F09046
:10193B00FFA07420F075CC06759E0275CEFF75CD99
:10194B00982290FF1D7469F090FEB4E04404F0906F
:10195B00FEBA7402F043D80122EF1FAA0670011ED3
:10196B004A600BE4FDEDC3944750EE0D80F72275F2
:10197B008E1190FE917401F090FEAA74FFF090FE10
:10198B00A474C2F022E490FE80F0F589758CFF758B
:10199B008A7B43A80243881022C2A0C2A1C2A2C262
:1019AB00A3D2B4D294D2A4D295D2962243B440E51A
:1019BB00B430E5FB53B4DFAFB6AEB722300105C28E
:1019CB000143D44022D201E5D420E6FB22000102E0
:1019DB00030405060708090A0B0C0D0E0F80000007
:1019EB001400300A20060100012C00640202005092
:1019FB00000A000A000A000A000A000A000A000A8C
:101A0B00000A000A000A000A000A000A000A000A7B
:101A1B0000780078007800780078007800780078FB
:101A2B0000780078007800780078007800780078EB
:041A3B00010F100087
:00000001FF
