:100000000211D00200090214E780FE020DE480FE16
:1000100080FE2202000E753B58753C58E4F53122F3
:0A00200080FE1402001080FE80FE36
:10002B000200208F828E83E5821582AE83700215CB
:10003B00834E60097F147E0012183080EA2280FE06
:07004B0002002680FE80FE8A
:0300530002002880
:03005B0002004957
:0D00630002004E753B2B753C2BE4F531225D
:030073000215E78C
:0D007B000200508F993099FDC2997F00223C
:10008B0002152E8F0DC20374017E00A80708800590
:10009B00C333CE33CED8F9F5158E1475F002E50DBA
:1000AB00A424E5F582E5F03418F583E493FC7401A0
:1000BB0093FD900041E0FF7E00120C687C007D0AEE
:1000CB00120C7A8E0E8F0F75F002E50DA424C5F578
:1000DB0082E5F03418F583E493F510740193F51170
:1000EB00742F250DF582E43400F583E0F50DF470E3
:1000FB000302075475F002E50DA4243FF582E5F0E9
:10010B003400F583E0FEA3E0FF75F002E50DA424B7
:10011B0046F582E5F03400F583E0FCA3E0C39FF5E0
:10012B0013EC9EF51275F002E50DA4242BF582E578
:10013B00F03400F583E0FCA3E0C39FFFEC9EAB071C
:10014B00FA9018C3E493FF70030202817E00AC0E99
:10015B00AD0F120C68D3EB9FEE6480F8EA648098C5
:10016B00500302027F75F002E50DA4242DF582E504
:10017B00F03400F583E475F001120CCF75F002E555
:10018B000DA4242DF582E5F03400F583E0FEA3E009
:10019B00FF9018BDE493FC740193FDD3EF9DEE9C8F
:1001AB00402C75F002E50DA4243FF582E5F03400F8
:1001BB00F583E5128513F0120CCF75F002E50DA453
:1001CB00242DF582E5F03400F583E4F0A3F07439C7
:1001DB00250DF582E43400F583E004F07439250D28
:1001EB00F582E43400F583E0FF9018C2E493FEEF50
:1001FB00C39E401FE515F4FFE514F4FE900048E0A4
:10020B005EF0A3E05FF07439250DF582E43400F560
:10021B0083E4F07426250DF582E43400F583E4F0D5
:10022B0075F002E50DA4243AF582E5F03400F58370
:10023B00E4F0A3F075F002E50DA42442F582E5F09D
:10024B003400F583E4F0A3F075F002E50DA4242946
:10025B00F582E5F03400F583E4F0A3F075F002E5E8
:10026B000DA4243CF582E5F03400F583E4F0A3F013
:10027B00D2038002C203C3EB950FE50E6480F8EA4C
:10028B0064809850030203BD3003030207549000AF
:10029B0027E0FEA3E0FF4E606A75F002E50DA42493
:1002AB003AF582E5F03400F583E475F001120CCFDA
:1002BB0075F002E50DA4243AF582E5F03400F583E0
:1002CB00E0FCA3E0C39FEC9E403975F002E50DA462
:1002DB00243FF582E5F03400F583E5128513F01227
:1002EB000CCF7426250DF582E43400F583E4F0750C
:1002FB00F002E50DA4243AF582E5F03400F583E431
:10030B00F0A3F0901906E4937E00250FFFEE350E57
:10031B00FEC3E5139FEE6480F8E512648098500DE0
:10032B00C3EB9FEE6480F8EA6480984053742625F3
:10033B000DF582E43400F583E004F07426250DF509
:10034B0082E43400F583E0FF9018C1E493FEEFC321
:10035B009E4019900048E04514F0A3E04515F07459
:10036B0026250DF582E43400F583E4F075F002E503
:10037B000DA42442F582E5F03400F583E4F0A3F0FC
:10038B007439250DF582E43400F583E4F075F00241
:10039B00E50DA4242DF582E5F03400F583E4F0A3FC
:1003AB00F075F002E50DA42429F582E5F034000286
:1003BB000643D3EB9511E5106480F8EA64809850FE
:1003CB00030204DE900044E0FEA3E0FF4E605D7587
:1003DB00F002E50DA42442F582E5F03400F583E448
:1003EB0075F001120CCF75F002E50DA42442F582D5
:1003FB00E5F03400F583E0FCA3E0D39FEC9E402CAA
:10040B0075F002E50DA4243FF582E5F03400F58389
:10041B00E5128513F0120CCF75F002E50DA4244202
:10042B00F582E5F03400F583E4F0A3F0901906E4CF
:10043B0093FFC3E50F9FFFE50E9400FEC3E5139FEB
:10044B00EE6480F8E512648098400CEB9FEE6480BC
:10045B00F8EA64809850597439250DF582E434001C
:10046B00F583E004F07439250DF582E43400F5834F
:10047B00E0FF9018C2E493FEEFC39E401FE515F416
:10048B00FFE514F4FE900048E05EF0A3E05FF0742B
:10049B0039250DF582E43400F583E4F075F002E5BF
:1004AB000DA4243AF582E5F03400F583E4F0A3F0D3
:1004BB0075F002E50DA4242DF582E5F03400F583EB
:1004CB00E4F0A3F07426250DF582E43400F583E403
:1004DB00020648C3E49511FFE49510FEC3EB9FEEB3
:1004EB006480F8EA648098500302065AD3EB9511A6
:1004FB00E5106480F8EA648098400302065A75F0B0
:10050B0002E50DA42429F582E5F03400F583EA8B8E
:10051B00F0120CCF9018C4E493F9FF75F002E50DBF
:10052B00A42429F582E5F03400F583E0FCA3E0FD7B
:10053B00D39F7480F8EC648098401D90003EE0FFE0
:10054B0075F002E50DA4243FF582E5F03400F58348
:10055B00E48FF0120CCF8044E9FFC3E49FFFE494D7
:10056B0000FEC3ED9FEE6480F8EC648098504175FB
:10057B00F002E50DA4243FF582E5F03400F583C0CD
:10058B0083C082E0FEA3E0FF90003EE0FDC3EF9D41
:10059B00FFEE9400D082D083F0A3EFF075F002E56C
:1005AB000DA42429F582E5F03400F583E4F0A3F0E3
:1005BB007439250DF582E43400F583E004F07439C9
:1005CB00250DF582E43400F583E0FF9018C2E49327
:1005DB00FEEFC39E401F7439250DF582E43400F500
:1005EB0083E4F0E515F4FFE514F4FE900048E05EBB
:1005FB00F0A3E05FF075F002E50DA4242DF582E584
:10060B00F03400F583E4F0A3F07426250DF582E4B5
:10061B003400F583E4F075F002E50DA4243AF5827D
:10062B00E5F03400F583E4F0A3F075F002E50DA4DA
:10063B002442F582E5F03400F583E4F0A3F075F085
:10064B0002E50DA4243CF582E5F0340002074C9042
:10065B0018BFE493FE740193FF4E605D75F002E5E5
:10066B000DA4243CF582E5F03400F583E475F0012C
:10067B00120CCF75F002E50DA4243CF582E5F034A5
:10068B0000F583E0FCA3E0C39FEC9E402C75F002C9
:10069B00E50DA4243CF582E5F03400F583E4F0A3EA
:1006AB00F075F002E50DA4243FF582E5F03400F57A
:1006BB0083E5128513F0120CCF7439250DF582E406
:1006CB003400F583E004F07439250DF582E4340031
:1006DB00F583E0FF9018C2E493FEEFC39E401F74B6
:1006EB0039250DF582E43400F583E4F0E515F4FFCC
:1006FB00E514F4FE900048E05EF0A3E05FF075F0C7
:10070B0002E50DA4242DF582E5F03400F583E4F029
:10071B00A3F07426250DF582E43400F583E4F0751F
:10072B00F002E50DA4243AF582E5F03400F583E4FC
:10073B00F0A3F075F002E50DA42442F582E5F03448
:10074B0000F583E4F0A3F0C20322E53E7003020A36
:10075B000AE5507003020A0A900006E0C3940F7F6B
:10076B000150027F00EF25E0FF900005E0C3940FDE
:10077B007E0150027E00EE4FFF900007E0C3940F06
:10078B007E0150027E00EE25E025E04FFF90000831
:10079B00E0C3940F7E0150027E00EE33333354F8E6
:1007AB004FFF900009E0C3940F7E0150027E00EED4
:1007BB00C454F04FFF90000AE0C3940F7E01500227
:1007CB007E00EEC43354E04FFF90000BE0C3940F58
:1007DB007E0150027E00EEC4333354C04FFF9000B5
:1007EB000CE0C3940F7E0150027E00EEC433333312
:1007FB0054804F900000F090000EE0C3940F7F01E7
:10080B0050027F00EF25E0FF90000DE0C3940F7EB8
:10081B000150027E00EE4FFF90000FE0C3940F7E5D
:10082B000150027E00EE25E025E04FFF900010E026
:10083B00C3940F7E0150027E00EE33333354F84FD6
:10084B00FF900011E0C3940F7E0150027E00EEC4B6
:10085B0054F04FFF900012E0C3940F7E0150027EC4
:10086B0000EEC43354E04FFF900013E0C3940F7EAF
:10087B000150027E00EEC4333354C04FFF9000147E
:10088B00E0C3940F7E0150027E00EEC43333335429
:10089B00804F900001F0900016E0C3940F7F015041
:1008AB00027F00EF25E0FF900015E0C3940F7E015F
:1008BB0050027E00EE4FFF900017E0C3940F7E01B5
:1008CB0050027E00EE25E025E04FFF900018E0C3BC
:1008DB00940F7E0150027E00EE33333354F84FFFFA
:1008EB00900019E0C3940F7E0150027E00EEC454B9
:1008FB00F04FFF90001AE0C3940F7E0150027E0070
:10090B00EEC43354E04FFF90001BE0C3940F7E0105
:10091B0050027E00EEC4333354C04FFF90001CE0F6
:10092B00C3940F7E0150027E00EEC43333335480E8
:10093B004F900002F090001EE0C3940F7F01500215
:10094B007F00EF25E0FF90001DE0C3940F7E015068
:10095B00027E00EE4FFF90001FE0C3940F7E01500C
:10096B00027E00EE25E025E04FFF900020E0C394CF
:10097B000F7E0150027E00EE33333354F84FFF905D
:10098B000021E0C3940F7E0150027E00EEC454F0B0
:10099B004FFF900022E0C3940F7E0150027E00EEC9
:1009AB00C43354E04FFF900023E0C3940F7E0150FB
:1009BB00027E00EEC4333354C04FFF900024E0C3DB
:1009CB00940F7E0150027E00EEC433333354804FBC
:1009DB00900003F0E4F53E121025E4F50CF50DF54F
:1009EB000CF50D7404250DF5827400350CF583E4BC
:1009FB00F0050DE50D7002050C6421450C70E42229
:100A0B00E529701790FF0974C1F090FF07F090FF74
:100A1B0003F090FF0AF0A3F0752901E53F7059E54B
:100A2B0026640145257005753A018018E526643C5E
:100A3B0045257004F53A800CE5266478452570044D
:100A4B00F525F5260526E52670020525E4F535F591
:100A5B0034F533F532F548120016C291C283C287C2
:100A6B00E4F543F542F541F540F551F552F547F5FF
:100A7B0046F545F544020C1C753A01E47F2C7E01CA
:100A8B00FDFCAB35AA34A933A832C3120DB3400316
:100A9B00020B79E5352401F535E43534F534E435CD
:100AAB0033F533E43532F532C291C283C287E4F5B4
:100ABB0051F5527F01FEFDFCAB35AA34A933A832A8
:100ACB00C3120DB3601CE47F64FEFDFCA832C3129D
:100ADB000DB3600EE47FC8FEFDFCA832C3120DB34C
:100AEB00701DE4FFFEFDFCAB43AA42A941A840D315
:100AFB00120DB3400512145480381217908033E452
:100B0B007F32FEFDFCAB35AA34A933A832C3120DDC
:100B1B00B3601CE47F96FEFDFCA832C3120DB360DC
:100B2B000EE47FFAFEFDFCA832C3120DB370031264
:100B3B000066E47F2C7E01FDFCAB35AA34A933A8FB
:100B4B0032C3120DB36003020C1CFFFEFDFCAB4362
:100B5B00AA42A941A840D3120DB3400912145475EF
:100B6B005101020C1C121790755201020C1CE4FF70
:100B7B00FEFDFCAB43AA42A941A840D3120DB340E2
:100B8B0009D291D28312136C8004C291C283E549BE
:100B9B00B40118755201E4754714F546F545F54453
:100BAB00F54975390AF538F537F536E4FFFEFDFCE6
:100BBB00AB47AA46A945A844D3120DB3404EE4FF58
:100BCB00FEFDFCAB39AA38A937A836D3120DB340BA
:100BDB0031C287E5286401452770057548018018E7
:100BEB00E528643C45277004F548800CE5286478BB
:100BFB0045277004F527F5280528E52870090527F2
:100C0B008005D2877548011217908005C287E4F5DD
:100C1B0048E53D65516018E53DB40110E551700C98
:100C2B0075395475383DF537F536800085513DE4FF
:100C3B00FFFEFDFCAB39AA38A937A836D3120DB38A
:100C4B00401AE53924FFF539E53834FFF538E53737
:100C5B0034FFF537E53634FFF536D29122EF8DF0C0
:100C6B00A4A8F0CF8CF0A428CE8DF0A42EFE22BC2D
:100C7B00000BBE0029EF8DF084FFADF022E4CCF821
:100C8B0075F008EF2FFFEE33FEEC33FCEE9DEC9886
:100C9B004005FCEE9DFE0FD5F0E9E4CEFD22EDF80C
:100CAB00F5F0EE8420D21CFEADF075F008EF2FFFAF
:100CBB00ED33FD4007985006D5F0F222C398FD0F97
:100CCB00D5F0EA22C5F0F8A3E028F0C5F0F8E582EC
:100CDB00158270021583E038F02275F008758200DA
:100CEB00EF2FFFEE33FECD33CDCC33CCC58233C5E6
:100CFB00829BED9AEC99E58298400CF582EE9BFE77
:100D0B00ED9AFDEC99FC0FD5F0D6E4CEFBE4CDFAD1
:100D1B00E4CCF9A88222B800C1B90059BA002DEC75
:100D2B008BF084CFCECDFCE5F0CBF97818EF2FFF0D
:100D3B00EE33FEED33FDEC33FCEB33FB10D70399B5
:100D4B004004EB99FB0FD8E5E4F9FA227818EF2F62
:100D5B00FFEE33FEED33FDEC33FCC933C910D70581
:100D6B009BE99A4007EC9BFCE99AF90FD8E0E4C9A0
:100D7B00FAE4CCFB2275F010EF2FFFEE33FEED33D0
:100D8B00FDCC33CCC833C810D7079BEC9AE89940FD
:100D9B000AED9BFDEC9AFCE899F80FD5F0DAE4CD5F
:100DAB00FBE4CCFAE4C8F922EB9FF5F0EA9E42F0A3
:100DBB00E99D42F0E89C45F0227401FF3395E0FE7B
:100DCB00FDFC080808E6CF2FF618E6CE3EF618E62F
:100DDB00CD3DF618E6CC3CF622C0E0C0F0C083C097
:100DEB0082C0D075D000C000C001C002C003C004D7
:100DFB00C005C006C007054AE54AD3949640067560
:100E0B005001754A00782C120DC47BC07A277909E2
:100E1B007800C3120DB34003020EDB752F00752E45
:100E2B0000752D00752C00E53F64016003020EDB9D
:100E3B00FFFEFDFCAB43AA42A941A840120DB340F3
:100E4B0035E551B40130E54324FFF543E54234FF6A
:100E5B00F542E54134FFF541E54034FFF540E4FF51
:100E6B00FEFDFCAB43AA42A941A840C3120DB370CF
:100E7B0005754901F551E4FFFEFDFCAB47AA46A9F8
:100E8B0045A844D3120DB34047E552B40142E4FFE9
:100E9B00FEFDFCAB39AA38A937A836C3120DB370C7
:100EAB002FE54724FFF547E54634FFF546E5453486
:100EBB00FFF545E54434FFF544E4FFFEFDFCAB478D
:100ECB00AA46A945A844C3120DB37004F552F53FC9
:100EDB00E54E2401F54EE4354DF54DE4354CF54C1E
:100EEB00E4354BF54BD007D006D005D004D003D05A
:100EFB0002D001D000D0D0D082D083D0F0D0E0325D
:100F0B0090FE94E04402F090FE40E4F0A3F0A3F0D6
:100F1B00A3F0A3F0A3F0A3F0A3F0A3F0A3F0A3F02E
:100F2B00A3F0A3F0A3F0A3F0A3F090FE60F0A3F066
:100F3B00A3F0A3F0A3F0A3F0A3F0A3F09018B79342
:100F4B0090FE77F09018B8E49390FE76F09018B975
:100F5B00E49390FE75F09018BAE49390FE74F090C1
:100F6B0018B2E493F517740193F5189018BCE49339
:100F7B006061E4F50C901907E493FFE50CC39F50F7
:100F8B005274017E00A80C088005C333CE33CED833
:100F9B00F9FFE5175EFEE5185F4E603390FE72C0F9
:100FAB0083C082E0FCA3E0FDE50C9018A893FF74CE
:100FBB00017E00A807088005C333CE33CED8F9FFD6
:100FCB00EC4EFEED4FFFD082D083EEF0A3EFF00599
:100FDB000C80A243D480D2BD12149E901907E493C7
:100FEB00F5161214E7D202C200121897901908E4F2
:100FFB0093FFD394035005750C058005EF2404F57E
:10100B000CE50C600F3000F9121761150CC20012C1
:10101B00189780ED121622C20222900000E06003A6
:10102B00021106A3E0F460030211067FB87E0BFDEC
:10103B00FCAB4EAA4DA94CA84BC3120DB3500302E7
:10104B001106E4F54EF54DF54CF54B900002E070B2
:10105B002BE53F700E753F0175435AF542F541F58F
:10106B00408054E4F53FF543F542F541F540F55129
:10107B00F552F547F546F545F544803BE53F6401F0
:10108B007035E5527031FFFEFDFCAB47AA46A94512
:10109B00A844C3120DB3701F900002E0B4080512F0
:1010AB001693800A900002E0B40A0C12165BE4F56A
:1010BB0035F534F533F532900002E06402703CE50F
:1010CB00527021753F01F552754714F546F545F5FC
:1010DB0044F543F542F541F540F551F535F534F559
:1010EB0033F53222E4F53FF543F542F541F540F592
:1010FB0051F552F547F546F545F54422D296D29572
:10110B00EFB40A0040030211A790111BF8282873B3
:10111B0002113902114902114D02115902116902D2
:10112B00117302117D02118302118B021197D2A14F
:10113B00D2B4D2A4D2A5D282D2A2C2A3806CC2A1B5
:10114B008038D2A1D2B4C2A4D2A5D282800AD2A1B5
:10115B00D2B4D2A4D2A5C282C2A2D2A3804CC2A1C5
:10116B00D2B4D2A4C2A5802CD2A1C2B4D2A4D2A58F
:10117B008022D2A1C2B4800CD2A1D2B4D2A480223C
:10118B00D2A1D2B4D2A4D2A5D282800AD2A1D2B497
:10119B00D2A4D2A5C282D2A2D2A3800EC2A1C2B4C3
:1011AB00C2A4C2A5C282C2A2C2A3BD010EC296D264
:1011BB0095E5316003D2A022C2A022BD0206D296D1
:1011CB00C295C2A02278FFE4F6D8FD9000007F0004
:1011DB007E04E4F0A3DFFCDEFA75815202122502D5
:1011EB00156FE493A3F8E493A34003F68001F20890
:1011FB00DFF48029E493A3F85407240CC8C333C449
:10120B00540F4420C8834004F456800146F6DFE4B3
:10121B00800B010204081020408090126AE47E01CA
:10122B009360BCA3FF543F30E509541FFEE493A326
:10123B0060010ECF54C025E060A840B8E493A3FA38
:10124B00E493A3F8E493A3C8C582C8CAC583CAF0C4
:10125B00A3C8C582C8CAC583CADFE9DEE780BE0161
:10126B003B58013C58013100014800013A00015143
:10127B000004400000000001520004440000000084
:10128B00013F00013D00044B000000000432000050
:10129B00000001490004360000000002210000029A
:1012AB00230000012900022A00000225000002276A
:1012BB000000014A00015000014F00013E00042CC8
:1012CB000000000001300042002703E84200440305
:1012DB00E84100410A41003E0201160002170000DE
:1012EB00C102C101C100420048000000E4F580903A
:1012FB00FF0004F090FF01F090FF02F090FF03F06D
:10130B0090FF04F090FF05F090FF06F090FF07F0C0
:10131B0090FF08F090FF09F090FF0AF090FF0BF0A0
:10132B0090FF0CF090FF0DF090FF0EF090FF0FF080
:10133B00E4F5A090FF1004F090FF11F090FF12F075
:10134B0090FF13F090FF14F090FF15F090FF16F044
:10135B0090FF17F0E4F5B090FF1C04F090FF1DF028
:10136B0022E47B3CFAF9F8AF43AE42AD41AC4012FC
:10137B000D218F3BE47B3CFAF9F8AF43AE42AD4114
:10138B00AC40120D21AF038F3CD3E53C6480949E9F
:10139B004004053B800ED3E53C648094804005758A
:1013AB003C058003E4F53CE522640145217005759D
:1013BB0031018018E522643245217004F531800C2F
:1013CB00E522646445217004F521F5220522E5220E
:1013DB007002052122900048E07002A3E06064E5F2
:1013EB002445237063F523752401E53F700E753F8B
:1013FB000175435AF542F541F540803DE5516401D5
:10140B006005E552B40119E4F53FF543F542F541AA
:10141B00F540F551F552F547F546F545F54480197C
:10142B00E4FFFEFDFCAB47AA46A945A844C3120D39
:10143B00B370061216C9121454E4F535F534F533AE
:10144B00F53222E4F523F52422E47B3CFAF9F8AFDC
:10145B0043AE42AD41AC40120D218F3BE47B3CFAD5
:10146B00F9F8AF43AE42AD41AC40120D21AF038F43
:10147B003CD3E53C6480949E4004053B800ED3E551
:10148B003C648094804005753C058003E4F53C7515
:10149B00310122E4FDFC901907E493FFEDC39F504B
:1014AB003A74017E00A805088005C333CE33CED82D
:1014BB00F9FFE5175EFEE5185F4E600F742F2DF5F3
:1014CB0082E43400F583ECF00C800D742F2DF58243
:1014DB00E43400F58374FFF00D80BB2205169019E0
:1014EB0007E493FFE516C39F4007D200D201E4F552
:1014FB0016E51845177003D2012274017E00A81659
:10150B00088005C333CE33CED8F9FFE5175EFEE571
:10151B00185F4E60C7E5169018A893F5D50000002C
:10152B00000022C0E0C083C082C0D0539FFDE54ABB
:10153B00D394324003753E007404253EF582E434A7
:10154B0000F583E54AF0754A00053EE53ED394214C
:10155B004003753E00755000754A00D0D0D082D044
:10156B0083D0E032E4F50BF50AF509F508121846BD
:10157B001215AC12187112181AD2AF120F0B3000D1
:10158B000B1217611217BC120012C2001213E012D9
:10159B0007557F047E0012002E1217E2120A0B80F1
:1015AB00DD90FF1174C1F090FF1CF090FF14F0A3BD
:1015BB00F090FF02F090FF12F0A3F090FF10F0906C
:1015CB00FF0EF090FF0DF0C2A1C2B4C2A4C2A5C21F
:1015DB0082C2A2C2A3C2A0D296D29522C0E0C0F012
:1015EB00C083C082C0D075D000C000C001C002C093
:1015FB0003C004C005C006C0071216FED007D006F4
:10160B00D005D004D003D002D001D000D0D0D082EE
:10161B00D083D0F0D0E032E4FF901905E493FEEFD5
:10162B00C39E502B75F002EFA42446F582E5F034EF
:10163B0000F583E0FCA3E0FD75F002EFA4243FF579
:10164B0082E5F03400F583ECF0A3EDF00F80CA22B5
:10165B00E47F1EFEFDFCAB43AA42A941A840D31276
:10166B000DB34019E543941EF543E5429400F54252
:10167B00E5419400F541E5409400F54022E47543C3
:10168B001EF542F541F54022E543241EF543E435B2
:10169B0042F542E43541F541E43540F540E47F68DD
:1016AB007E01FDFCAB43AA42A941A840D3120DB366
:1016BB00400BE4754368754201F541F54022E54363
:1016CB00241EF543E43542F542E43541F541E4355A
:1016DB0040F540E47F687E01FDFCAB43AA42A94183
:1016EB00A840D3120DB3400AE475431EF542F541F1
:1016FB00F5402253D4DF742F2516F582E43400F520
:10170B0083E075F002A4242BF582E5F03400F58319
:10171B00E5D7F0A3E5D6F012000630020320000651
:10172B0020010343D44022E4F519F51AE530701873
:10173B0090FF0374C2F090FF9C7403F075DE20756C
:10174B00DF1075DD9775300175DD977FC87E001250
:10175B00002E75DD0722E4FF75F002EFA4242BF5B4
:10176B0082E5F03400F583E0FCA3E0FD75F002EFB9
:10177B00A42446F582E5F03400F583ECF0A3EDF0FC
:10178B000FBF01D422E47B0AFAF9F8AF47AE46AD9E
:10179B0045AC44120D218F3BE47B0AFAF9F8AF47B5
:1017AB00AE46AD45AC44120D21AF038F3CE4F53191
:1017BB00221218A0E4F50C901907E493FFE50CC373
:1017CB009F5009AF0C12008E050C80EB9018BBE4F8
:1017DB00936003121897227D01AF3B1211077F0410
:1017EB007E0012002E7D02AF3C121107AF4812187B
:1017FB0085AF3A02188E90FF1074C1F090FFA07461
:10180B0020F075CC06759E0275CEFF75CD98229093
:10181B00FF1D7469F090FEB47404F090FEBA74026C
:10182B00F043D80122EF1FAA0670011E4A600BE499
:10183B00FDEDC3944750EE0D80F722758E1190FE8F
:10184B00917401F090FEAA74FFF090FEA474C2F0A4
:10185B0022C2A1C2B4C2A4C2A5C282C2A2C2A3C2E6
:10186B00A0D296D29522E490FE80F0F589758CFF7C
:10187B00758A7B43A80243881022EF6003D2922221
:10188B00C29222EF6003D29322C29322300105C28F
:10189B000143D44022D201E5D420E6FB2202030708
:1018AB00090A0B0C0D0E0F0200001400300A200663
:1018BB000100012C006402020050000A000A000A19
:1018CB00000A000A000A000A000A000A000A000ABD
:1018DB00000A000A000A000A000A00780078007863
:1018EB00007800780078007800780078007800782D
:0E18FB0000780078007800780078010F0A006D
:00000001FF
