:100000000211B502000902151680FE020DCA80FE1B
:1000100080FE2202000E753B58753C58E4F53122F3
:0A00200080FE1402001080FE80FE36
:10002B000200208F828E83E5821582AE83700215CB
:10003B00834E60097F147E0012181680EA2280FE20
:07004B0002002680FE80FE8A
:0300530002002880
:03005B0002004957
:0D00630002004E753B2B753C2BE4F531225D
:03007300021598DB
:0D007B000200508F993099FDC2997F00223C
:10008B000214838F09C20374017E00A80708800540
:10009B00C333CE33CED8F9F5118E1075F002E509C6
:1000AB00A424CBF582E5F03418F583E493FC7401BA
:1000BB0093FD900041E0FF7E00120C4E7C007D0A08
:1000CB00120C608E0A8F0B75F002E509A424ABF5B8
:1000DB0082E5F03418F583E493F50C740193F50D78
:1000EB00742F2509F582E43400F583E0F509F470EB
:1000FB000302075475F002E509A4243FF582E5F0ED
:10010B003400F583E0FEA3E0FF75F002E509A424BB
:10011B0046F582E5F03400F583E0FCA3E0C39FF5E0
:10012B000FEC9EF50E75F002E509A4242BF582E584
:10013B00F03400F583E0FCA3E0C39FFFEC9EAB071C
:10014B00FA9018A9E493FF70030202817E00AC0AB7
:10015B00AD0B120C4ED3EB9FEE6480F8EA648098E3
:10016B00500302027F75F002E509A4242DF582E508
:10017B00F03400F583E475F001120CB575F002E56F
:10018B0009A4242DF582E5F03400F583E0FEA3E00D
:10019B00FF9018A3E493FC740193FDD3EF9DEE9CA9
:1001AB00402C75F002E509A4243FF582E5F03400FC
:1001BB00F583E50E850FF0120CB575F002E509A479
:1001CB00242DF582E5F03400F583E4F0A3F07439C7
:1001DB002509F582E43400F583E004F07439250930
:1001EB00F582E43400F583E0FF9018A8E493FEEF6A
:1001FB00C39E401FE511F4FFE510F4FE900048E0AC
:10020B005EF0A3E05FF074392509F582E43400F564
:10021B0083E4F074262509F582E43400F583E4F0D9
:10022B0075F002E509A4243AF582E5F03400F58374
:10023B00E4F0A3F075F002E509A42442F582E5F0A1
:10024B003400F583E4F0A3F075F002E509A424294A
:10025B00F582E5F03400F583E4F0A3F075F002E5E8
:10026B0009A4243CF582E5F03400F583E4F0A3F017
:10027B00D2038002C203C3EB950BE50A6480F8EA54
:10028B0064809850030203BD3003030207549000AF
:10029B0027E0FEA3E0FF4E606A75F002E509A42497
:1002AB003AF582E5F03400F583E475F001120CB5F4
:1002BB0075F002E509A4243AF582E5F03400F583E4
:1002CB00E0FCA3E0C39FEC9E403975F002E509A466
:1002DB00243FF582E5F03400F583E50E850FF0122F
:1002EB000CB574262509F582E43400F583E4F0752A
:1002FB00F002E509A4243AF582E5F03400F583E435
:10030B00F0A3F09018ECE4937E00250BFFEE350A7A
:10031B00FEC3E50F9FEE6480F8E50E648098500DE8
:10032B00C3EB9FEE6480F8EA6480984053742625F3
:10033B0009F582E43400F583E004F074262509F511
:10034B0082E43400F583E0FF9018A7E493FEEFC33B
:10035B009E4019900048E04510F0A3E04511F07461
:10036B00262509F582E43400F583E4F075F002E507
:10037B0009A42442F582E5F03400F583E4F0A3F000
:10038B0074392509F582E43400F583E4F075F00245
:10039B00E509A4242DF582E5F03400F583E4F0A300
:1003AB00F075F002E509A42429F582E5F03400028A
:1003BB000643D3EB950DE50C6480F8EA6480985006
:1003CB00030204DE900044E0FEA3E0FF4E605D7587
:1003DB00F002E509A42442F582E5F03400F583E44C
:1003EB0075F001120CB575F002E509A42442F582F3
:1003FB00E5F03400F583E0FCA3E0D39FEC9E402CAA
:10040B0075F002E509A4243FF582E5F03400F5838D
:10041B00E50E850FF0120CB575F002E509A4244228
:10042B00F582E5F03400F583E4F0A3F09018ECE4EA
:10043B0093FFC3E50B9FFFE50A9400FEC3E50F9FF7
:10044B00EE6480F8E50E648098400CEB9FEE6480C0
:10045B00F8EA648098505974392509F582E4340020
:10046B00F583E004F074392509F582E43400F58353
:10047B00E0FF9018A8E493FEEFC39E401FE511F434
:10048B00FFE510F4FE900048E05EF0A3E05FF0742F
:10049B00392509F582E43400F583E4F075F002E5C3
:1004AB0009A4243AF582E5F03400F583E4F0A3F0D7
:1004BB0075F002E509A4242DF582E5F03400F583EF
:1004CB00E4F0A3F074262509F582E43400F583E407
:1004DB00020648C3E4950DFFE4950CFEC3EB9FEEBB
:1004EB006480F8EA648098500302065AD3EB950DAA
:1004FB00E50C6480F8EA648098400302065A75F0B4
:10050B0002E509A42429F582E5F03400F583EA8B92
:10051B00F0120CB59018AAE493F9FF75F002E509F7
:10052B00A42429F582E5F03400F583E0FCA3E0FD7B
:10053B00D39F7480F8EC648098401D90003EE0FFE0
:10054B0075F002E509A4243FF582E5F03400F5834C
:10055B00E48FF0120CB58044E9FFC3E49FFFE494F1
:10056B0000FEC3ED9FEE6480F8EC648098504175FB
:10057B00F002E509A4243FF582E5F03400F583C0D1
:10058B0083C082E0FEA3E0FF90003EE0FDC3EF9D41
:10059B00FFEE9400D082D083F0A3EFF075F002E56C
:1005AB0009A42429F582E5F03400F583E4F0A3F0E7
:1005BB0074392509F582E43400F583E004F07439CD
:1005CB002509F582E43400F583E0FF9018A8E49345
:1005DB00FEEFC39E401F74392509F582E43400F504
:1005EB0083E4F0E511F4FFE510F4FE900048E05EC3
:1005FB00F0A3E05FF075F002E509A4242DF582E588
:10060B00F03400F583E4F0A3F074262509F582E4B9
:10061B003400F583E4F075F002E509A4243AF58281
:10062B00E5F03400F583E4F0A3F075F002E509A4DE
:10063B002442F582E5F03400F583E4F0A3F075F085
:10064B0002E509A4243CF582E5F0340002074C9046
:10065B0018A5E493FE740193FF4E605D75F002E5FF
:10066B0009A4243CF582E5F03400F583E475F00130
:10067B00120CB575F002E509A4243CF582E5F034C3
:10068B0000F583E0FCA3E0C39FEC9E402C75F002C9
:10069B00E509A4243CF582E5F03400F583E4F0A3EE
:1006AB00F075F002E509A4243FF582E5F03400F57E
:1006BB0083E50E850FF0120CB574392509F582E42C
:1006CB003400F583E004F074392509F582E4340035
:1006DB00F583E0FF9018A8E493FEEFC39E401F74D0
:1006EB00392509F582E43400F583E4F0E511F4FFD4
:1006FB00E510F4FE900048E05EF0A3E05FF075F0CB
:10070B0002E509A4242DF582E5F03400F583E4F02D
:10071B00A3F074262509F582E43400F583E4F07523
:10072B00F002E509A4243AF582E5F03400F583E400
:10073B00F0A3F075F002E509A42442F582E5F0344C
:10074B0000F583E4F0A3F0C20322E53E7003020937
:10075B00F0E55070030209F0900006E0C3940F7FA0
:10076B000150027F00EF25E0FF900005E0C3940FDE
:10077B007E0150027E00EE4FFF900007E0C3940F06
:10078B007E0150027E00EE25E025E04FFF90000831
:10079B00E0C3940F7E0150027E00EE33333354F8E6
:1007AB004FFF900009E0C3940F7E0150027E00EED4
:1007BB00C454F04FFF90000AE0C3940F7E01500227
:1007CB007E00EEC43354E04FFF90000BE0C3940F58
:1007DB007E0150027E00EEC4333354C04FFF9000B5
:1007EB000CE0C3940F7E0150027E00EEC433333312
:1007FB0054804F900000F090000EE0C3940F7F01E7
:10080B0050027F00EF25E0FF90000DE0C3940F7EB8
:10081B000150027E00EE4FFF90000FE0C3940F7E5D
:10082B000150027E00EE25E025E04FFF900010E026
:10083B00C3940F7E0150027E00EE33333354F84FD6
:10084B00FF900011E0C3940F7E0150027E00EEC4B6
:10085B0054F04FFF900012E0C3940F7E0150027EC4
:10086B0000EEC43354E04FFF900013E0C3940F7EAF
:10087B000150027E00EEC4333354C04FFF9000147E
:10088B00E0C3940F7E0150027E00EEC43333335429
:10089B00804F900001F0900016E0C3940F7F015041
:1008AB00027F00EF25E0FF900015E0C3940F7E015F
:1008BB0050027E00EE4FFF900017E0C3940F7E01B5
:1008CB0050027E00EE25E025E04FFF900018E0C3BC
:1008DB00940F7E0150027E00EE33333354F84FFFFA
:1008EB00900019E0C3940F7E0150027E00EEC454B9
:1008FB00F04FFF90001AE0C3940F7E0150027E0070
:10090B00EEC43354E04FFF90001BE0C3940F7E0105
:10091B0050027E00EEC4333354C04FFF90001CE0F6
:10092B00C3940F7E0150027E00EEC43333335480E8
:10093B004F900002F090001EE0C3940F7F01500215
:10094B007F00EF25E0FF90001DE0C3940F7E015068
:10095B00027E00EE4FFF90001FE0C3940F7E01500C
:10096B00027E00EE25E025E04FFF900020E0C394CF
:10097B000F7E0150027E00EE33333354F84FFF905D
:10098B000021E0C3940F7E0150027E00EEC454F0B0
:10099B004FFF900022E0C3940F7E0150027E00EEC9
:1009AB00C43354E04FFF900023E0C3940F7E0150FB
:1009BB00027E00EEC4333354C04FFF900024E0C3DB
:1009CB00940F7E0150027E00EEC433333354804FBC
:1009DB00900003F0E4F53E12100BE4900000F0A33E
:1009EB00F0A3F0A3F022E529701790FF0974C1F072
:1009FB0090FF07F090FF03F090FF0AF0A3F075292A
:100A0B0001E53F7059E526640145257005753A01EE
:100A1B008018E526643C45257004F53A800CE526E4
:100A2B00647845257004F525F5260526E526700224
:100A3B000525E4F535F534F533F532F54812001696
:100A4B00C291C283C287E4F543F542F541F540F507
:100A5B0051F552F547F546F545F544020C02753A4A
:100A6B0001E47F2C7E01FDFCAB35AA34A933A832FF
:100A7B00C3120D994003020B5FE5352401F535E4F4
:100A8B003534F534E43533F533E43532F532C29190
:100A9B00C283C287E4F551F5527F01FEFDFCAB35F5
:100AAB00AA34A933A832C3120D99601CE47F64FEEB
:100ABB00FDFCA832C3120D99600EE47FC8FEFDFC4D
:100ACB00A832C3120D99701DE4FFFEFDFCAB43AAC7
:100ADB0042A941A840D3120D994005121439803810
:100AEB001217758033E47F32FEFDFCAB35AA34A9B7
:100AFB0033A832C3120D99601CE47F96FEFDFCA84F
:100B0B0032C3120D99600EE47FFAFEFDFCA832C3CE
:100B1B00120D997003120066E47F2C7E01FDFCAB75
:100B2B0035AA34A933A832C3120D996003020C0203
:100B3B00FFFEFDFCAB43AA42A941A840D3120D997D
:100B4B004009121439755101020C021217757552B6
:100B5B0001020C02E4FFFEFDFCAB43AA42A941A833
:100B6B0040D3120D994009D291D2831213518004B4
:100B7B00C291C283E549B40118755201E47547145B
:100B8B00F546F545F544F54975390AF538F537F568
:100B9B0036E4FFFEFDFCAB47AA46A945A844D31299
:100BAB000D99404EE4FFFEFDFCAB39AA38A937A8DE
:100BBB0036D3120D994031C287E528640145277061
:100BCB00057548018018E528643C45277004F548F5
:100BDB00800CE528647845277004F527F52805284F
:100BEB00E528700905278005D2877548011217750E
:100BFB008005C287E4F548E53D65516018E53DB4D5
:100C0B000110E551700C75395475383DF537F536D3
:100C1B00800085513DE4FFFEFDFCAB39AA38A937B6
:100C2B00A836D3120D99401AE53924FFF539E5386A
:100C3B0034FFF538E53734FFF537E53634FFF53655
:100C4B00D29122EF8DF0A4A8F0CF8CF0A428CE8DFA
:100C5B00F0A42EFE22BC000BBE0029EF8DF084FF0A
:100C6B00ADF022E4CCF875F008EF2FFFEE33FEEC7D
:100C7B0033FCEE9DEC984005FCEE9DFE0FD5F0E9A4
:100C8B00E4CEFD22EDF8F5F0EE8420D21CFEADF0A3
:100C9B0075F008EF2FFFED33FD4007985006D5F0A8
:100CAB00F222C398FD0FD5F0EA22C5F0F8A3E02895
:100CBB00F0C5F0F8E582158270021583E038F0225A
:100CCB0075F008758200EF2FFFEE33FECD33CDCCE0
:100CDB0033CCC58233C5829BED9AEC99E582984063
:100CEB000CF582EE9BFEED9AFDEC99FC0FD5F0D640
:100CFB00E4CEFBE4CDFAE4CCF9A88222B800C1B96A
:100D0B000059BA002DEC8BF084CFCECDFCE5F0CBA7
:100D1B00F97818EF2FFFEE33FEED33FDEC33FCEBE0
:100D2B0033FB10D703994004EB99FB0FD8E5E4F99B
:100D3B00FA227818EF2FFFEE33FEED33FDEC33FC88
:100D4B00C933C910D7059BE99A4007EC9BFCE99A7C
:100D5B00F90FD8E0E4C9FAE4CCFB2275F010EF2FC1
:100D6B00FFEE33FEED33FDCC33CCC833C810D707C1
:100D7B009BEC9AE899400AED9BFDEC9AFCE899F8FC
:100D8B000FD5F0DAE4CDFBE4CCFAE4C8F922EB9F03
:100D9B00F5F0EA9E42F0E99D42F0E89C45F02274A2
:100DAB0001FF3395E0FEFDFC080808E6CF2FF6188F
:100DBB00E6CE3EF618E6CD3DF618E6CC3CF622C064
:100DCB00E0C0F0C083C082C0D075D000C000C001AD
:100DDB00C002C003C004C005C006C007054AE54AEF
:100DEB00D394964006755001754A00782C120DAAC3
:100DFB007BC07A2779097800C3120D994003020E44
:100E0B00C1752F00752E00752D00752C00E53F6404
:100E1B00016003020EC1FFFEFDFCAB43AA42A941D8
:100E2B00A840120D994035E551B40130E54324FF3C
:100E3B00F543E54234FFF542E54134FFF541E5402A
:100E4B0034FFF540E4FFFEFDFCAB43AA42A941A8E9
:100E5B0040C3120D997005754901F551E4FFFEFD74
:100E6B00FCAB47AA46A945A844D3120D994047E5C8
:100E7B0052B40142E4FFFEFDFCAB39AA38A937A8F6
:100E8B0036C3120D99702FE54724FFF547E546341D
:100E9B00FFF546E54534FFF545E54434FFF544E4FD
:100EAB00FFFEFDFCAB47AA46A945A844C3120D990A
:100EBB007004F552F53FE54E2401F54EE4354DF542
:100ECB004DE4354CF54CE4354BF54BD007D006D003
:100EDB0005D004D003D002D001D000D0D0D082D026
:100EEB0083D0F0D0E03290FE94E04402F090FE40CC
:100EFB00E4F0A3F0A3F0A3F0A3F0A3F0A3F0A3F00E
:100F0B00A3F0A3F0A3F0A3F0A3F0A3F0A3F0A3F03E
:100F1B0090FE60F0A3F0A3F0A3F0A3F0A3F0A3F076
:100F2B00A3F090189D9390FE77F090189EE4939009
:100F3B00FE76F090189FE49390FE75F09018A0E465
:100F4B009390FE74F0901898E493F513740193F555
:100F5B00149018A2E4936061E4F5089018EDE49303
:100F6B00FFE508C39F505274017E00A80808800556
:100F7B00C333CE33CED8F9FFE5135EFEE5145F4ED7
:100F8B00603390FE72C083C082E0FCA3E0FDE508F5
:100F9B0090188E93FF74017E00A807088005C33359
:100FAB00CE33CED8F9FFEC4EFEED4FFFD082D0837F
:100FBB00EEF0A3EFF0050880A243D480D2BD12144B
:100FCB00CD9018EDE493F512121516D202C2001251
:100FDB00187D9018EEE493FFD39403500575080524
:100FEB008005EF2404F508E508600F3000F91217AF
:100FFB00461508C20012187D80ED1215D3C20222CD
:10100B00900000E060030210ECA3E0F46003021018
:10101B00EC7FB87E0BFDFCAB4EAA4DA94CA84BC385
:10102B00120D9950030210ECE4F54EF54DF54CF50D
:10103B004B900002E0702BE53F700E753F0175433E
:10104B005AF542F541F5408054E4F53FF543F5423E
:10105B00F541F540F551F552F547F546F545F544A3
:10106B00803BE53F64017035E5527031FFFEFDFCBE
:10107B00AB47AA46A945A844C3120D99701F90000F
:10108B0002E0B40805121644800A900002E0B40A8C
:10109B000C12160CE4F535F534F533F532900002ED
:1010AB00E06402703CE5527021753F01F5527547C3
:1010BB0014F546F545F544F543F542F541F540F594
:1010CB0051F535F534F533F53222E4F53FF543F5BB
:1010DB0042F541F540F551F552F547F546F545F525
:1010EB004422D296D295EFB40A00400302118D90A0
:1010FB001101F828287302111F02112F021133025C
:10110B00113F02114F0211590211630211690211B1
:10111B007102117DD2A1D2B4D2A4D2A5D282D2A215
:10112B00C2A3806CC2A18038D2A1D2B4C2A4D2A572
:10113B00D282800AD2A1D2B4D2A4D2A5C282C2A238
:10114B00D2A3804CC2A1D2B4D2A4C2A5802CD2A16E
:10115B00C2B4D2A4D2A58022D2A1C2B4800CD2A197
:10116B00D2B4D2A48022D2A1D2B4D2A4D2A5D2829C
:10117B00800AD2A1D2B4D2A4D2A5C282D2A2D2A3C7
:10118B00800EC2A1C2B4C2A4C2A5C282C2A2C2A313
:10119B00BD0106C296D2958007BD0204D296C295B8
:1011AB00E5316003D2A022C2A02278FFE4F6D8FD7D
:1011BB009000007F007E04E4F0A3DFFCDEFA758173
:1011CB005202120A0216AFE493A3F8E493A340036E
:1011DB00F68001F208DFF48029E493A3F854072486
:1011EB000CC8C333C4540F4420C8834004F4568046
:1011FB000146F6DFE4800B010204081020408090CA
:10120B00124FE47E019360BCA3FF543F30E50954B9
:10121B001FFEE493A360010ECF54C025E060A840ED
:10122B00B8E493A3FAE493A3F8E493A3C8C582C8E4
:10123B00CAC583CAF0A3C8C582C8CAC583CADFE9B9
:10124B00DEE780BE013B58013C58013100014800EC
:10125B00013A00015100044000000000015200045B
:10126B004400000000013F00013D00044B00000062
:10127B0000043200000000014900043600000000A9
:10128B000221000002230000012900022A000002B3
:10129B0025000002270000014A00015000014F0009
:1012AB00013E00042C000000000130004200270327
:1012BB00E842004403E84100410A41003E020112AA
:1012CB000002130000C102C101C10042004800002E
:1012DB0000E4F58090FF0004F090FF01F090FF0216
:1012EB00F090FF03F090FF04F090FF05F090FF06E5
:1012FB00F090FF07F090FF08F090FF09F090FF0AC5
:10130B00F090FF0BF090FF0CF090FF0DF090FF0EA4
:10131B00F090FF0FF0E4F5A090FF1004F090FF1198
:10132B00F090FF12F090FF13F090FF14F090FF1568
:10133B00F090FF16F090FF17F0E4F5B090FF1C044F
:10134B00F090FF1DF022E47B3CFAF9F8AF43AE427C
:10135B00AD41AC40120D078F3BE47B3CFAF9F8AF83
:10136B0043AE42AD41AC40120D07AF038F3CD3E50A
:10137B003C6480949E4004053B800ED3E53C648026
:10138B0094804005753C058003E4F53CE52264013F
:10139B00452170057531018018E5226432452170B5
:1013AB0004F531800CE522646445217004F521F5C8
:1013BB00220522E5227002052122900048E07002EE
:1013CB00A3E06064E52445237063F523752401E5F0
:1013DB003F700E753F0175435AF542F541F540805C
:1013EB003DE55164016005E552B40119E4F53FF5A3
:1013FB0043F542F541F540F551F552F547F546F504
:10140B0045F5448019E4FFFEFDFCAB47AA46A94510
:10141B00A844C3120D99700612167A121439E4F50A
:10142B0035F534F533F53222E4F523F52422E47B4C
:10143B003CFAF9F8AF43AE42AD41AC40120D078F09
:10144B003BE47B3CFAF9F8AF43AE42AD41AC401202
:10145B000D07AF038F3CD3E53C6480949E4004059D
:10146B003B800ED3E53C648094804005753C058041
:10147B0003E4F53C75310122C0E0C083C082C0D0CB
:10148B00539FFDE54F602CE54AD394694003753EAD
:10149B00007404253EF582E43400F583E54AF075CB
:1014AB004A00053EE53ED394214003753E0075503E
:1014BB00008006754F01754A00D0D0D082D083D002
:1014CB00E032E4FDFC9018EDE493FFEDC39F503A3E
:1014DB0074017E00A805088005C333CE33CED8F93E
:1014EB00FFE5135EFEE5145F4E600F742F2DF58242
:1014FB00E43400F583ECF00C800D742F2DF582E4B1
:10150B003400F58374FFF00D80BB2205129018EDAB
:10151B00E493FFE512C39F4007D200D201E4F5121A
:10152B00E51445137003D2012274017E00A8120842
:10153B008005C333CE33CED8F9FFE5135EFEE51439
:10154B005F4E60C7E51290188E93F5D50000000032
:10155B00002290FF1174C1F090FF1CF090FF14F06B
:10156B00A3F090FF02F090FF12F0A3F090FF10F0A9
:10157B0090FF0EF090FF0DF0C2A1C2B4C2A4C2A5A1
:10158B00C282C2A2C2A3C2A0D296D29522C0E0C090
:10159B00F0C083C082C0D075D000C000C001C002B3
:1015AB00C003C004C005C006C0071216E3D007D0A5
:1015BB0006D005D004D003D002D001D000D0D0D0BB
:1015CB0082D083D0F0D0E032E4FF9018EBE493FEAE
:1015DB00EFC39E502B75F002EFA42446F582E5F085
:1015EB003400F583E0FCA3E0FD75F002EFA4243F8B
:1015FB00F582E5F03400F583ECF0A3EDF00F80CA33
:10160B0022E47F1EFEFDFCAB43AA42A941A840D3B6
:10161B00120D994019E543941EF543E5429400F5EC
:10162B0042E5419400F541E5409400F54022E47514
:10163B00431EF542F541F54022E543241EF543E4F4
:10164B003542F542E43541F541E43540F540E47F60
:10165B00687E01FDFCAB43AA42A941A840D3120D01
:10166B0099400BE4754368754201F541F54022E55D
:10167B0043241EF543E43542F542E43541F541E49C
:10168B003540F540E47F687E01FDFCAB43AA42A9DF
:10169B0041A840D3120D99400AE475431EF542F55B
:1016AB0041F5402212182C12155D1218571217FF14
:1016BB00D2AF120EF130000B1217461217A1120007
:1016CB0012C2001213C51207557F047E0012002EA2
:1016DB001217C71209F180DD53D4DF742F2512F5D1
:1016EB0082E43400F583E075F002A4242BF582E547
:1016FB00F03400F583E5D7F0A3E5D6F01200063001
:10170B00020320000620010343D44022E4F515F523
:10171B0016E530701890FF0374C2F090FF9C7403B1
:10172B00F075DE2075DF1075DD9775300175DD976F
:10173B007FC87E0012002E75DD0722E4FF75F002D4
:10174B00EFA4242BF582E5F03400F583E0FCA3E055
:10175B00FD75F002EFA42446F582E5F03400F58325
:10176B00ECF0A3EDF00FBF01D422E47B0AFAF9F8F9
:10177B00AF47AE46AD45AC44120D078F3BE47B0A39
:10178B00FAF9F8AF47AE46AD45AC44120D07AF03BF
:10179B008F3CE4F53122121886E4F5089018EDE43D
:1017AB0093FFE508C39F5009AF0812008E05088010
:1017BB00EB9018A1E493600312187D227D01AF3BDF
:1017CB001210ED7F047E0012002E7D02AF3C121032
:1017DB00EDAF4812186BAF3A02187490FF1074C13A
:1017EB00F090FFA07420F075CC06759E0275CEFFAD
:1017FB0075CD982290FF1D7469F090FEB4E04404FF
:10180B00F090FEBA7402F043D80122EF1FAA0670C3
:10181B00011E4A600BE4FDEDC3944750EE0D80F7BB
:10182B0022758E1190FE917401F090FEAA74FFF058
:10183B0090FEA474C2F022C2A1C2B4C2A4C2A5C2BB
:10184B0082C2A2C2A3C2A0D296D29522E490FE80FD
:10185B00F0F589758CFF758A7B43A80243881022AB
:10186B00EF6003D29222C29222EF6003D29322C284
:10187B009322300105C20143D44022D201E5D4208A
:10188B00E6FB22020307090A0B0C0D0E0F020000E8
:10189B001400300A20060100012C006402020050E3
:1018AB00000A000A000A000A000A000A000A000ADD
:1018BB00000A000A000A000A000A000A000A000ACD
:1018CB00007800780078007800780078007800784D
:1018DB00007800780078007800780078007800783D
:0418EB00010F0A00DF
:00000001FF
