:1000000002120F0200090215D580FE020E0580FEC5
:1000100080FE2202000E753B58753C58E4F53122F3
:0A00200080FE1402001080FE80FE36
:10002B000200208F828E83E5821582AE83700215CB
:10003B00834E60097F147E001218A180EA2280FE95
:07004B0002002680FE80FE8A
:0300530002002880
:03005B0002004957
:0D00630002004E753B2B753C2BE4F531225D
:030073000216571B
:0D007B000200508F993099FDC2997F00223C
:10008B000215428F0DC20374017E00A8070880057C
:10009B00C333CE33CED8F9F5158E1475F002E50DBA
:1000AB00A42456F582E5F03419F583E493FC74012E
:1000BB0093FD900041E0FF7E00120C897C007D0ACD
:1000CB00120C9B8E0E8F0F75F002E50DA42436F5E6
:1000DB0082E5F03419F583E493F510740193F5116F
:1000EB00742F250DF582E43400F583E0F50DF470E3
:1000FB000302075475F002E50DA4243FF582E5F0E9
:10010B003400F583E0FEA3E0FF75F002E50DA424B7
:10011B0046F582E5F03400F583E0FCA3E0C39FF5E0
:10012B0013EC9EF51275F002E50DA4242BF582E578
:10013B00F03400F583E0FCA3E0C39FFFEC9EAB071C
:10014B00FA901934E493FF70030202817E00AC0E27
:10015B00AD0F120C89D3EB9FEE6480F8EA648098A4
:10016B00500302027F75F002E50DA4242DF582E504
:10017B00F03400F583E475F001120CF075F002E534
:10018B000DA4242DF582E5F03400F583E0FEA3E009
:10019B00FF90192EE493FC740193FDD3EF9DEE9C1D
:1001AB00402C75F002E50DA4243FF582E5F03400F8
:1001BB00F583E5128513F0120CF075F002E50DA432
:1001CB00242DF582E5F03400F583E4F0A3F07439C7
:1001DB00250DF582E43400F583E004F07439250D28
:1001EB00F582E43400F583E0FF901933E493FEEFDE
:1001FB00C39E401FE515F4FFE514F4FE900048E0A4
:10020B005EF0A3E05FF07439250DF582E43400F560
:10021B0083E4F07426250DF582E43400F583E4F0D5
:10022B0075F002E50DA4243AF582E5F03400F58370
:10023B00E4F0A3F075F002E50DA42442F582E5F09D
:10024B003400F583E4F0A3F075F002E50DA4242946
:10025B00F582E5F03400F583E4F0A3F075F002E5E8
:10026B000DA4243CF582E5F03400F583E4F0A3F013
:10027B00D2038002C203C3EB950FE50E6480F8EA4C
:10028B0064809850030203BD3003030207549000AF
:10029B0027E0FEA3E0FF4E606A75F002E50DA42493
:1002AB003AF582E5F03400F583E475F001120CF0B9
:1002BB0075F002E50DA4243AF582E5F03400F583E0
:1002CB00E0FCA3E0C39FEC9E403975F002E50DA462
:1002DB00243FF582E5F03400F583E5128513F01227
:1002EB000CF07426250DF582E43400F583E4F075EB
:1002FB00F002E50DA4243AF582E5F03400F583E431
:10030B00F0A3F0901977E4937E00250FFFEE350EE6
:10031B00FEC3E5139FEE6480F8E512648098500DE0
:10032B00C3EB9FEE6480F8EA6480984053742625F3
:10033B000DF582E43400F583E004F07426250DF509
:10034B0082E43400F583E0FF901932E493FEEFC3AF
:10035B009E4019900048E04514F0A3E04515F07459
:10036B0026250DF582E43400F583E4F075F002E503
:10037B000DA42442F582E5F03400F583E4F0A3F0FC
:10038B007439250DF582E43400F583E4F075F00241
:10039B00E50DA4242DF582E5F03400F583E4F0A3FC
:1003AB00F075F002E50DA42429F582E5F034000286
:1003BB000643D3EB9511E5106480F8EA64809850FE
:1003CB00030204DE900044E0FEA3E0FF4E605D7587
:1003DB00F002E50DA42442F582E5F03400F583E448
:1003EB0075F001120CF075F002E50DA42442F582B4
:1003FB00E5F03400F583E0FCA3E0D39FEC9E402CAA
:10040B0075F002E50DA4243FF582E5F03400F58389
:10041B00E5128513F0120CF075F002E50DA42442E1
:10042B00F582E5F03400F583E4F0A3F0901977E45E
:10043B0093FFC3E50F9FFFE50E9400FEC3E5139FEB
:10044B00EE6480F8E512648098400CEB9FEE6480BC
:10045B00F8EA64809850597439250DF582E434001C
:10046B00F583E004F07439250DF582E43400F5834F
:10047B00E0FF901933E493FEEFC39E401FE515F4A4
:10048B00FFE514F4FE900048E05EF0A3E05FF0742B
:10049B0039250DF582E43400F583E4F075F002E5BF
:1004AB000DA4243AF582E5F03400F583E4F0A3F0D3
:1004BB0075F002E50DA4242DF582E5F03400F583EB
:1004CB00E4F0A3F07426250DF582E43400F583E403
:1004DB00020648C3E49511FFE49510FEC3EB9FEEB3
:1004EB006480F8EA648098500302065AD3EB9511A6
:1004FB00E5106480F8EA648098400302065A75F0B0
:10050B0002E50DA42429F582E5F03400F583EA8B8E
:10051B00F0120CF0901935E493F9FF75F002E50D2C
:10052B00A42429F582E5F03400F583E0FCA3E0FD7B
:10053B00D39F7480F8EC648098401D90003EE0FFE0
:10054B0075F002E50DA4243FF582E5F03400F58348
:10055B00E48FF0120CF08044E9FFC3E49FFFE494B6
:10056B0000FEC3ED9FEE6480F8EC648098504175FB
:10057B00F002E50DA4243FF582E5F03400F583C0CD
:10058B0083C082E0FEA3E0FF90003EE0FDC3EF9D41
:10059B00FFEE9400D082D083F0A3EFF075F002E56C
:1005AB000DA42429F582E5F03400F583E4F0A3F0E3
:1005BB007439250DF582E43400F583E004F07439C9
:1005CB00250DF582E43400F583E0FF901933E493B5
:1005DB00FEEFC39E401F7439250DF582E43400F500
:1005EB0083E4F0E515F4FFE514F4FE900048E05EBB
:1005FB00F0A3E05FF075F002E50DA4242DF582E584
:10060B00F03400F583E4F0A3F07426250DF582E4B5
:10061B003400F583E4F075F002E50DA4243AF5827D
:10062B00E5F03400F583E4F0A3F075F002E50DA4DA
:10063B002442F582E5F03400F583E4F0A3F075F085
:10064B0002E50DA4243CF582E5F0340002074C9042
:10065B001930E493FE740193FF4E605D75F002E573
:10066B000DA4243CF582E5F03400F583E475F0012C
:10067B00120CF075F002E50DA4243CF582E5F03484
:10068B0000F583E0FCA3E0C39FEC9E402C75F002C9
:10069B00E50DA4243CF582E5F03400F583E4F0A3EA
:1006AB00F075F002E50DA4243FF582E5F03400F57A
:1006BB0083E5128513F0120CF07439250DF582E4E5
:1006CB003400F583E004F07439250DF582E4340031
:1006DB00F583E0FF901933E493FEEFC39E401F7444
:1006EB0039250DF582E43400F583E4F0E515F4FFCC
:1006FB00E514F4FE900048E05EF0A3E05FF075F0C7
:10070B0002E50DA4242DF582E5F03400F583E4F029
:10071B00A3F07426250DF582E43400F583E4F0751F
:10072B00F002E50DA4243AF582E5F03400F583E4FC
:10073B00F0A3F075F002E50DA42442F582E5F03448
:10074B0000F583E4F0A3F0C20322E53E7003020A36
:10075B002BE5547003020A2B900006E0C3940F7F25
:10076B000150027F00EF25E0FF900005E0C3940FDE
:10077B007E0150027E00EE4FFF900007E0C3940F06
:10078B007E0150027E00EE25E025E04FFF90000831
:10079B00E0C3940F7E0150027E00EE33333354F8E6
:1007AB004FFF900009E0C3940F7E0150027E00EED4
:1007BB00C454F04FFF90000AE0C3940F7E01500227
:1007CB007E00EEC43354E04FFF90000BE0C3940F58
:1007DB007E0150027E00EEC4333354C04FFF9000B5
:1007EB000CE0C3940F7E0150027E00EEC433333312
:1007FB0054804F900000F090000EE0C3940F7F01E7
:10080B0050027F00EF25E0FF90000DE0C3940F7EB8
:10081B000150027E00EE4FFF90000FE0C3940F7E5D
:10082B000150027E00EE25E025E04FFF900010E026
:10083B00C3940F7E0150027E00EE33333354F84FD6
:10084B00FF900011E0C3940F7E0150027E00EEC4B6
:10085B0054F04FFF900012E0C3940F7E0150027EC4
:10086B0000EEC43354E04FFF900013E0C3940F7EAF
:10087B000150027E00EEC4333354C04FFF9000147E
:10088B00E0C3940F7E0150027E00EEC43333335429
:10089B00804F900001F0900016E0C3940F7F015041
:1008AB00027F00EF25E0FF900015E0C3940F7E015F
:1008BB0050027E00EE4FFF900017E0C3940F7E01B5
:1008CB0050027E00EE25E025E04FFF900018E0C3BC
:1008DB00940F7E0150027E00EE33333354F84FFFFA
:1008EB00900019E0C3940F7E0150027E00EEC454B9
:1008FB00F04FFF90001AE0C3940F7E0150027E0070
:10090B00EEC43354E04FFF90001BE0C3940F7E0105
:10091B0050027E00EEC4333354C04FFF90001CE0F6
:10092B00C3940F7E0150027E00EEC43333335480E8
:10093B004F900002F090001EE0C3940F7F01500215
:10094B007F00EF25E0FF90001DE0C3940F7E015068
:10095B00027E00EE4FFF90001FE0C3940F7E01500C
:10096B00027E00EE25E025E04FFF900020E0C394CF
:10097B000F7E0150027E00EE33333354F84FFF905D
:10098B000021E0C3940F7E0150027E00EEC454F0B0
:10099B004FFF900022E0C3940F7E0150027E00EEC9
:1009AB00C43354E04FFF900023E0C3940F7E0150FB
:1009BB00027E00EEC4333354C04FFF900024E0C3DB
:1009CB00940F7E0150027E00EEC433333354804FBC
:1009DB00900003F0E4F53E900000E07035A3E0B426
:1009EB00FF30A3E0B4022BE54B2401F54BE4354A71
:1009FB00F54AE43549F549E43548F548E47F08FE06
:100A0B00FDFCAB4BAA4AA949A848D3120DD440050B
:100A1B008000121046E4900000F0A3F0A3F0A3F0C6
:100A2B0022E529701790FF0974C1F090FF07F09031
:100A3B00FF03F090FF0AF0A3F0752901E53F705911
:100A4B00E526640145257005753A018018E5266495
:100A5B003C45257004F53A800CE5266478452570F5
:100A6B0004F525F5260526E52670020525E4F53562
:100A7B00F534F533F532F54C120016C291C283C230
:100A8B0087E4F543F542F541F540F555F556F54745
:100A9B00F546F545F544020C3D753A01E47F2C7E95
:100AAB0001FDFCAB35AA34A933A832C3120DD440D7
:100ABB0003020B9AE5352401F535E43534F534E4BE
:100ACB003533F533E43532F532C291C283C287E454
:100ADB00F555F5567F01FEFDFCAB35AA34A933A8BD
:100AEB0032C3120DD4601CE47F64FEFDFCA832C33C
:100AFB00120DD4600EE47FC8FEFDFCA832C3120DAC
:100B0B00D4701DE4FFFEFDFCAB43AA42A941A840F3
:100B1B00D3120DD440051214F8803812180080330C
:100B2B00E47F32FEFDFCAB35AA34A933A832C312E5
:100B3B000DD4601CE47F96FEFDFCA832C3120DD4CD
:100B4B00600EE47FFAFEFDFCA832C3120DD47003D5
:100B5B00120066E47F2C7E01FDFCAB35AA34A93371
:100B6B00A832C3120DD46003020C3DFFFEFDFCAB9B
:100B7B0043AA42A941A840D3120DD440091214F83C
:100B8B00755501020C3D121800755601020C3DE41F
:100B9B00FFFEFDFCAB43AA42A941A840D3120DD4E2
:100BAB004009D291D2831213B18004C291C283E562
:100BBB004DB40118755601E4754714F546F545F526
:100BCB0044F54D75390AF538F537F536E4FFFEFD7A
:100BDB00FCAB47AA46A945A844D3120DD4404EE41A
:100BEB00FFFEFDFCAB39AA38A937A836D3120DD4BA
:100BFB004031C287E528640145277005754C01809B
:100C0B0018E528643C45277004F54C800CE52864F6
:100C1B007845277004F527F5280528E52870090580
:100C2B00278005D287754C011218008005C287E416
:100C3B00F54CE53D65556018E53DB40110E5557083
:100C4B000C75395475383DF537F536800085553DB3
:100C5B00E4FFFEFDFCAB39AA38A937A836D3120D39
:100C6B00D4401AE53924FFF539E53834FFF538E57A
:100C7B003734FFF537E53634FFF536D29122EF8D59
:100C8B00F0A4A8F0CF8CF0A428CE8DF0A42EFE22D9
:100C9B00BC000BBE0029EF8DF084FFADF022E4CC3D
:100CAB00F875F008EF2FFFEE33FEEC33FCEE9DEC06
:100CBB00984005FCEE9DFE0FD5F0E9E4CEFD22ED4C
:100CCB00F8F5F0EE8420D21CFEADF075F008EF2F96
:100CDB00FFED33FD4007985006D5F0F222C398FD87
:100CEB000FD5F0EA22C5F0F8A3E028F0C5F0F8E53F
:100CFB0082158270021583E038F02275F008758238
:100D0B0000EF2FFFEE33FECD33CDCC33CCC582338A
:100D1B00C5829BED9AEC99E58298400CF582EE9B8F
:100D2B00FEED9AFDEC99FC0FD5F0D6E4CEFBE4CDAD
:100D3B00FAE4CCF9A88222B800C1B90059BA002D47
:100D4B00EC8BF084CFCECDFCE5F0CBF97818EF2F00
:100D5B00FFEE33FEED33FDEC33FCEB33FB10D7032F
:100D6B00994004EB99FB0FD8E5E4F9FA227818EFD8
:100D7B002FFFEE33FEED33FDEC33FCC933C910D737
:100D8B00059BE99A4007EC9BFCE99AF90FD8E0E444
:100D9B00C9FAE4CCFB2275F010EF2FFFEE33FEED1A
:100DAB0033FDCC33CCC833C810D7079BEC9AE899EA
:100DBB00400AED9BFDEC9AFCE899F80FD5F0DAE4CC
:100DCB00CDFBE4CCFAE4C8F922EB9FF5F0EA9E42A6
:100DDB00F0E99D42F0E89C45F0227401FF3395E069
:100DEB00FEFDFC080808E6CF2FF618E6CE3EF618F7
:100DFB00E6CD3DF618E6CC3CF622C0E0C0F0C08351
:100E0B00C082C0D075D000C000C001C002C003C0FA
:100E1B0004C005C006C007054EE54ED394964006A8
:100E2B00755401754E00782C120DE57BC07A27792D
:100E3B00097800C3120DD44003020EFC752F007508
:100E4B002E00752D00752C00E53F64016003020E2A
:100E5B00FCFFFEFDFCAB43AA42A941A840120DD4F6
:100E6B004035E555B40130E54324FFF543E5423405
:100E7B00FFF542E54134FFF541E54034FFF540E431
:100E8B00FFFEFDFCAB43AA42A941A840C3120DD4FF
:100E9B007005754D01F555E4FFFEFDFCAB47AA4609
:100EAB00A945A844D3120DD44047E556B40142E4FA
:100EBB00FFFEFDFCAB39AA38A937A836C3120DD4F7
:100ECB00702FE54724FFF547E54634FFF546E5452A
:100EDB0034FFF545E54434FFF544E4FFFEFDFCAB80
:100EEB0047AA46A945A844C3120DD47004F556F57C
:100EFB003FE5522401F552E43551F551E43550F5F7
:100F0B0050E4354FF54FD007D006D005D004D003B1
:100F1B00D002D001D000D0D0D082D083D0F0D0E09E
:100F2B003290FE94E04402F090FE40E4F0A3F0A374
:100F3B00F0A3F0A3F0A3F0A3F0A3F0A3F0A3F0A30E
:100F4B00F0A3F0A3F0A3F0A3F0A3F090FE60F0A346
:100F5B00F0A3F0A3F0A3F0A3F0A3F0A3F090192853
:100F6B009390FE77F0901929E49390FE76F0901908
:100F7B002AE49390FE75F090192BE49390FE74F095
:100F8B00901923E493F517740193F51890192DE438
:100F9B00936061E4F50C901978E493FFE50CC39F23
:100FAB00505274017E00A80C088005C333CE33CE9B
:100FBB00D8F9FFE5175EFEE5185F4E603390FE72C1
:100FCB00C083C082E0FCA3E0FDE50C90191993FFF0
:100FDB0074017E00A807088005C333CE33CED8F941
:100FEB00FFEC4EFEED4FFFD082D083EEF0A3EFF07F
:100FFB00050C80A243D480D2BD12158C901978E4D5
:10100B0093F5161215D5D202C20012190890197950
:10101B00E493FFD394035005750C058005EF24046E
:10102B00F50CE50C600F3000F91217D1150CC2004E
:10103B0012190880ED121692C20222900000E06095
:10104B0003021146A3E0F460030211467FB87E0B46
:10105B00FDFCAB52AA51A950A84FC3120DD450039B
:10106B00021146900002E0B40218E47F507EC3FDEB
:10107B00FCAB52AA51A950A84FC3120DD450030276
:10108B001146E4F552F551F550F54F900002E07022
:10109B002BE53F700E753F0175435AF542F541F54F
:1010AB00408054E4F53FF543F542F541F540F555E5
:1010BB00F556F547F546F545F544803BE53F6401AC
:1010CB007035E5567031FFFEFDFCAB47AA46A945CE
:1010DB00A844C3120DD4701F900002E0B40805128F
:1010EB001703800A900002E0B40A0C1216CBE4F549
:1010FB0035F534F533F532900002E06402703CE5CF
:10110B00567021753F01F556754714F546F545F5B3
:10111B0044F543F542F541F540F555F535F534F514
:10112B0033F53222E4F53FF543F542F541F540F551
:10113B0055F556F547F546F545F54422D296D29529
:10114B00EFB40A0040030211E790115BF8282873F3
:10115B0002117902118902118D0211990211A90252
:10116B0011B30211BD0211C30211CB0211D7D2A1CF
:10117B00D2B4D2A4D2A5D282D2A2C2A3806CC2A175
:10118B008038D2A1D2B4C2A4D2A5D282800AD2A175
:10119B00D2B4D2A4D2A5C282C2A2D2A3804CC2A185
:1011AB00D2B4D2A4C2A5802CD2A1C2B4D2A4D2A54F
:1011BB008022D2A1C2B4800CD2A1D2B4D2A48022FC
:1011CB00D2A1D2B4D2A4D2A5D282800AD2A1D2B457
:1011DB00D2A4D2A5C282D2A2D2A3800EC2A1C2B483
:1011EB00C2A4C2A5C282C2A2C2A3BD0106C296D22C
:1011FB00958007BD0204D296C295E5316003D2A05B
:10120B0022C2A02278FFE4F6D8FD9000007F007E7A
:10121B0004E4F0A3DFFCDEFA7581560212640214BB
:10122B0099E493A3F8E493A34003F68001F208DF5B
:10123B00F48029E493A3F85407240CC8C333C45493
:10124B000F4420C8834004F456800146F6DFE48047
:10125B000B01020408102040809012A9E47E019338
:10126B0060BCA3FF543F30E509541FFEE493A36019
:10127B00010ECF54C025E060A840B8E493A3FAE474
:10128B0093A3F8E493A3C8C582C8CAC583CAF0A3C5
:10129B00C8C582C8CAC583CADFE9DEE780BE013B89
:1012AB0058013C58013100014C00013A0001550036
:1012BB00044000000000015600044400000000013F
:1012CB003F00013D00044F0000000004320000000D
:1012DB0000014D000436000000000448000000002F
:1012EB000221000002230000012900022A00000253
:1012FB0025000002270000014E000154000153009D
:10130B00013E00042C0000000001300042002703C6
:10131B00E842004403E84100410A41003E02011645
:10132B000002170000C102C101C1004200480000C9
:10133B0000E4F58090FF0004F090FF01F090FF02B5
:10134B00F090FF03F090FF04F090FF05F090FF0684
:10135B00F090FF07F090FF08F090FF09F090FF0A64
:10136B00F090FF0BF090FF0CF090FF0DF090FF0E44
:10137B00F090FF0FF0E4F5A090FF1004F090FF1138
:10138B00F090FF12F090FF13F090FF14F090FF1508
:10139B00F090FF16F090FF17F0E4F5B090FF1C04EF
:1013AB00F090FF1DF022E47B3CFAF9F8AF43AE421C
:1013BB00AD41AC40120D428F3BE47B3CFAF9F8AFE8
:1013CB0043AE42AD41AC40120D42AF038F3CD3E56F
:1013DB003C6480949E4004053B800ED3E53C6480C6
:1013EB0094804005753C058003E4F53CE5226401DF
:1013FB00452170057531018018E522643245217055
:10140B0004F531800CE522646445217004F521F567
:10141B00220522E5227002052122900048E070028D
:10142B00A3E06064E52445237063F523752401E58F
:10143B003F700E753F0175435AF542F541F54080FB
:10144B003DE55564016005E556B40119E4F53FF53A
:10145B0043F542F541F540F555F556F547F546F59B
:10146B0045F5448019E4FFFEFDFCAB47AA46A945B0
:10147B00A844C3120DD470061217391214F8E4F5F0
:10148B0035F534F533F53222E4F523F52422E4F572
:10149B000BF50AF509F5081218B712161C1218E20B
:1014AB0012188AD2AF120F2C30000B1217D1121850
:1014BB002C120012C2001214251207557F047E0055
:1014CB0012002E121852120A2C7808120DE5E47B2A
:1014DB00C8FAF9F8C3120DD450CEE4F50BF50AF5A2
:1014EB0009F508F54BF54AF549F54880BBE47B3C1B
:1014FB00FAF9F8AF43AE42AD41AC40120D428F3B0F
:10150B00E47B3CFAF9F8AF43AE42AD41AC40120D6F
:10151B0042AF038F3CD3E53C6480949E4004053B73
:10152B00800ED3E53C648094804005753C058003B8
:10153B00E4F53C75310122C0E0C083C082C0D053BA
:10154B009FFDE553602CE54ED394694003753E0037
:10155B007404253EF582E43400F583E54EF0754EB8
:10156B0000053EE53ED394214003753E00755400C3
:10157B008006755301754E00D0D0D082D083D0E059
:10158B0032E4FDFC901978E493FFEDC39F503A745D
:10159B00017E00A805088005C333CE33CED8F9FFF2
:1015AB00E5175EFEE5185F4E600F742F2DF582E494
:1015BB003400F583ECF00C800D742F2DF582E434A0
:1015CB0000F58374FFF00D80BB220516901978E4AB
:1015DB0093FFE516C39F4007D200D201E4F516E551
:1015EB001845177003D2012274017E00A8160880DB
:1015FB0005C333CE33CED8F9FFE5175EFEE5185F92
:10160B004E60C7E51690191993F5D5000000000040
:10161B002290FF1174C1F090FF1CF090FF14F0A307
:10162B00F090FF02F090FF12F0A3F090FF10F090FB
:10163B00FF0EF090FF0DF0C2A1C2B4C2A4C2A5C2AE
:10164B0082C2A2C2A3C2A0D296D29522C0E0C0F0A1
:10165B00C083C082C0D075D000C000C001C002C022
:10166B0003C004C005C006C00712176ED007D00612
:10167B00D005D004D003D002D001D000D0D0D0827E
:10168B00D083D0F0D0E032E4FF901976E493FEEFF4
:10169B00C39E502B75F002EFA42446F582E5F0347F
:1016AB0000F583E0FCA3E0FD75F002EFA4243FF509
:1016BB0082E5F03400F583ECF0A3EDF00F80CA2245
:1016CB00E47F1EFEFDFCAB43AA42A941A840D31206
:1016DB000DD44019E543941EF543E5429400F542C1
:1016EB00E5419400F541E5409400F54022E4754353
:1016FB001EF542F541F54022E543241EF543E43542
:10170B0042F542E43541F541E43540F540E47F686C
:10171B007E01FDFCAB43AA42A941A840D3120DD4D4
:10172B00400BE4754368754201F541F54022E543F2
:10173B00241EF543E43542F542E43541F541E435E9
:10174B0040F540E47F687E01FDFCAB43AA42A94112
:10175B00A840D3120DD4400AE475431EF542F5415F
:10176B00F5402253D4DF742F2516F582E43400F5AF
:10177B0083E075F002A4242BF582E5F03400F583A9
:10178B00E5D7F0A3E5D6F0120006300203200006E1
:10179B0020010343D44022E4F519F51AE530701803
:1017AB0090FF0374C2F090FF9C7403F075DE2075FC
:1017BB00DF1075DD9775300175DD977FC87E0012E0
:1017CB00002E75DD0722E4FF75F002EFA4242BF544
:1017DB0082E5F03400F583E0FCA3E0FD75F002EF49
:1017EB00A42446F582E5F03400F583ECF0A3EDF08C
:1017FB000FBF01D422E47B0AFAF9F8AF47AE46AD2E
:10180B0045AC44120D428F3BE47B0AFAF9F8AF4723
:10181B00AE46AD45AC44120D42AF038F3CE4F531FF
:10182B0022121911E4F50C901978E493FFE50CC31F
:10183B009F5009AF0C12008E050C80EB90192CE415
:10184B00936003121908227D01AF3B1211477F04ED
:10185B007E0012002E7D02AF3C121147AF4C1218C6
:10186B00F6AF3A0218FF90FF1074C1F090FFA0740E
:10187B0020F075CC06759E0275CEFF75CD98229023
:10188B00FF1D7469F090FEB4E04404F090FEBA744E
:10189B0002F043D80122EF1FAA0670011E4A600B0B
:1018AB00E4FDEDC3944750EE0D80F722758E119039
:1018BB00FE917401F090FEAA74FFF090FEA474C226
:1018CB00F022C2A1C2B4C2A4C2A5C282C2A2C2A348
:1018DB00C2A0D296D29522E490FE80F0F589758C49
:1018EB00FF758A7B43A80243881022EF6003D292D4
:1018FB0022C29222EF6003D29322C29322300105BF
:10190B00C20143D44022D201E5D420E6FB220203DC
:10191B0007090A0B0C0D0E0F0200001400300A20F1
:10192B00060100012C006402020050000A000A00AC
:10193B000A000A000A000A000A000A000A000A004C
:10194B000A000A000A000A000A000A007800780060
:10195B0078007800780078007800780078007800BC
:0F196B007800780078007800780078010F0A0083
:00000001FF
