:100000000211F80200090215DD80FE020DEA80FEF1
:1000100080FE2202000E753C58753D58E4F53222F0
:0A00200080FE1402001080FE80FE36
:10002B000200208F828E83E5821582AE83700215CB
:10003B00834E60097F147E001218BA80EA2280FE7C
:07004B0002002680FE80FE8A
:0300530002002880
:03005B0002004957
:0D00630002004E753C2B753D2BE4F532225A
:030073000216A0D2
:0D007B000200508F993099FDC2997F00223C
:10008B000216248F0DC20374017E00A80708800599
:10009B00C333CE33CED8F9F5158E1475F002E50DBA
:1000AB00A4246FF582E5F03419F583E493FC740115
:1000BB0093FD900041E0FF7E00120C6E7C007D0AE8
:1000CB00120C808E0E8F0F75F002E50DA4244FF5E8
:1000DB0082E5F03419F583E493F510740193F5116F
:1000EB00742F250DF582E43400F583E0F50DF470E3
:1000FB000302075475F002E50DA4243FF582E5F0E9
:10010B003400F583E0FEA3E0FF75F002E50DA424B7
:10011B0046F582E5F03400F583E0FCA3E0C39FF5E0
:10012B0013EC9EF51275F002E50DA4242BF582E578
:10013B00F03400F583E0FCA3E0C39FFFEC9EAB071C
:10014B00FA90194DE493FF70030202817E00AC0E0E
:10015B00AD0F120C6ED3EB9FEE6480F8EA648098BF
:10016B00500302027F75F002E50DA4242DF582E504
:10017B00F03400F583E475F001120CD575F002E54F
:10018B000DA4242DF582E5F03400F583E0FEA3E009
:10019B00FF901947E493FC740193FDD3EF9DEE9C04
:1001AB00402C75F002E50DA4243FF582E5F03400F8
:1001BB00F583E5128513F0120CD575F002E50DA44D
:1001CB00242DF582E5F03400F583E4F0A3F07439C7
:1001DB00250DF582E43400F583E004F07439250D28
:1001EB00F582E43400F583E0FF90194CE493FEEFC5
:1001FB00C39E401FE515F4FFE514F4FE900048E0A4
:10020B005EF0A3E05FF07439250DF582E43400F560
:10021B0083E4F07426250DF582E43400F583E4F0D5
:10022B0075F002E50DA4243AF582E5F03400F58370
:10023B00E4F0A3F075F002E50DA42442F582E5F09D
:10024B003400F583E4F0A3F075F002E50DA4242946
:10025B00F582E5F03400F583E4F0A3F075F002E5E8
:10026B000DA4243CF582E5F03400F583E4F0A3F013
:10027B00D2038002C203C3EB950FE50E6480F8EA4C
:10028B0064809850030203BD3003030207549000AF
:10029B0027E0FEA3E0FF4E606A75F002E50DA42493
:1002AB003AF582E5F03400F583E475F001120CD5D4
:1002BB0075F002E50DA4243AF582E5F03400F583E0
:1002CB00E0FCA3E0C39FEC9E403975F002E50DA462
:1002DB00243FF582E5F03400F583E5128513F01227
:1002EB000CD57426250DF582E43400F583E4F07506
:1002FB00F002E50DA4243AF582E5F03400F583E431
:10030B00F0A3F0901990E4937E00250FFFEE350ECD
:10031B00FEC3E5139FEE6480F8E512648098500DE0
:10032B00C3EB9FEE6480F8EA6480984053742625F3
:10033B000DF582E43400F583E004F07426250DF509
:10034B0082E43400F583E0FF90194BE493FEEFC396
:10035B009E4019900048E04514F0A3E04515F07459
:10036B0026250DF582E43400F583E4F075F002E503
:10037B000DA42442F582E5F03400F583E4F0A3F0FC
:10038B007439250DF582E43400F583E4F075F00241
:10039B00E50DA4242DF582E5F03400F583E4F0A3FC
:1003AB00F075F002E50DA42429F582E5F034000286
:1003BB000643D3EB9511E5106480F8EA64809850FE
:1003CB00030204DE900044E0FEA3E0FF4E605D7587
:1003DB00F002E50DA42442F582E5F03400F583E448
:1003EB0075F001120CD575F002E50DA42442F582CF
:1003FB00E5F03400F583E0FCA3E0D39FEC9E402CAA
:10040B0075F002E50DA4243FF582E5F03400F58389
:10041B00E5128513F0120CD575F002E50DA42442FC
:10042B00F582E5F03400F583E4F0A3F0901990E445
:10043B0093FFC3E50F9FFFE50E9400FEC3E5139FEB
:10044B00EE6480F8E512648098400CEB9FEE6480BC
:10045B00F8EA64809850597439250DF582E434001C
:10046B00F583E004F07439250DF582E43400F5834F
:10047B00E0FF90194CE493FEEFC39E401FE515F48B
:10048B00FFE514F4FE900048E05EF0A3E05FF0742B
:10049B0039250DF582E43400F583E4F075F002E5BF
:1004AB000DA4243AF582E5F03400F583E4F0A3F0D3
:1004BB0075F002E50DA4242DF582E5F03400F583EB
:1004CB00E4F0A3F07426250DF582E43400F583E403
:1004DB00020648C3E49511FFE49510FEC3EB9FEEB3
:1004EB006480F8EA648098500302065AD3EB9511A6
:1004FB00E5106480F8EA648098400302065A75F0B0
:10050B0002E50DA42429F582E5F03400F583EA8B8E
:10051B00F0120CD590194EE493F9FF75F002E50D2E
:10052B00A42429F582E5F03400F583E0FCA3E0FD7B
:10053B00D39F7480F8EC648098401D90003EE0FFE0
:10054B0075F002E50DA4243FF582E5F03400F58348
:10055B00E48FF0120CD58044E9FFC3E49FFFE494D1
:10056B0000FEC3ED9FEE6480F8EC648098504175FB
:10057B00F002E50DA4243FF582E5F03400F583C0CD
:10058B0083C082E0FEA3E0FF90003EE0FDC3EF9D41
:10059B00FFEE9400D082D083F0A3EFF075F002E56C
:1005AB000DA42429F582E5F03400F583E4F0A3F0E3
:1005BB007439250DF582E43400F583E004F07439C9
:1005CB00250DF582E43400F583E0FF90194CE4939C
:1005DB00FEEFC39E401F7439250DF582E43400F500
:1005EB0083E4F0E515F4FFE514F4FE900048E05EBB
:1005FB00F0A3E05FF075F002E50DA4242DF582E584
:10060B00F03400F583E4F0A3F07426250DF582E4B5
:10061B003400F583E4F075F002E50DA4243AF5827D
:10062B00E5F03400F583E4F0A3F075F002E50DA4DA
:10063B002442F582E5F03400F583E4F0A3F075F085
:10064B0002E50DA4243CF582E5F0340002074C9042
:10065B001949E493FE740193FF4E605D75F002E55A
:10066B000DA4243CF582E5F03400F583E475F0012C
:10067B00120CD575F002E50DA4243CF582E5F0349F
:10068B0000F583E0FCA3E0C39FEC9E402C75F002C9
:10069B00E50DA4243CF582E5F03400F583E4F0A3EA
:1006AB00F075F002E50DA4243FF582E5F03400F57A
:1006BB0083E5128513F0120CD57439250DF582E400
:1006CB003400F583E004F07439250DF582E4340031
:1006DB00F583E0FF90194CE493FEEFC39E401F742B
:1006EB0039250DF582E43400F583E4F0E515F4FFCC
:1006FB00E514F4FE900048E05EF0A3E05FF075F0C7
:10070B0002E50DA4242DF582E5F03400F583E4F029
:10071B00A3F07426250DF582E43400F583E4F0751F
:10072B00F002E50DA4243AF582E5F03400F583E4FC
:10073B00F0A3F075F002E50DA42442F582E5F03448
:10074B0000F583E4F0A3F0C20322E53F7003020A35
:10075B000AE5517003020A0A900006E0C3940F7F6A
:10076B000150027F00EF25E0FF900005E0C3940FDE
:10077B007E0150027E00EE4FFF900007E0C3940F06
:10078B007E0150027E00EE25E025E04FFF90000831
:10079B00E0C3940F7E0150027E00EE33333354F8E6
:1007AB004FFF900009E0C3940F7E0150027E00EED4
:1007BB00C454F04FFF90000AE0C3940F7E01500227
:1007CB007E00EEC43354E04FFF90000BE0C3940F58
:1007DB007E0150027E00EEC4333354C04FFF9000B5
:1007EB000CE0C3940F7E0150027E00EEC433333312
:1007FB0054804F900000F090000EE0C3940F7F01E7
:10080B0050027F00EF25E0FF90000DE0C3940F7EB8
:10081B000150027E00EE4FFF90000FE0C3940F7E5D
:10082B000150027E00EE25E025E04FFF900010E026
:10083B00C3940F7E0150027E00EE33333354F84FD6
:10084B00FF900011E0C3940F7E0150027E00EEC4B6
:10085B0054F04FFF900012E0C3940F7E0150027EC4
:10086B0000EEC43354E04FFF900013E0C3940F7EAF
:10087B000150027E00EEC4333354C04FFF9000147E
:10088B00E0C3940F7E0150027E00EEC43333335429
:10089B00804F900001F0900016E0C3940F7F015041
:1008AB00027F00EF25E0FF900015E0C3940F7E015F
:1008BB0050027E00EE4FFF900017E0C3940F7E01B5
:1008CB0050027E00EE25E025E04FFF900018E0C3BC
:1008DB00940F7E0150027E00EE33333354F84FFFFA
:1008EB00900019E0C3940F7E0150027E00EEC454B9
:1008FB00F04FFF90001AE0C3940F7E0150027E0070
:10090B00EEC43354E04FFF90001BE0C3940F7E0105
:10091B0050027E00EEC4333354C04FFF90001CE0F6
:10092B00C3940F7E0150027E00EEC43333335480E8
:10093B004F900002F090001EE0C3940F7F01500215
:10094B007F00EF25E0FF90001DE0C3940F7E015068
:10095B00027E00EE4FFF90001FE0C3940F7E01500C
:10096B00027E00EE25E025E04FFF900020E0C394CF
:10097B000F7E0150027E00EE33333354F84FFF905D
:10098B000021E0C3940F7E0150027E00EEC454F0B0
:10099B004FFF900022E0C3940F7E0150027E00EEC9
:1009AB00C43354E04FFF900023E0C3940F7E0150FB
:1009BB00027E00EEC4333354C04FFF900024E0C3DB
:1009CB00940F7E0150027E00EEC433333354804FBC
:1009DB00900003F0E4F53F12102FE4F50CF50DF544
:1009EB000CF50D7404250DF5827400350CF583E4BC
:1009FB00F0050DE50D7002050C6421450C70E42229
:100A0B00E529701790FF0974C1F090FF07F090FF74
:100A1B0003F090FF0AF0A3F0752901E5407059E54A
:100A2B0026640145257005753B018018E526643C5D
:100A3B0045257004F53B800CE5266478452570044C
:100A4B00F525F5260526E52670020525E4F536F590
:100A5B0035F534F533F549120016C291C283C287BE
:100A6B00E4F544F543F542F541F552F553F548F5F8
:100A7B0047F546F545020C22753B01E47F2C7E01C0
:100A8B00FDFCAB36AA35A934A833C3120DB940030C
:100A9B00020B7FE5362401F536E43535F535E435C3
:100AAB0034F534E43533F533C291C283C287E4F5B0
:100ABB0052F5537F01FEFDFCAB36AA35A934A833A2
:100ACB00C3120DB9601CE47F64FEFDFCA833C31296
:100ADB000DB9600EE47FC8FEFDFCA833C3120DB93F
:100AEB00701DE4FFFEFDFCAB44AA43A942A841D311
:100AFB00120DB94005121503803812181A8033E411
:100B0B007F32FEFDFCAB36AA35A934A833C3120DD8
:100B1B00B9601CE47F96FEFDFCA833C3120DB960CF
:100B2B000EE47FFAFEFDFCA833C3120DB97003125D
:100B3B000066E47F2C7E01FDFCAB36AA35A934A8F8
:100B4B0033C3120DB96003020C227F02121320E48F
:100B5B00FFFEFDFCAB44AA43A942A841D3120DB939
:100B6B004009121503755201020C2212181A755303
:100B7B0001020C22E4FFFEFDFCAB44AA43A942A8F0
:100B8B0041D3120DB94009D291D28312148F800434
:100B9B00C291C283E54AB40118755301E475481438
:100BAB00F547F546F545F54A753A0AF539F538F541
:100BBB0037E4FFFEFDFCAB48AA47A946A845D31274
:100BCB000DB9404EE4FFFEFDFCAB3AAA39A938A89B
:100BDB0037D3120DB94031C287E528640145277020
:100BEB00057549018018E528643C45277004F549D3
:100BFB00800CE528647845277004F527F52805282F
:100C0B00E528700905278005D28775490112181A46
:100C1B008005C287E4F549E53E65526018E53EB4B0
:100C2B000110E552700C753A5475393DF538F537AE
:100C3B00800085523EE4FFFEFDFCAB3AAA39A93891
:100C4B00A837D3120DB9401AE53A24FFF53AE53926
:100C5B0034FFF539E53834FFF538E53734FFF53730
:100C6B00D29122EF8DF0A4A8F0CF8CF0A428CE8DDA
:100C7B00F0A42EFE22BC000BBE0029EF8DF084FFEA
:100C8B00ADF022E4CCF875F008EF2FFFEE33FEEC5D
:100C9B0033FCEE9DEC984005FCEE9DFE0FD5F0E984
:100CAB00E4CEFD22EDF8F5F0EE8420D21CFEADF083
:100CBB0075F008EF2FFFED33FD4007985006D5F088
:100CCB00F222C398FD0FD5F0EA22C5F0F8A3E02875
:100CDB00F0C5F0F8E582158270021583E038F0223A
:100CEB0075F008758200EF2FFFEE33FECD33CDCCC0
:100CFB0033CCC58233C5829BED9AEC99E582984043
:100D0B000CF582EE9BFEED9AFDEC99FC0FD5F0D61F
:100D1B00E4CEFBE4CDFAE4CCF9A88222B800C1B949
:100D2B000059BA002DEC8BF084CFCECDFCE5F0CB87
:100D3B00F97818EF2FFFEE33FEED33FDEC33FCEBC0
:100D4B0033FB10D703994004EB99FB0FD8E5E4F97B
:100D5B00FA227818EF2FFFEE33FEED33FDEC33FC68
:100D6B00C933C910D7059BE99A4007EC9BFCE99A5C
:100D7B00F90FD8E0E4C9FAE4CCFB2275F010EF2FA1
:100D8B00FFEE33FEED33FDCC33CCC833C810D707A1
:100D9B009BEC9AE899400AED9BFDEC9AFCE899F8DC
:100DAB000FD5F0DAE4CDFBE4CCFAE4C8F922EB9FE3
:100DBB00F5F0EA9E42F0E99D42F0E89C45F0227482
:100DCB0001FF3395E0FEFDFC080808E6CF2FF6186F
:100DDB00E6CE3EF618E6CD3DF618E6CC3CF622C044
:100DEB00E0C0F0C083C082C0D075D000C000C0018D
:100DFB00C002C003C004C005C006C007054BE54BCD
:100E0B00D394964006755101754B00782C120DCA80
:100E1B007BC07A2779097800C3120DB94003020E03
:100E2B00E5752F00752E00752D00752C00E54064BF
:100E3B00016003020EE5FFFEFDFCAB44AA43A94291
:100E4B00A841120DB94035E552B40130E54424FFF9
:100E5B00F544E54334FFF543E54234FFF542E54104
:100E6B0034FFF541E4FFFEFDFCAB44AA43A942A8C5
:100E7B0041C3120DB97005754A01F552E4FFFEFD31
:100E8B00FCAB48AA47A946A845D3120DB9404BE580
:100E9B005364017045FFFEFDFCAB3AAA39A938A893
:100EAB0037120DB97034E54824FFF548E54734FF98
:100EBB00F547E54634FFF546E54534FFF545E4FFD8
:100ECB00FEFDFCAB48AA47A946A845C3120DB97055
:100EDB0009F553F5407F03121320E54F2401F54F1D
:100EEB00E4354EF54EE4354DF54DE4354CF54CD02F
:100EFB0007D006D005D004D003D002D001D000D04B
:100F0B00D0D082D083D0F0D0E03290FE94E0440277
:100F1B00F090FE40E4F0A3F0A3F0A3F0A3F0A3F055
:100F2B00A3F0A3F0A3F0A3F0A3F0A3F0A3F0A3F01E
:100F3B00A3F0A3F090FE60F0A3F0A3F0A3F0A3F056
:100F4B00A3F0A3F0A3F09019419390FE77F09019C2
:100F5B0042E49390FE76F0901943E49390FE75F083
:100F6B00901944E49390FE74F090193CE493F517B8
:100F7B00740193F518901946E4936061E4F50C90B5
:100F8B001991E493FFE50CC39F505274017E00A8A6
:100F9B000C088005C333CE33CED8F9FFE5175EFEC0
:100FAB00E5185F4E603390FE72C083C082E0FCA3F5
:100FBB00E0FDE50C90193293FF74017E00A8070841
:100FCB008005C333CE33CED8F9FFEC4EFEED4FFF89
:100FDB00D082D083EEF0A3EFF0050C80A243D48037
:100FEB00D2BD12154D901991E493F5161215DDD261
:100FFB0002C200121921901992E493FFD39403506B
:10100B0005750C058005EF2404F50CE50C600F301D
:10101B0000F91217EB150CC20012192180ED1216F4
:10102B00DBC20222900000E0600302112EA3E0F469
:10103B00600302112E7FB87E0BFDFCAB4FAA4EA9AD
:10104B004DA84CC3120DB9500302112EE4F54FF508
:10105B004EF54DF54C900002E070307F01121320DD
:10106B00E540700E75400175445AF543F542F54164
:10107B008068E4F540F544F543F542F541F552F54A
:10108B0053F548F547F546F545804FE5406401704B
:10109B0049FFFEFDFCAB48AA47A946A845C3120D64
:1010AB00B970377F01121320E4FFFEFDFCAB48AA99
:1010BB0047A946A845C3120DB9701F900002E0B4B2
:1010CB00080512174C800A900002E0B40A0C1217A4
:1010DB0014E4F536F535F534F533900002E064028F
:1010EB0070417F01121320E5537021754001F553B8
:1010FB00754814F547F546F545F544F543F542F5C6
:10110B0041F552F536F535F534F53322E4F540F576
:10111B0044F543F542F541F552F553F548F547F5DE
:10112B0046F54522D296D295EFB40A004003021140
:10113B00CF901143F828287302116102117102112B
:10114B007502118102119102119B0211A50211ABC3
:10115B000211B30211BFD2A1D2B4D2A4D2A5D282B2
:10116B00D2A2C2A3806CC2A18038D2A1D2B4C2A435
:10117B00D2A5D282800AD2A1D2B4D2A4D2A5C282E5
:10118B00C2A2D2A3804CC2A1D2B4D2A4C2A5802C3D
:10119B00D2A1C2B4D2A4D2A58022D2A1C2B4800C57
:1011AB00D2A1D2B4D2A48022D2A1D2B4D2A4D2A53D
:1011BB00D282800AD2A1D2B4D2A4D2A5C282D2A2A8
:1011CB00D2A3800EC2A1C2B4C2A4C2A5C282C2A2C3
:1011DB00C2A3BD010EC296D295E5326003D2A02206
:1011EB00C2A022BD0206D296C295C2A02278FFE40D
:1011FB00F6D8FD9000007F007E04E4F0A3DFFCDE58
:10120B00FA75815302124D021596E493A3F8E493F9
:10121B00A34003F68001F208DFF48029E493A3F8DE
:10122B005407240CC8C333C4540F4420C883400450
:10123B00F456800146F6DFE4800B0102040810200F
:10124B004080901292E47E019360BCA3FF543F3028
:10125B00E509541FFEE493A360010ECF54C025E0B3
:10126B0060A840B8E493A3FAE493A3F8E493A3C86B
:10127B00C582C8CAC583CAF0A3C8C582C8CAC583FC
:10128B00CADFE9DEE780BE013C58013D5801320060
:10129B00014900013B000152000441000000000124
:1012AB005300044500000000014000013E00044CC7
:1012BB0000000000043300000000014A0004370066
:1012CB000000000221000002230000012900022A75
:1012DB0000000225000002270000014B0001510015
:1012EB00015000013F00042C000000000230000000
:1012FB0042002703E842004403E84100410A410051
:10130B003E0201160002170000C102C101C10042DA
:10131B000048000000BF011D90FF0C74C2F090FF4D
:10132B009C7414F075DE2075DF1075DD9775300039
:10133B0075310A803DBF021C90FF0C74C2F090FF08
:10134B009C7414F075DE2075DF1075DD9775300019
:10135B00F531801EBF031B90FF0C74C2F090FF9CF5
:10136B007414F075DE2075DF1075DD977530007520
:10137B003132D3E5319400E530648094804016E53A
:10138B0031153170021530E5314530700875DD07C8
:10139B0090FF0C04F022900048E07002A3E060691B
:1013AB00E52445237068F5237524017F0112132072
:1013BB00E540700E75400175445AF543F542F54111
:1013CB00803DE55264016005E553B40119E4F54035
:1013DB00F544F543F542F541F552F553F548F5471C
:1013EB00F546F5458019E4FFFEFDFCAB48AA47A97D
:1013FB0046A845C3120DB97006121782121503E4E5
:10140B00F536F535F534F53322E4F523F52422E4EE
:10141B00F58090FF0004F090FF01F090FF02F09038
:10142B00FF03F090FF04F090FF05F090FF06F090A3
:10143B00FF07F090FF08F090FF09F090FF0AF09083
:10144B00FF0BF090FF0CF090FF0DF090FF0EF09063
:10145B00FF0FF0E4F5A090FF1004F090FF11F09057
:10146B00FF12F090FF13F090FF14F090FF15F09027
:10147B00FF16F090FF17F0E4F5B090FF1C04F0900E
:10148B00FF1DF022E47B3CFAF9F8AF44AE43AD42CA
:10149B00AC41120D278F3CE47B3CFAF9F8AF44AE1C
:1014AB0043AD42AC41120D27AF038F3DD3E53D64F5
:1014BB0080949E4004053C800ED3E53D648094806F
:1014CB004005753D058003E4F53DE52264014521AA
:1014DB0070057532018018E522643245217004F5E0
:1014EB0032800CE522646445217004F521F5220558
:1014FB0022E5227002052122E47B3CFAF9F8AF4485
:10150B00AE43AD42AC41120D278F3CE47B3CFAF964
:10151B00F8AF44AE43AD42AC41120D27AF038F3D44
:10152B00D3E53D6480949E4004053C800ED3E53D9D
:10153B00648094804005753D058003E4F53D75326C
:10154B000122E4FDFC901991E493FFEDC39F503A07
:10155B0074017E00A805088005C333CE33CED8F9BD
:10156B00FFE5175EFEE5185F4E600F742F2DF582B9
:10157B00E43400F583ECF00C800D742F2DF582E430
:10158B003400F58374FFF00D80BB22E4F50BF50AF4
:10159B00F509F5081218D01216651218FB1218A4CB
:1015AB00D2AF120F157F0312132030000B1217EB63
:1015BB00121846120012C2001213A11207557F0413
:1015CB007E0012002E12186C120A0BE4FF1213206D
:1015DB0080D80516901991E493FFE516C39F400739
:1015EB00D200D201E4F516E51845177003D201229B
:1015FB0074017E00A816088005C333CE33CED8F90C
:10160B00FFE5175EFEE5185F4E60C7E516901932D1
:10161B0093F5D5000000000022C0E0C083C082C05B
:10162B00D0539FFDE54BD394324003753F007404B8
:10163B00253FF582E43400F583E54BF0754B00054F
:10164B003FE53FD394214003753F00755100754B27
:10165B0000D0D0D082D083D0E03290FF1174C1F093
:10166B0090FF1CF090FF14F0A3F090FF02F090FF9E
:10167B0012F0A3F090FF10F090FF0EF090FF0DF022
:10168B00C2A1C2B4C2A4C2A5C282C2A2C2A3C2A03A
:10169B00D296D29522C0E0C0F0C083C082C0D07574
:1016AB00D000C000C001C002C003C004C005C0060A
:1016BB00C0071217B7D007D006D005D004D003D07F
:1016CB0002D001D000D0D0D082D083D0F0D0E03285
:1016DB00E4FF90198FE493FEEFC39E502B75F0023D
:1016EB00EFA42446F582E5F03400F583E0FCA3E09B
:1016FB00FD75F002EFA4243FF582E5F03400F5838D
:10170B00ECF0A3EDF00F80CA22E47F1EFEFDFCABD4
:10171B0044AA43A942A841D3120DB94019E54494F8
:10172B001EF544E5439400F543E5429400F542E58C
:10173B00419400F54122E475441EF543F542F54111
:10174B0022E544241EF544E43543F543E43542F5E4
:10175B0042E43541F541E47F687E01FDFCAB44AAD0
:10176B0043A942A841D3120DB9400BE475446875E7
:10177B004301F542F54122E544241EF544E435438B
:10178B00F543E43542F542E43541F541E47F687EAB
:10179B0001FDFCAB44AA43A942A841D3120DB940A9
:1017AB000AE475441EF543F542F5412253D4DF7428
:1017BB002F2516F582E43400F583E075F002A4249E
:1017CB002BF582E5F03400F583E5D7F0A3E5D6F0F1
:1017DB0012000630020320000620010343D44022EE
:1017EB00E4FF75F002EFA4242BF582E5F03400F54D
:1017FB0083E0FCA3E0FD75F002EFA42446F582E53F
:10180B00F03400F583ECF0A3EDF00FBF01D422E42C
:10181B007B0AFAF9F8AF48AE47AD46AC45120D2737
:10182B008F3CE47B0AFAF9F8AF48AE47AD46AC45BE
:10183B00120D27AF038F3DE4F5322212192AE4F57E
:10184B000C901991E493FFE50CC39F5009AF0C1258
:10185B00008E050C80EB901945E49360031219215F
:10186B00227D01AF3C12112F7F047E0012002E7DD2
:10187B0002AF3D12112FAF4912190FAF3B021918CE
:10188B0090FF1074C1F090FFA07420F075CC06751A
:10189B009E0275CEFF75CD982290FF1D7469F09056
:1018AB00FEB47404F090FEBA7402F043D80122EF38
:1018BB001FAA0670011E4A600BE4FDEDC39447504E
:1018CB00EE0D80F722758E1190FE917401F090FE53
:1018DB00AA74FFF090FEA474C2F022C2A1C2B4C2DB
:1018EB00A4C2A5C282C2A2C2A3C2A0D296D2952282
:1018FB00E490FE80F0F589758CFF758A7B43A80216
:10190B0043881022EF6003D29222C29222EF60032F
:10191B00D29322C29322300105C20143D44022D27A
:10192B0001E5D420E6FB22020307090A0B0C0D0E7E
:10193B000F0200001400300A20060100012C006485
:10194B0002020050000A000A000A000A000A000AFC
:10195B00000A000A000A000A000A000A000A000A2C
:10196B00000A000A00780078007800780078007888
:10197B00007800780078007800780078007800789C
:08198B0000780078010F0A004A
:00000001FF
