:1000000002128D02000902154280FE0211F080FEEC
:1000100080FE2202000E80FE80FE1402001080FE90
:0200200080FE60
:0700230002001680FE80FEC2
:10002B000200188F828E83E5821582AE83700215D3
:10003B00834E60097F147E0012187C80EA2280FEBA
:05004B0002001E80FE12
:0300530002002088
:03005B000200267A
:0D0063000200288F993099FDC2997F00227C
:03007300021693DF
:0C007B00020049300105C20143D44022BC
:10008B0002004E8F09C20374017E00A80708800589
:10009B00C333CE33CED8F9F5118E1075F002E509C6
:1000AB00A42427F582E5F0341AF583E493FC74015C
:1000BB0093FD900059E0FF7E00120AA57C007D0A9B
:1000CB00120AB78E0A8F0B75F002E509A42407F507
:1000DB0082E5F0341AF583E493F50C740193F50D76
:1000EB0074252509F582E43400F583E0F509F470F5
:1000FB000302075475F002E509A4244FF582E5F0DD
:10010B003400F583E0FEA3E0FF75F002E509A424BB
:10011B0066F582E5F03400F583E0FCA3E0C39FF5C0
:10012B000FEC9EF50E75F002E509A42411F582E59E
:10013B00F03400F583E0FCA3E0C39FFFEC9EAB071C
:10014B00FA901A05E493FF70030202817E00AC0A59
:10015B00AD0B120AA5D3EB9FEE6480F8EA6480988E
:10016B00500302027F75F002E509A4241BF582E51A
:10017B00F03400F583E475F001120B4275F002E5E3
:10018B0009A4241BF582E5F03400F583E0FEA3E01F
:10019B00FF9019FFE493FC740193FDD3EF9DEE9C4C
:1001AB00402C75F002E509A4244FF582E5F03400EC
:1001BB00F583E50E850FF0120B4275F002E509A4ED
:1001CB00241BF582E5F03400F583E4F0A3F07435DD
:1001DB002509F582E43400F583E004F07435250934
:1001EB00F582E43400F583E0FF901A04E493FEEF0C
:1001FB00C39E401FE511F4FFE510F4FE900070E084
:10020B005EF0A3E05FF074352509F582E43400F568
:10021B0083E4F074002509F582E43400F583E4F0FF
:10022B0075F002E509A4243AF582E5F03400F58374
:10023B00E4F0A3F075F002E509A4245AF582E5F089
:10024B003400F583E4F0A3F075F002E509A424076C
:10025B00F582E5F03400F583E4F0A3F075F002E5E8
:10026B0009A42444F582E5F03400F583E4F0A3F00F
:10027B00D2038002C203C3EB950BE50A6480F8EA54
:10028B0064809850030203BD3003030207549000AF
:10029B0005E0FEA3E0FF4E606A75F002E509A424B9
:1002AB003AF582E5F03400F583E475F001120B4268
:1002BB0075F002E509A4243AF582E5F03400F583E4
:1002CB00E0FCA3E0C39FEC9E403975F002E509A466
:1002DB00244FF582E5F03400F583E50E850FF0121F
:1002EB000B4274002509F582E43400F583E4F075C4
:1002FB00F002E509A4243AF582E5F03400F583E435
:10030B00F0A3F0901A48E4937E00250BFFEE350A1C
:10031B00FEC3E50F9FEE6480F8E50E648098500DE8
:10032B00C3EB9FEE6480F8EA648098405374002519
:10033B0009F582E43400F583E004F074002509F537
:10034B0082E43400F583E0FF901A03E493FEEFC3DD
:10035B009E4019900070E04510F0A3E04511F07439
:10036B00002509F582E43400F583E4F075F002E52D
:10037B0009A4245AF582E5F03400F583E4F0A3F0E8
:10038B0074352509F582E43400F583E4F075F00249
:10039B00E509A4241BF582E5F03400F583E4F0A312
:1003AB00F075F002E509A42407F582E5F0340002AC
:1003BB000643D3EB950DE50C6480F8EA6480985006
:1003CB00030204DE900064E0FEA3E0FF4E605D7567
:1003DB00F002E509A4245AF582E5F03400F583E434
:1003EB0075F001120B4275F002E509A4245AF5824F
:1003FB00E5F03400F583E0FCA3E0D39FEC9E402CAA
:10040B0075F002E509A4244FF582E5F03400F5837D
:10041B00E50E850FF0120B4275F002E509A4245A84
:10042B00F582E5F03400F583E4F0A3F0901A48E48C
:10043B0093FFC3E50B9FFFE50A9400FEC3E50F9FF7
:10044B00EE6480F8E50E648098400CEB9FEE6480C0
:10045B00F8EA648098505974352509F582E4340024
:10046B00F583E004F074352509F582E43400F58357
:10047B00E0FF901A04E493FEEFC39E401FE511F4D6
:10048B00FFE510F4FE900070E05EF0A3E05FF07407
:10049B00352509F582E43400F583E4F075F002E5C7
:1004AB0009A4243AF582E5F03400F583E4F0A3F0D7
:1004BB0075F002E509A4241BF582E5F03400F58301
:1004CB00E4F0A3F074002509F582E43400F583E42D
:1004DB00020648C3E4950DFFE4950CFEC3EB9FEEBB
:1004EB006480F8EA648098500302065AD3EB950DAA
:1004FB00E50C6480F8EA648098400302065A75F0B4
:10050B0002E509A42407F582E5F03400F583EA8BB4
:10051B00F0120B42901A06E493F9FF75F002E5090D
:10052B00A42407F582E5F03400F583E0FCA3E0FD9D
:10053B00D39F7480F8EC648098401D90004EE0FFD0
:10054B0075F002E509A4244FF582E5F03400F5833C
:10055B00E48FF0120B428044E9FFC3E49FFFE49465
:10056B0000FEC3ED9FEE6480F8EC648098504175FB
:10057B00F002E509A4244FF582E5F03400F583C0C1
:10058B0083C082E0FEA3E0FF90004EE0FDC3EF9D31
:10059B00FFEE9400D082D083F0A3EFF075F002E56C
:1005AB0009A42407F582E5F03400F583E4F0A3F009
:1005BB0074352509F582E43400F583E004F07435D5
:1005CB002509F582E43400F583E0FF901A04E493E7
:1005DB00FEEFC39E401F74352509F582E43400F508
:1005EB0083E4F0E511F4FFE510F4FE900070E05E9B
:1005FB00F0A3E05FF075F002E509A4241BF582E59A
:10060B00F03400F583E4F0A3F074002509F582E4DF
:10061B003400F583E4F075F002E509A4243AF58281
:10062B00E5F03400F583E4F0A3F075F002E509A4DE
:10063B00245AF582E5F03400F583E4F0A3F075F06D
:10064B0002E509A42444F582E5F0340002074C903E
:10065B001A01E493FE740193FF4E605D75F002E5A1
:10066B0009A42444F582E5F03400F583E475F00128
:10067B00120B4275F002E509A42444F582E5F0342F
:10068B0000F583E0FCA3E0C39FEC9E402C75F002C9
:10069B00E509A42444F582E5F03400F583E4F0A3E6
:1006AB00F075F002E509A4244FF582E5F03400F56E
:1006BB0083E50E850FF0120B4274352509F582E4A4
:1006CB003400F583E004F074352509F582E4340039
:1006DB00F583E0FF901A04E493FEEFC39E401F7472
:1006EB00352509F582E43400F583E4F0E511F4FFD8
:1006FB00E510F4FE900070E05EF0A3E05FF075F0A3
:10070B0002E509A4241BF582E5F03400F583E4F03F
:10071B00A3F074002509F582E43400F583E4F07549
:10072B00F002E509A4243AF582E5F03400F583E400
:10073B00F0A3F075F002E509A4245AF582E5F03434
:10074B0000F583E4F0A3F0C20322E546600F753495
:10075B002BF53575364575372BE4F53D229000703A
:10076B00E0FEA3E0FF4E70030208B8EF652A7003AA
:10077B00EE6529700302087F8E298F2AE5456003F9
:10078B000208C1EF7003EE648070391217A7E547BA
:10079B0070147547011215CF754403E4F52EF52D32
:1007AB00F52CF52B801EE4F547F538F54FF54CF598
:1007BB0043F542F541F540F54BF54AF549F548F55A
:1007CB004D754E5AE547640160030208C1900070F5
:1007DB00E0B4401CA3E0B400171217A712182B1299
:1007EB0015CFE4F52EF52DF52CF52BF5380208C1B8
:1007FB00900070E064207002A3E070371217A7E539
:10080B004CB40117E4F54C1215CFE4F543F542F562
:10081B0041F5405344FBF5380208C1121707121477
:10082B006BE4F52EF52DF52CF52B753801434404AF
:10083B000208C1900070E064107002A3E0707712A0
:10084B0017A7E54FB40116E4F54FF54BF54AF549FB
:10085B00F54812146B5344F7E4F538805975380298
:10086B0012173D1214B3E4F52EF52DF52CF52B4391
:10087B0044088042900070E064087002A3E0703678
:10088B00E547640170300530E5307002052FB4B0D8
:10089B0025E52FB404201217A7E54570087545010F
:1008AB004344108011E4F5455344EF8009E4F529E6
:1008BB00F52AF52FF530E547703F1218BCF52EF5EC
:1008CB002DF52CF52BE522640145217005754401AE
:1008DB00801EE522B4900AE521B40105E4F54480BD
:1008EB000FE522B4200AE521B40305E4F521F52236
:1008FB000522E5227002052122E47F347E08FDFCEF
:10090B00AB2EAA2DA92CA82BC3120C265067E52EB3
:10091B002401F52EE4352DF52DE4352CF52CE4359D
:10092B002BF52BE47B5E7A01F9F8AF2EAE2DAD2CB7
:10093B00AC2B120B94AC00AD01AE02AF03E4FBFA8F
:10094B00F9F8C3120C266003020AA4E523701FE515
:10095B003870051215CF8012E538B4010512146BEF
:10096B008008E538B402031214B375230122121860
:10097B00CCE4F52322E53870311215CFE4FFFEFDF0
:10098B00FCAB43AA42A941A840D3120C26400575E3
:10099B0038018016E4FFFEFDFCAB4BAA4AA949A81F
:1009AB0048D3120C264003753802E5386401706792
:1009BB00FFFEFDFCAB43AA42A941A840D3120C2673
:1009CB004038754C01E525640145247005120EC0B5
:1009DB00801EE525B4F40AE524B40105120F8C80C2
:1009EB000FE525B4E80AE524B40305E4F524F52561
:1009FB000525E52570210524801DE4FFFEFDFCABDC
:100A0B004BAA4AA949A848C3120C267004F5388092
:100A1B00037538025344FBE5386402707C754F0153
:100A2B00FFFEFDFCAB43AA42A941A840C3120C2612
:100A3B007064FFFEFDFCAB4BAA4AA949A848D31230
:100A4B000C2640470527E527AE2670020526149491
:100A5B00A0EE940F5021AE26AF277C017DF4120A35
:100A6B00B7ED4C7034E52870071210587528012229
:100A7B00121124E4F52822C3E5279458E526941B8C
:100A8B0050030215CFE4F526F52722E4F53853443D
:100A9B00F7F547F5452275380122EF8DF0A4A8F044
:100AAB00CF8CF0A428CE8DF0A42EFE22BC000BBE62
:100ABB000029EF8DF084FFADF022E4CCF875F0083F
:100ACB00EF2FFFEE33FEEC33FCEE9DEC984005FC74
:100ADB00EE9DFE0FD5F0E9E4CEFD22EDF8F5F0EE3C
:100AEB008420D21CFEADF075F008EF2FFFED33FD27
:100AFB004007985006D5F0F222C398FD0FD5F0EAC7
:100B0B0022C2D5EC30E709B2D5E4C39DFDE49CFCD1
:100B1B00EE30E715B2D5E4C39FFFE49EFE120AB791
:100B2B00C3E49DFDE49CFC8003120AB730D507C3D8
:100B3B00E49FFFE49EFE22C5F0F8A3E028F0C5F089
:100B4B00F8E582158270021583E038F02275F00803
:100B5B00758200EF2FFFEE33FECD33CDCC33CCC5FA
:100B6B008233C5829BED9AEC99E58298400CF58215
:100B7B00EE9BFEED9AFDEC99FC0FD5F0D6E4CEFB87
:100B8B00E4CDFAE4CCF9A88222B800C1B90059BA75
:100B9B00002DEC8BF084CFCECDFCE5F0CBF97818A3
:100BAB00EF2FFFEE33FEED33FDEC33FCEB33FB109D
:100BBB00D703994004EB99FB0FD8E5E4F9FA2278B7
:100BCB0018EF2FFFEE33FEED33FDEC33FCC933C9C9
:100BDB0010D7059BE99A4007EC9BFCE99AF90FD8D3
:100BEB00E0E4C9FAE4CCFB2275F010EF2FFFEE33F3
:100BFB00FEED33FDCC33CCC833C810D7079BEC9A32
:100C0B00E899400AED9BFDEC9AFCE899F80FD5F0BA
:100C1B00DAE4CDFBE4CCFAE4C8F922EB9FF5F0EA79
:100C2B009E42F0E99D42F0E89C45F022D287D281AA
:100C3B00D280D2A7D292C3E532648094844003025F
:100C4B000D1874342532F8E624D57003020D0824F0
:100C5B00E67003020CF82445B40A004003020D456C
:100C6B00900C72F8282873020C90020CA1020CA5B0
:100C7B00020CB1020CC2020CCC020CD6020CDC0230
:100C8B000CE4020CECD2A6D2A4D2B4D2A2D2A1D242
:100C9B00A5C2B5020D45C2A68039D2A6D2A4C2B454
:100CAB00D2A2D2A1800AD2A6D2A4D2B4D2A2C2A17D
:100CBB00C2A5D2B5020D45C2A6D2A4D2B4C2A2809F
:100CCB0028D2A6C2A4D2B4D2A2801ED2A6C2A4801D
:100CDB000CD2A6D2A4D2B4802AD2A6D2A4D2B480EB
:100CEB0012D2A6D2A4D2B4D2A2C2A1800AD2A6C2D8
:100CFB00A4C2B4D2A2D2A1D2A5D2B5803DC2A6C203
:100D0B00A4C2B4C2A2C2A1C2A5C2B5802DE544C380
:100D1B0030E001D392A6E544C330E101D392A4E5C0
:100D2B0044C330E201D392A1E544C330E301D39233
:100D3B00A2E544C330E401D392B4E53D6004D2A3F1
:100D4B008002C2A3E5327006C287D2818009E532E8
:100D5B00B40108D287C281D280800BE532B4020C79
:100D6B00D287D281C280D2A7D2928020E532B4033F
:100D7B000CD287D281D280C2A7D292800FE532B437
:100D8B00040AD287D281D280D2A7C2920532D3E590
:100D9B0032648094844003E4F5322290FE94E04464
:100DAB0002F090FE40E4F0A3F0A3F0A3F0A3F0A3B5
:100DBB00F0A3F0A3F0A3F0A3F0A3F0A3F0A3F0A390
:100DCB00F0A3F0A3F090FE60F0A3F0A3F0A3F0A3C8
:100DDB00F0A3F0A3F0A3F09019F99390FE77F090A5
:100DEB0019FAE49390FE76F09019FBE49390FE755C
:100DFB00F09019FCE49390FE74F09019F4E493F5E1
:100E0B0013740193F5149019FEE4936061E4F508F3
:100E1B00901A49E493FFE508C39F505274017E007A
:100E2B00A808088005C333CE33CED8F9FFE5135E8F
:100E3B00FEE5145F4E603390FE72C083C082E0FC0F
:100E4B00A3E0FDE5089019E493FF74017E00A80769
:100E5B00088005C333CE33CED8F9FFEC4EFEED4FF1
:100E6B00FFD082D083EEF0A3EFF0050880A243D42D
:100E7B0080D2BD121422901A49E493F51212154236
:100E8B00D202C20012007E901A4AE493FFD394035D
:100E9B0050057508058005EF2404F508E508600F7B
:100EAB003000F91217D61508C20012007E80ED1221
:100EBB0016CEC20222E5432460FFE54234EAFEE48B
:100ECB003541FDE43540FC7B807AEE7936780012B3
:100EDB000B94AC00AD01AE02AF03E47B607AEAF990
:100EEB00F8120B94E47B0AFAF9F8120B94AF038F08
:100EFB0034E5432460FFE54234EAFEE43541FDE48A
:100F0B003540FC7B807AEE79367800120B94AC007E
:100F1B00AD01AE02AF03E47B607AEAF9F8120B94F1
:100F2B00E47B0AFAF9F8120B948F35E5432460FF42
:100F3B00E54234EAFEE43541FDE43540FC7B807A42
:100F4B00EE79367800120B94E47B0AFAF9F8120B5F
:100F5B0094AF038F36E5432460FFE54234EAFEE4A9
:100F6B003541FDE43540FC7B807AEE793678001212
:100F7B000B94E47B0AFAF9F8120B948F37753D0149
:100F8B0022E5432460FFE54234EAFEE43541FDE40B
:100F9B003540FC7B807AEE79367800120B94AC00EE
:100FAB00AD01AE02AF03E47B607AEAF9F8120B9461
:100FBB00E47B0AFAF9F8120B94AF038F34E5432460
:100FCB0060FFE54234EAFEE43541FDE43540FC7B4D
:100FDB00807AEE79367800120B94AC00AD01AE023C
:100FEB00AF03E47B607AEAF9F8120B94E47B0AFA1C
:100FFB00F9F8120B948F35E5432460FFE54234EA90
:10100B00FEE43541FDE43540FC7B807AEE793678A1
:10101B0000120B94E47B0AFAF9F8120B94AF038FCE
:10102B0036E5432460FFE54234EAFEE43541FDE456
:10103B003540FC7B807AEE79367800120B94E47B9A
:10104B000AFAF9F8120B948F37E4F53D22E54B249D
:10105B0060FFE54A34EAFEE43549FDE43548FC7BA4
:10106B00807AEE79367800120B94AC00AD01AE02AB
:10107B00AF03E47B607AEAF9F8120B94E47B0AFA8B
:10108B00F9F8120B94AF038F34E54B2460FFE54A5C
:10109B0034EAFEE43549FDE43548FC7B807AEE7991
:1010AB00367800120B94AC00AD01AE02AF03E47BBB
:1010BB00607AEAF9F8120B94E47B0AFAF9F8120B4E
:1010CB00948F35E54B2460FFE54A34EAFEE435495D
:1010DB00FDE43548FC7B807AEE79367800120B9470
:1010EB00E47B0AFAF9F8120B94AF038F36E54B2425
:1010FB0060FFE54A34EAFEE43549FDE43548FC7B04
:10110B00807AEE79367800120B94E47B0AFAF9F8C0
:10111B00120B948F37753D0122E54B2460FFE54A96
:10112B0034EAFEE43549FDE43548FC7B807AEE7900
:10113B00367800120B94AC00AD01AE02AF03E47B2A
:10114B00607AEAF9F8120B94E47B0AFAF9F8120BBD
:10115B0094AF038F34E54B2460FFE54A34EAFEE499
:10116B003549FDE43548FC7B807AEE793678001200
:10117B000B94AC00AD01AE02AF03E47B607AEAF9ED
:10118B00F8120B94E47B0AFAF9F8120B948F35E5FD
:10119B004B2460FFE54A34EAFEE43549FDE435486B
:1011AB00FC7B807AEE79367800120B94E47B0AFA9A
:1011BB00F9F8120B94AF038F36E54B2460FFE54A29
:1011CB0034EAFEE43549FDE43548FC7B807AEE7960
:1011DB00367800120B94E47B0AFAF9F8120B948F11
:1011EB0037E4F53D22C0E0C0F0C083C082C0D075AB
:1011FB00D000C000C001C002C003C004C005C006BF
:10120B00C007120C37E4FFFEFDFCAB43AA42A94119
:10121B00A840D3120C26401FE54CB4014AE54324E9
:10122B00FFF543E54234FFF542E54134FFF541E577
:10123B004034FFF5408030E4FFFEFDFCAB4BAA4A87
:10124B00A949A848D3120C26401DE54FB40118E557
:10125B004B24FFF54BE54A34FFF54AE54934FFF5DE
:10126B0049E54834FFF548D007D006D005D004D067
:10127B0003D002D001D000D0D0D082D083D0F0D018
:10128B00E03278FFE4F6D8FD9000007F007E04E4A6
:10129B00F0A3DFFCDEFA75814F0212E2021589E43E
:1012AB0093A3F8E493A34003F68001F208DFF480E4
:1012BB0029E493A3F85407240CC8C333C4540F4434
:1012CB0020C8834004F456800146F6DFE4800B010E
:1012DB0002040810204080901327E47E019360BC29
:1012EB00A3FF543F30E509541FFEE493A360010EA6
:1012FB00CF54C025E060A840B8E493A3FAE493A3CD
:10130B00F8E493A3C8C582C8CAC583CAF0A3C8C5ED
:10131B0082C8CAC583CADFE9DEE780BE0434000099
:10132B000000013D000440000000000448000000E4
:10133B0000043900000000014700024D005A01383B
:10134B0000014C00014F00014500014400023E002A
:10135B000001460002290000042B00000000022FB0
:10136B0000000221000001230002240000022600DD
:10137B000001280001310001320001330042000559
:10138B0003E842006403E84100590A41004E0201A0
:10139B00120002130000C102C101C1004200700023
:1013AB000000E4F58090FF0004F090FF01F090FF47
:1013BB0002F090FF03F090FF04F090FF05F090FF18
:1013CB0006F090FF07F090FF08F090FF09F090FFF8
:1013DB000AF090FF0BF090FF0CF090FF0DF090FFD8
:1013EB000EF090FF0FF0E4F5A090FF1004F090FFCB
:1013FB0011F090FF12F090FF13F090FF14F090FF9C
:10140B0015F090FF16F090FF17F0E4F5B090FF1C6D
:10141B0004F090FF1DF022E4FDFC901A49E493FFC9
:10142B00EDC39F503A74017E00A805088005C333B5
:10143B00CE33CED8F9FFE5135EFEE5145F4E600F99
:10144B0074252DF582E43400F583ECF00C800D74DB
:10145B00252DF582E43400F58374FFF00D80BB225B
:10146B007B807AEE79367800AF43AE42AD41AC402B
:10147B00120B94E47B0AFAF9F8120B94AF038F3436
:10148B007B807AEE79367800AF43AE42AD41AC400B
:10149B00120B94E47B0AFAF9F8120B948F3575361C
:1014AB002B75372BE4F53D227B807AEE793678006D
:1014BB00AF4BAE4AAD49AC48120B94E47B0AFAF938
:1014CB00F8120B94AF038F347B807AEE7936780069
:1014DB00AF4BAE4AAD49AC48120B94E47B0AFAF918
:1014EB00F8120B948F3575362B75372BE4F53D229F
:1014FB00E4FDFC1218DCAB07AA06ED25E0FFEC338C
:10150B00FE74F42FF58274183EF583C37401939B1C
:10151B00E4939A400B0DBD00010CED64784C70DA2E
:10152B00EB4A70057546028009BA0F06BBFF0375BF
:10153B004601AE04AF05220512901A49E493FFE56C
:10154B0012C39F4007D200D201E4F512E5144513F4
:10155B007003D2012274017E00A812088005C333E8
:10156B00CE33CED8F9FFE5135EFEE5145F4E60C7B0
:10157B00E5129019E493F5D5000000000022121833
:10158B009212186312184A1216121218A8D2AF121E
:10159B000DA630000B1217D6121805120012C2003E
:1015AB001207551216537F017E0012002EE53C24C4
:1015BB0001F53CE4353BF53BE4353AF53AE4353996
:1015CB00F53980CEAE4DAF4E7C007D0A120B0C8DE3
:1015DB0034AE4DAF4E7C007D64120B0C7E007F0A47
:1015EB00CFCDCFCECCCE120B0C8F35D3E54E946333
:1015FB00E54D648094804005753601800375362B6C
:10160B0075372BE4F53D2290FF1674C1F090FF1453
:10161B00F090FF1CF090FF12F090FF11F090FF156F
:10162B00F090FF1DF090FF13F090FF07F090FF017B
:10163B00F090FF00F090FF17F090FF0AF0D287D2E6
:10164B0081D280D2A7D292221214FB8E3E8F3FE51D
:10165B0031700990FF0974C1F0753101E547B40190
:10166B0024E4FFFEFDFCAB43AA42A941A840C312F0
:10167B000C267011D3E54E953FE54D953E4003D2B8
:10168B009122C29122C29122C0E0C0F0C083C082DD
:10169B00C0D075D000C000C001C002C003C004C0E0
:1016AB0005C006C007121773D007D006D005D004AB
:1016BB00D003D002D001D000D0D0D082D083D0F0D4
:1016CB00D0E032E4FF901A47E493FEEFC39E502B19
:1016DB0075F002EFA42466F582E5F03400F583E0A3
:1016EB00FCA3E0FD75F002EFA4244FF582E5F03486
:1016FB0000F583ECF0A3EDF00F80CA22E5432480C4
:10170B00F543E54234EEF542E5413436F541E43537
:10171B0040F5407F007E2E7D937C02AB43AA42A90D
:10172B0041F8D3120C264009E4F543F542F541F597
:10173B004022E54B2480F54BE54A34EEF54AE5496A
:10174B003436F549E43548F5487F007E2E7D937C91
:10175B0002AB4BAA4AA949F8D3120C264009E4F56F
:10176B004BF54AF549F5482253D4DF74252512F57C
:10177B0082E43400F583E075F002A42411F582E5D0
:10178B00F03400F583E5D7F0A3E5D6F01200063070
:10179B00020320000620010343D44022E4F508F5A0
:1017AB0009E533701890FF0374C2F090FF9C74032B
:1017BB00F075DE2075DF1075DD9775330175DD97DC
:1017CB007FC87E0012002E75DD0722E4FF75F00244
:1017DB00EFA42411F582E5F03400F583E0FCA3E0DF
:1017EB00FD75F002EFA42466F582E5F03400F58375
:1017FB00ECF0A3EDF00FBF05D4221218ECE4F508C2
:10180B00901A49E493FFE508C39F5009AF081200F3
:10181B008E050880EB9019FDE493600312007E2285
:10182B007405254EF54EE4354DF54DC3E54E947DCF
:10183B00E54D648094804006754D00754E282290CE
:10184B00FF027401F075B480FF7E0012187C75B531
:10185B000290FE9B744BF02290FF1074C1F090FF2E
:10186B00A07420F075CC06759E0275CEFF75CD98D1
:10187B0022EF1FAA0670011E4A600BE4FDEDC39414
:10188B004750EE0D80F722758E1190FE917401F08A
:10189B0090FEAA74FFF090FEA474C2F022E490FEB6
:1018AB0080F0F589758CFA758ACB43A802438810B2
:1018BB0022753408753508753608753708753D017E
:1018CB002275342B75352B75362B75372BE4F53D7F
:1018DB002243B440E5B430E5FB53B4DFAFB6AEB74B
:1018EB0022D201E5D420E6FB220EC70EB80EA80EBD
:1018FB00980E880E760E640E520E3F0E2B0E170EA0
:10190B00020DEC0DD60DBF0DA70D8F0D760D5D0DD8
:10191B00430D280D0C0CF00CD40CB70C990C7A0C55
:10192B005B0C3C0C1C0BFB0BDA0BB80B960B740B08
:10193B00510B2D0B090AE50AC10A9C0A770A510AB9
:10194B002C0A0609E009BA0994096E09470921080E
:10195B00FA08D408AE08870861083B081507F0079A
:10196B00CA07A50780075B0737071306EF06CC06E8
:10197B00A9068606640642062005FF05DE05BE05A0
:10198B009F057F056105420525050704EB04CE0481
:10199B00B20497047C04620448042F041603FE036C
:1019AB00E603CF03B803A2038C03760361034D0355
:1019BB00390325031202FF02ED02DB02CA02B80251
:1019CB00A80298028802780269025A024C023E026F
:1019DB003002230216020901FC0001020304050672
:1019EB000708090A0B0C0D0E0FF800001400300A43
:1019FB0020060100012C006402020050000A000ABC
:101A0B00000A000A000A000A000A000A000A000A7B
:101A1B00000A000A000A000A000A000A007800788F
:101A2B0000780078007800780078007800780078EB
:101A3B00007800780078007800780078050F1000A7
:00000001FF
